:100000000C9472000C947E000C947E000C947E0084
:100010000C947E000C947E000C947E000C947E0068
:100020000C947E000C947E000C947E000C947E0058
:100030000C947E000C947E000C947E000C947E0048
:100040000C947E000C947E000C947E000C947E0038
:100050000C947E000C947E000C947E000C947E0028
:100060000C947E000C947E000C947E000C947E0018
:100070000C947E000C947E000C947E000C947E0008
:100080000C947E000C947E000C947E000C947E00F8
:100090000C947E000C947E000C947E000C947E00E8
:1000A0000C947E000C947E000C947E000C947E00D8
:1000B0000C947E000C947E000C947E000C947E00C8
:1000C0000C947E000C947E000C947E000C947E00B8
:1000D0000C947E000C947E000C947E000C947E00A8
:1000E0000C947E0011241FBECFEFD1E2DEBFCDBF46
:1000F00000E00CBF0E9480000C94DB020C94000016
:10010000CF93DF93CDB7DEB7C454D1090FB6F894BF
:10011000DEBF0FBECDBF84E290E020ECDC012C936B
:1001200085E290E0FC01108280E090E0AAEFB3E469
:100130008F87988BA98BBA8B20E030E04AE755E493
:100140006F85788989899A890E9446026DA37EA36A
:100150008FA398A78DA19EA1AFA1B8A58B8B9C8BD7
:10016000AD8BBE8B20E030E040E85FE36B897C899B
:100170008D899E890E94C00188232CF481E090E043
:10018000988F8F8B55C020E03FEF4FE757E46B8986
:100190007C898D899E890E9441028823D9F1D4F1FE
:1001A00020E030E040E251E46F85788989899A89BE
:1001B0000E94460269A77AA78BA79CA789A59AA542
:1001C000ABA5BCA589A39AA3ABA3BCA369A17AA143
:1001D0008BA19CA10E94C5016DA77EA78FA798AB9C
:1001E000ADA5BEA5B88FAF8B10C080E991E09A8F06
:1001F000898F898D9A8D0197F1F79A8F898F0000E9
:100200008F89988D0197988F8F8B8F89988D009704
:1002100061F719C06B897C898D899E890E94C5010F
:1002200069AB7AAB8BAB9CABE9A9FAA9F88FEF8BE2
:100230008F89988D9C8F8B8F8B8D9C8D0197F1F77B
:100240009C8F8B8F000085E290E020ECDC012C93EA
:1002500080E090E0AAEFB3E489839A83AB83BC8308
:1002600020E030E04AE755E469817A818B819C8106
:100270000E9446026DAB7EAB8FAB98AF8DA99EA955
:10028000AFA9B8AD8D839E83AF83B88720E030E0FF
:1002900040E85FE36D817E818F8198850E94C00177
:1002A00088232CF481E090E09A8789875CC020E065
:1002B0003FEF4FE757E46D817E818F8198850E94E3
:1002C0004102882309F00CF43CC020E030E040E219
:1002D00051E469817A818B819C810E94460269AFD9
:1002E0007AAF8BAF9CAF89AD9AADABADBCAD8D8F06
:1002F0009E8FAF8FB8A36D8D7E8D8F8D98A10E943C
:10030000C50121966CAF7DAF8EAF9FAF2197ADAD8C
:10031000BEADBA87A98710C080E991E09C878B8722
:100320008B859C850197F1F79C878B8700008985D9
:100330009A8501979A87898789859A85009761F7B9
:100340001DC06D817E818F8198850E94C501259693
:100350006CAF7DAF8EAF9FAF25972396EEADFFAD0F
:100360002397FA87E98789859A859E878D878D856A
:100370009E850197F1F79E878D8700000000D0CE03
:100380000E94F40108F481E008950E94200288F0A0
:100390009F5798F0B92F9927B751B0F0E1F0660F49
:1003A000771F881F991F1AF0BA95C9F714C0B1308A
:1003B00091F00E943A02B1E008950C943A02672F3E
:1003C000782F8827B85F39F0B93FCCF386957795B9
:1003D0006795B395D9F73EF49095809570956195A2
:1003E0007F4F8F4F9F4F0895990F0008550FAA0B0D
:1003F000E0E8FEEF16161706E807F907C0F0121638
:100400001306E407F50798F0621B730B840B950B3A
:1004100039F40A2661F0232B242B252B21F408958F
:100420000A2609F4A140A6958FEF811D811D08952C
:1004300057FD9058440F551F59F05F3F71F0479595
:10044000880F97FB991F61F09F3F79F0879508957A
:10045000121613061406551FF2CF4695F1DF08C099
:10046000161617061806991FF1CF869571056105B6
:1004700008940895E894BB2766277727CB0197F95E
:1004800008950E94F40108F48FEF08950E94590224
:100490000C94CA020E94BC0238F00E94C30220F0F1
:1004A000952311F00C94B3020C94B90211240C940E
:1004B0003B020E94180270F3959FC1F3950F50E024
:1004C000551F629FF001729FBB27F00DB11D639F06
:1004D000AA27F00DB11DAA1F649F6627B00DA11DAC
:1004E000661F829F2227B00DA11D621F739FB00D52
:1004F000A11D621F839FA00D611D221F749F3327C2
:10050000A00D611D231F849F600D211D822F762F5A
:100510006A2F11249F5750409AF0F1F088234AF037
:10052000EE0FFF1FBB1F661F771F881F91505040A3
:10053000A9F79E3F510580F00C94B3020C943B0246
:100540005F3FE4F3983ED4F3869577956795B7952A
:10055000F795E7959F5FC1F7FE2B880F911D969544
:10056000879597F9089597F99F6780E870E060E0B4
:1005700008959FEF80EC089500240A94161617063C
:1005800018060906089500240A9412161306140684
:1005900005060895092E0394000C11F4882352F0E7
:1005A000BB0F40F4BF2B11F460FF04C06F5F7F4F9F
:0A05B0008F4F9F4F0895F894FFCF7E
:00000001FF
