:100000000C9472000C9493000C9493000C94930045
:100010000C9493000C9493000C9493000C94930014
:100020000C9493000C9493000C9493000C94930004
:100030000C9493000C9493000C9493000C949300F4
:100040000C9493000C9493000C9493000C949300E4
:100050000C9493000C946B0B0C9493000C94BE0BBB
:100060000C9493000C9493000C9493000C949300C4
:100070000C9493000C9493000C9493000C949300B4
:100080000C9493000C9493000C9493000C949300A4
:100090000C9493000C9493000C9493000C94930094
:1000A0000C9493000C9493000C9493000C94930084
:1000B0000C9493000C9493000C9493000C94930074
:1000C0000C9493000C9493000C9493000C94930064
:1000D0000C9493000C9493000C9493000C94930054
:1000E0000C94930011241FBECFEFD1E2DEBFCDBF31
:1000F00000E00CBF12E0A0E0B2E0E6E7F5E200E0CD
:100100000BBF02C007900D92A432B107D9F722E0CD
:10011000A4E2B2E001C01D92A433B207E1F70E944D
:1001200029060C94B9120C940000CF93DF93CDB73D
:10013000DEB781E091E0FC01208181E091E0206266
:10014000FC01208381E091E0FC01208181E091E0CD
:100150002061FC01208383E390E0FC01208183E3A4
:1001600090E02062FC01208382E091E0FC0120818C
:1001700082E091E02F7EFC01208384E390E0FC018B
:10018000208184E390E02F7DFC0120830000DF913B
:10019000CF910895CF93DF9300D00F920F92CDB7F8
:1001A000DEB78D831A82198239C08D81082E000C2A
:1001B000990B817099279C838B838D8185958D8385
:1001C0008B819C81009751F082E091E0FC012081BD
:1001D00082E091E02062FC01208309C082E091E08E
:1001E000FC01208182E091E02F7DFC01208382E0F0
:1001F00091E0FC01208182E091E02061FC012083FC
:1002000082E091E0FC01208182E091E02F7EFC0100
:10021000208389819A8101969A83898389819A8131
:100220008730910511F208F2000000000F900F9046
:100230000F900F900F90DF91CF910895CF93DF93A0
:100240000F920F92CDB7DEB79A83898380E190E059
:10025000098002C0880F991F0A94E2F70E94CA0021
:1002600000000F900F90DF91CF910895CF93DF930F
:1002700000D0CDB7DEB789837B836A8389810E94F2
:10028000CA008A819B810E941E0184E390E0FC01E8
:10029000208184E390E02062FC01208384E390E0ED
:1002A000FC01208184E390E02F7DFC01208300008D
:1002B0000F900F900F90DF91CF910895CF93DF9320
:1002C000CDB7DEB7A6970FB6F894DEBF0FBECDBF91
:1002D0009A8B898B1A821982CCC049895A899A01D2
:1002E000ADECBCEC0E9452119C01369527953695D9
:1002F000279536952795C901880F991F880F991F53
:10030000820F931F880F991F9A01281B390BC9016F
:10031000880F991F8E5F9D4FDC018D919C91282F36
:1003200089819A81BC01822F0E94360189899A892C
:100330009C01ADECBCEC0E94521196958795969568
:100340008795969587959A8B898B80E090E0A0E8B9
:10035000BFE38B839C83AD83BE8320E030E04AE71C
:1003600055E46B817C818D819E810E9424126F8B6C
:10037000788F898F9A8F8F89988DA98DBA8D8F8369
:100380009887A987BA8720E030E040E85FE36F8173
:10039000788589859A850E94611188232CF481E0F3
:1003A00090E09C878B8755C020E03FEF4FE757E4F4
:1003B0006F81788589859A850E941F128823D9F1DB
:1003C000D4F120E030E040E251E46B817C818D810A
:1003D0009E810E9424126B8F7C8F8D8F9E8F8B8DC0
:1003E0009C8DAD8DBE8D8B8B9C8BAD8BBE8B6B89AD
:1003F0007C898D899E890E9466116F8F78A389A35D
:100400009AA3AF8DB8A1BC87AB8710C080E991E0FB
:100410009E878D878D859E850197F1F79E878D87B5
:1004200000008B859C8501979C878B878B859C859D
:10043000009761F719C06F81788589859A850E9438
:1004400066116BA37CA38DA39EA3EBA1FCA1FC87EB
:10045000EB878B859C85988B8F878F8598890197F3
:10046000F1F7988B8F87000089819A8101969A8392
:10047000898389819A818330910509F00CF42DCF0D
:1004800000000000A6960FB6F894DEBF0FBECDBFE9
:10049000DF91CF910895CF93DF93CDB7DEB7C855E5
:1004A000D1090FB6F894DEBF0FBECDBF1A821982F4
:1004B0008FE290E0DC018C91882F90E08270992788
:1004C000009709F0C7C089819A81009709F00CF460
:1004D000C1C089819A8101979A838983B0C0809134
:1004E0000002909101029C01990F440B550B29AB1E
:1004F0003AAB4BAB5CAB69A97AA98BA99CA90E94CA
:10050000971169A37AA38BA39CA389A19AA1ABA1FC
:10051000BCA18D839E83AF83B88720E030E04AE79B
:1005200055E46D817E818F8198850E9424126DAB88
:100530007EAB8FAB98AF2DA93EA94FA958AD2987A7
:100540003A874B875C8720E030E040E85FE36985CD
:100550007A858B859C850E94611188232CF481E02B
:1005600090E09E878D875CC020E03FEF4FE757E427
:1005700069857A858B859C850E941F12882309F0E6
:100580000CF43CC020E030E040E251E46D817E811B
:100590008F8198850E94241269AF7AAF8BAF9CAF90
:1005A00089AD9AADABADBCAD89A79AA7ABA7BCA7E7
:1005B00069A57AA58BA59CA50E94661121966CAFB2
:1005C0007DAF8EAF9FAF2197ADADBEADBE87AD877E
:1005D00010C080E991E0988B8F878F85988901976B
:1005E000F1F7988B8F8700008D859E8501979E87F8
:1005F0008D878D859E85009761F71DC069857A85F9
:100600008B859C850E94661125966CAF7DAF8EAF61
:100610009FAF25972396EEADFFAD2397FE87ED871D
:100620008D859E859A8B898B89899A890197F1F7A7
:100630009A8B898B000089819A810E945E018FE2EA
:1006400090E0DC018C91882F90E0827099270097D0
:1006500009F445CF8FE290E0FC018081882F90E083
:1006600084709927009709F0D6C089819A818336D2
:10067000910511F00CF0CFC089819A8101969A837F
:100680008983BEC080910002909101029C01990F64
:10069000440B550B29962CAF3DAF4EAF5FAF29975A
:1006A00029966CAD7DAD8EAD9FAD29970E949711B7
:1006B0006DA37EA38FA398A78DA19EA1AFA1B8A57E
:1006C0008B8B9C8BAD8BBE8B20E030E04AE755E4F2
:1006D0006B897C898D899E890E9424122D966CAF2E
:1006E0007DAF8EAF9FAF2D972D962CAD3DAD4EAD0E
:1006F0005FAD2D972F8B388F498F5A8F20E030E0D8
:1007000040E85FE36F89788D898D9A8D0E94611131
:1007100088232CF481E090E09C8F8B8F62C020E0D6
:100720003FEF4FE757E46F89788D898D9A8D0E944E
:100730001F12882309F00CF442C020E030E040E2B0
:1007400051E46B897C898D899E890E94241261966F
:100750006CAF7DAF8EAF9FAF619761968CAD9DAD55
:10076000AEADBFAD61978DA79EA7AFA7B8AB6DA586
:100770007EA58FA598A90E94661165966CAF7DAF86
:100780008EAF9FAF65976396AEADBFAD6397BC8FDD
:10079000AB8F10C080E991E09E8F8D8F8D8D9E8DE7
:1007A0000197F1F79E8F8D8F00008B8D9C8D0197A7
:1007B0009C8F8B8F8B8D9C8D009761F71DC06F89EF
:1007C000788D898D9A8D0E94661169966CAF7DAF88
:1007D0008EAF9FAF69976796EEADFFAD6797FC8FC1
:1007E000EB8F8B8D9C8D98A38F8F8F8D98A1019708
:1007F000F1F798A38F8F000089819A810E945E0192
:100800008FE290E0DC018C91882F90E08470992732
:10081000009709F437CF89819A810E945E018FE2A7
:1008200090E0FC018081882F90E0887099270097E4
:1008300009F03ECE80E090E00E945E0189819A81BD
:100840009C838B831A8219828B819C81C85ADF4FCB
:100850000FB6F894DEBF0FBECDBFDF91CF910895E4
:10086000CF93DF9300D00F920F92CDB7DEB789837D
:100870007B836A835D834C838A819B81FC018081B9
:10088000482F8981282F30E081E090E002C0880F56
:10089000991F2A95E2F7842B282F8A819B81FC01DE
:1008A00020838C819D81FC018081882F90E02981AB
:1008B000222F30E0022E02C0959587950A94E2F728
:1008C00081709927009719F481E090E002C080E0E0
:1008D00090E00F900F900F900F900F90DF91CF91BD
:1008E0000895CF93DF93CDB7DEB7C954D1090FB6C2
:1008F000F894DEBF0FBECDBF8D8F7F8F6E8F59A353
:1009000048A38E8D9F8DDC018C91482F8D8D282FD3
:1009100030E081E090E002C0880F991F2A95E2F74D
:10092000842B282F8E8D9F8DFC01208388A199A177
:10093000DC018C91882F90E02D8D222F30E0022E4B
:1009400002C0959587950A94E2F7817099270097E0
:1009500009F065C19091270281E0992309F080E0B8
:10096000282F30E080912C0290912D028223932336
:10097000009709F49BC0809128029091290201966A
:10098000909329028093280281E08093270280E0DF
:1009900090E0A8E4B2E489839A83AB83BC8320E02F
:1009A00030E04AE755E469817A818B819C810E941D
:1009B00024126AA77BA78CA79DA78AA59BA5ACA597
:1009C000BDA58D839E83AF83B88720E030E040E8EB
:1009D0005FE36D817E818F8198850E9461118823FC
:1009E0002CF481E090E09A87898755C020E03FEFA2
:1009F0004FE757E46D817E818F8198850E941F1299
:100A00008823D9F1D4F120E030E040E251E469815B
:100A10007A818B819C810E9424126EA77FA788AB6C
:100A200099AB8EA59FA5A8A9B9A98AA39BA3ACA39E
:100A3000BDA36AA17BA18CA19DA10E9466116AAB96
:100A40007BAB8CAB9DABAAA9BBA9BA87A98710C009
:100A500080E991E09C878B878B859C850197F1F7D6
:100A60009C878B87000089859A8501979A8789875B
:100A700089859A85009761F719C06D817E818F8184
:100A800098850E9466116EAB7FAB88AF99AFEEA9D7
:100A9000FFA9FA87E98789859A859E878D878D8545
:100AA0009E850197F1F79E878D8700009091270220
:100AB00081E0992309F080E0282F30E080912D0219
:100AC00090912E0282239323009709F4AAC080916B
:100AD000280290912902019790932902809328027D
:100AE00081E08093270280E090E0A8E4B2E48F8761
:100AF000988BA98BBA8B20E030E04AE755E46F85EC
:100B0000788989899A890E9424126AAF7BAF8CAF59
:100B10009DAF8AAD9BADACADBDAD8B8B9C8BAD8BD2
:100B2000BE8B20E030E040E85FE36B897C898D89F3
:100B30009E890E94611188232CF481E090E0988FB7
:100B40008F8B62C020E03FEF4FE757E46B897C89D1
:100B50008D899E890E941F12882309F00CF442C0DF
:100B600020E030E040E251E46F85788989899A89F4
:100B70000E94241222966CAF7DAF8EAF9FAF22975A
:100B800022968CAD9DADAEADBFAD22978EA39FA337
:100B9000A8A7B9A76EA17FA188A599A50E946611F3
:100BA00026966CAF7DAF8EAF9FAF26972496AEADE5
:100BB000BFAD2497B88FAF8B10C080E991E09A8FBA
:100BC000898F898D9A8D0197F1F79A8F898F00000F
:100BD0008F89988D0197988F8F8B8F89988D00972B
:100BE00061F71FC06B897C898D899E890E9466117F
:100BF0002A966CAF7DAF8EAF9FAF2A972896EEAD49
:100C0000FFAD2897F88FEF8B8F89988D9C8F8B8FF6
:100C10008B8D9C8D0197F1F79C8F8B8F02C010926A
:100C200027028091280290912902992324F410929E
:100C30002902109228028091280290912902C75B14
:100C4000DF4F0FB6F894DEBF0FBECDBFDF91CF915F
:100C500008950F931F93CF93DF93CDB7DEB7C05C9A
:100C6000D1090FB6F894DEBF0FBECDBF0E9495002C
:100C70008BE090E09C838B838B819C810E945E0142
:100C800080E090E0AAEFB3E48D8B9E8BAF8BB88FA2
:100C900020E030E04AE755E46D897E898F89988DA0
:100CA0000E942412AD966CAF7DAF8EAF9FAFAD9713
:100CB000AD962CAD3DAD4EAD5FADAD97298F3A8F62
:100CC0004B8F5C8F20E030E040E85FE3698D7A8DE8
:100CD0008B8D9C8D0E94611188232CF481E090E023
:100CE0009E8F8D8F66C020E03FEF4FE757E4698D00
:100CF0007A8D8B8D9C8D0E941F12882309F00CF435
:100D000046C020E030E040E251E46D897E898F8961
:100D1000988D0E942412E1966CAF7DAF8EAF9FAF8D
:100D2000E197E1968CAD9DADAEADBFADE1976D960F
:100D30008CAF9DAFAEAFBFAF6D976D966CAD7DAD17
:100D40008EAD9FAD6D970E946611E5966CAF7DAF3D
:100D50008EAF9FAFE597E396AEADBFADE397BE8F85
:100D6000AD8F10C080E991E098A38F8F8F8D98A1EF
:100D70000197F1F798A38F8F00008D8D9E8D0197BD
:100D80009E8F8D8F8D8D9E8D009761F71DC0698D13
:100D90007A8D8B8D9C8D0E946611E9966CAF7DAF2C
:100DA0008EAF9FAFE997E796EEADFFADE797FE8F69
:100DB000ED8F8D8D9E8D9AA389A389A19AA101970C
:100DC000F1F79AA389A3000085E190E09E838D83CB
:100DD0008D819E810E945E0180E090E0AAEFB3E4E5
:100DE0008F839887A987BA8720E030E04AE755E4E7
:100DF0006F81788589859A850E942412ED966CAF63
:100E00007DAF8EAF9FAFED97ED962CAD3DAD4EAD66
:100E10005FADED972B873C874D875E8720E030E004
:100E200040E85FE36B857C858D859E850E9461111E
:100E300088232CF481E090E0988B8F8772C020E0AB
:100E40003FEF4FE757E46B857C858D859E850E943B
:100E50001F12882309F00CF44EC020E030E040E27D
:100E600051E46F81788589859A850E942412C35840
:100E7000DF4F688379838A839B83CD57D040C358E3
:100E8000DF4F88819981AA81BB81CD57D040699677
:100E90008CAF9DAFAEAFBFAF699769966CAD7DADBE
:100EA0008EAD9FAD69970E946611CF57DF4F688363
:100EB00079838A839B83C158D040CF57DF4FA88165
:100EC000B981C158D040B88BAF8710C080E991E09C
:100ED0009A8B898B89899A890197F1F79A8B898BEB
:100EE00000008F8598890197988B8F878F859889C7
:100EF000009761F721C06B857C858D859E850E945A
:100F00006611CB57DF4F688379838A839B83C558EB
:100F1000D040CB57DF4FE881F981C558D040F88BDE
:100F2000EF878F8598899C8B8B8B8B899C89019708
:100F3000F1F79C8B8B8B00000E94200C0E944E0CC2
:100F400010922602109225020E941E0B0E9422116E
:100F50009A838983DEC00E9422119A8389838091BB
:100F60002202909123029C01990F440B550BC75705
:100F7000DF4F288339834A835B83C958D040C757E2
:100F8000DF4F688179818A819B81C958D0400E9456
:100F9000971161966CAF7DAF8EAF9FAF61976196F1
:100FA0008CAD9DADAEADBFAD61978BA39CA3ADA342
:100FB000BEA320E030E04AE755E46BA17CA18DA1FF
:100FC0009EA10E942412C357DF4F688379838A83CE
:100FD0009B83CD58D040C357DF4F288139814A8148
:100FE0005B81CD58D0402FA338A749A75AA720E04E
:100FF00030E040E85FE36FA178A589A59AA50E943B
:10100000611188232CF481E090E09CA78BA772C02B
:1010100020E03FEF4FE757E46FA178A589A59AA597
:101020000E941F12882309F00CF44EC020E030E02B
:1010300040E251E46BA17CA18DA19EA10E942412EB
:10104000CF56DF4F688379838A839B83C159D04011
:10105000CF56DF4F88819981AA81BB81C159D04089
:10106000A1968CAF9DAFAEAFBFAFA197A1966CAD6F
:101070007DAD8EAD9FADA1970E946611CB56DF4F1F
:10108000688379838A839B83C559D040CB56DF4FD1
:10109000A881B981C559D040BCA7ABA710C080E9D1
:1010A00091E09EA78DA78DA59EA50197F1F79EA71C
:1010B0008DA700008BA59CA501979CA78BA78BA54E
:1010C0009CA5009761F721C06FA178A589A59AA575
:1010D0000E946611C756DF4F688379838A839B839A
:1010E000C959D040C756DF4FE881F981C959D0406E
:1010F000FCA7EBA78BA59CA598AB8FA78FA598A95C
:101100000197F1F798AB8FA700008B819C810E941B
:101110005E018B819C8141E029813A812817390742
:1011200009F440E0809130029091310221E0009773
:1011300009F020E0842F8223882309F00CCF0E943D
:10114000520B0E94620E2B813C818D819E8128175B
:1011500039071CF40E941E0B02C00E942B0B0E9438
:1011600022119A838983DEC00E9422119A83898387
:1011700080912202909123029C01990F440B550B00
:10118000C356DF4F288339834A835B83CD59D040D0
:10119000C356DF4F688179818A819B81CD59D040C8
:1011A0000E94971165966CAF7DAF8EAF9FAF65972C
:1011B00065968CAD9DADAEADBFAD659789AB9AAB75
:1011C000ABABBCAB20E030E04AE755E469A97AA9B3
:1011D0008BA99CA90E942412CF55DF4F6883798385
:1011E0008A839B83C15AD040CF55DF4F28813981F4
:1011F0004A815B81C15AD0402DAB3EAB4FAB58AF5B
:1012000020E030E040E85FE36DA97EA98FA998ADAA
:101210000E94611188232CF481E090E09AAF89AF9D
:1012200072C020E03FEF4FE757E46DA97EA98FA978
:1012300098AD0E941F12882309F00CF44EC020E0E4
:1012400030E040E251E469A97AA98BA99CA90E94E7
:101250002412CB55DF4F688379838A839B83C55AD9
:10126000D040CB55DF4F88819981AA81BB81C55A77
:10127000D040A5968CAF9DAFAEAFBFAFA597A5965A
:101280006CAD7DAD8EAD9FADA5970E946611C75523
:10129000DF4F688379838A839B83C95AD040C755BF
:1012A000DF4FA881B981C95AD040BAAFA9AF10C0E9
:1012B00080E991E09CAF8BAF8BAD9CAD0197F1F7CE
:1012C0009CAF8BAF000089AD9AAD01979AAF89AF03
:1012D00089AD9AAD009761F721C06DA97EA98FA94C
:1012E00098AD0E946611C355DF4F688379838A8366
:1012F0009B83CD5AD040C355DF4FE881F981CD5A49
:10130000D040FAAFE9AF89AD9AAD9EAF8DAF8DAD4C
:101310009EAD0197F1F79EAF8DAF00008D819E814C
:101320000E945E018D819E8129813A8128173907AB
:1013300009F01ACF0E94520B0E94C30F0E944E0C5C
:101340009E01215C3F4F80E090E0AAE7B4E4F90100
:1013500080839183A283B3838E010D5B1F4FCE01E7
:10136000CF9620E030E04AE755E4DC016D917D91B5
:101370008D919C910E942412CF54DF4F6883798312
:101380008A839B83C15BD040CF54DF4F2881398152
:101390004A815B81C15BD040D8012D933D934D9331
:1013A0005C931397CE018D5B9F4F20E030E040E8C7
:1013B0005FE3FC0160817181828193810E946111F0
:1013C000882354F4CE01895B9F4F21E030E0DC019B
:1013D00011963C932E93A0C0CE018D5B9F4F20E0D1
:1013E0003FEF4FE757E4FC01608171818281938177
:1013F0000E941F12882309F00CF470C0CE01CF9612
:1014000020E030E040E251E4DC016D917D918D916E
:101410009C910E942412CB54DF4F688379838A8386
:101420009B83C55BD040CB54DF4F288139814A81F3
:101430005B81C55BD040A9962CAF3DAF4EAF5FAF8F
:10144000A9978E01095B1F4FA9966CAD7DAD8EAD3E
:101450009FADA9970E946611C754DF4F68837983B7
:101460008A839B83C95BD040C754DF4FE881F981F1
:10147000C95BD040D8011196FC93EE9326C0CE01F3
:10148000875B9F4F20E931E0DC012D933C93CE0137
:10149000875B9F4FFC01808191810197F1F79E014D
:1014A000275B3F4FD9018D939C930000CE01895B50
:1014B0009F4F9E01295B3F4FF901208131812150CF
:1014C0003109DC0111963C932E93CE01895B9F4F2D
:1014D000FC0180819181009791F63AC08E01095BF1
:1014E0001F4FCE018D5B9F4FDC016D917D918D91E2
:1014F0009C910E946611C354DF4F688379838A836D
:101500009B83CD5BD040C354DF4F28813981CD5BB5
:10151000D040F80131832083CE01855B9F4F9E012F
:10152000295B3F4FD9012D913C91FC0131832083F0
:10153000CE01855B9F4FDC018D919C9111970197A6
:10154000F1F79E01255B3F4FF901918380830000F5
:101550000000000080E090E0C054DF4F0FB6F89428
:10156000DEBF0FBECDBFDF91CF911F910F910895C8
:10157000CF93DF93CDB7DEB784E490E0FC01108217
:1015800085E490E023E0FC01208387E490E02FE7EE
:10159000FC0120838EE690E023E0FC012083000024
:1015A000DF91CF910895CF93DF93CDB7DEB784E27B
:1015B00090E0FC01208184E290E02064FC01208323
:1015C0008AE091E0FC0120818AE091E02862FC0140
:1015D00020838BE091E0FC0120818BE091E0277D6E
:1015E000FC01208381E290E0FC01208181E290E017
:1015F0002160FC01208380E390E0FC01208180E3F6
:1016000090E02D7FFC01208381E390E0FC012081AC
:1016100081E390E02260FC0120830000DF91CF9104
:101620000895CF93DF93CDB7DEB70E94D30A0E940F
:10163000B80A78940000DF91CF910895CF93DF939B
:10164000CDB7DEB781E080932C0210922D0200000E
:10165000DF91CF910895CF93DF93CDB7DEB781E0CF
:1016600080932D0210922C020000DF91CF910895FB
:10167000CF93DF93CDB7DEB781E080932F02109236
:101680002E020000DF91CF910895CF93DF93CDB765
:10169000DEB781E080932E0210922F020000DF91CE
:1016A000CF910895CF93DF93CDB7DEB710922C0280
:1016B00010922D0210922E0210922F028BE091E0D8
:1016C000FC0120818BE091E0237CFC012083000061
:1016D000DF91CF9108951F920F920FB60F921124B0
:1016E0000BB60F922F938F939F93EF93FF93CF930C
:1016F000DF93CDB7DEB780912C02882349F08BE0D1
:1017000091E0FC0120818BE091E02F7DFC012083A2
:1017100080912D02882349F08BE091E0FC0120812B
:101720008BE091E0277FFC01208380912E028823AB
:1017300049F08BE091E0FC0120818BE091E02B7F70
:10174000FC01208380912F02882349F08BE091E0F7
:10175000FC0120818BE091E02F7EFC0120830000C2
:10176000DF91CF91FF91EF919F918F912F910F90EA
:101770000BBE0F900FBE0F901F9018951F920F92E7
:101780000FB60F9211240BB60F922F938F939F9346
:10179000EF93FF93CF93DF93CDB7DEB780912C0209
:1017A000882349F08BE091E0FC0120818BE091E0FF
:1017B0002062FC01208380912D02882349F08BE078
:1017C00091E0FC0120818BE091E02860FC01208306
:1017D00080912E02882349F08BE091E0FC0120816A
:1017E0008BE091E02460FC01208380912F0288230C
:1017F00049F08BE091E0FC0120818BE091E02061D9
:10180000FC0120830000DF91CF91FF91EF919F9128
:101810008F912F910F900BBE0F900FBE0F901F90C6
:101820001895CF93DF93CDB7DEB786E290E0FC0149
:101830008081882F90E082709927DF91CF91089561
:10184000CF93DF93CDB7DEB70E94110B87E290E014
:10185000FC01208187E290E02160FC01208388E286
:1018600090E0FC01208188E290E02E7FFC01208343
:1018700084E290E0FC01208184E290E0287FFC017A
:10188000208385E290E0FC01208185E290E02760E2
:10189000FC0120830000DF91CF910895CF93DF9367
:1018A000CDB7DEB7C656D1090FB6F894DEBF0FBE6E
:1018B000CDBF0E94450B98C080E090E0A0E8BFE358
:1018C00089839A83AB83BC8320E030E04AE755E408
:1018D00069817A818B819C810E9424126FAB78AFE1
:1018E00089AF9AAF8FA998ADA9ADBAAD8D839E830C
:1018F000AF83B88720E030E040E85FE36D817E8110
:101900008F8198850E94611188232CF481E090E0FA
:101910009A8789875EC020E03FEF4FE757E46D81EB
:101920007E818F8198850E941F12882309F00CF414
:101930003EC020E030E040E251E469817A818B8151
:101940009C810E9424126BAF7CAF8DAF9EAF8BAD9C
:101950009CADADADBEAD8BA79CA7ADA7BEA76BA53B
:101960007CA58DA59EA50E94661123966CAF7DAFC8
:101970008EAF9FAF23972196AEADBFAD2197BA87AB
:10198000A98710C080E991E09C878B878B859C8517
:101990000197F1F79C878B87000089859A850197CD
:1019A0009A87898789859A85009761F71DC06D811F
:1019B0007E818F8198850E94661127966CAF7DAFDE
:1019C0008EAF9FAF279725968EAD9FAD25979A87AF
:1019D000898789859A859E878D878D859E850197C4
:1019E000F1F79E878D87000043E250E065E270E0EA
:1019F00083E00E943004009709F45ECF0E94520BEE
:101A00000E942B0BA0C080E090E0A0E8BFE38F878E
:101A1000988BA98BBA8B20E030E04AE755E46F85BC
:101A2000788989899A890E9424122B966CAF7DAFA0
:101A30008EAF9FAF2B972B968CAD9DADAEADBFAD4E
:101A40002B978B8B9C8BAD8BBE8B20E030E040E8DE
:101A50005FE36B897C898D899E890E94611188234F
:101A60002CF481E090E0988F8F8B62C020E03FEFF4
:101A70004FE757E46B897C898D899E890E941F12EC
:101A8000882309F00CF442C020E030E040E251E449
:101A90006F85788989899A890E9424122F966CAF64
:101AA0007DAF8EAF9FAF2F972F968CAD9DADAEAD16
:101AB000BFAD2F978FA798ABA9ABBAAB6FA578A98D
:101AC00089A99AA90E94661163966CAF7DAF8EAF0B
:101AD0009FAF63976196AEADBFAD6197B88FAF8B87
:101AE00010C080E991E09A8F898F898D9A8D019736
:101AF000F1F79A8F898F00008F89988D0197988FC1
:101B00008F8B8F89988D009761F71DC06B897C89B9
:101B10008D899E890E94661167966CAF7DAF8EAFEE
:101B20009FAF679765968EAD9FAD6597988F8F8BAA
:101B30008F89988D9C8F8B8F8B8D9C8D0197F1F762
:101B40009C8F8B8F000043E250E065E270E081E003
:101B50000E943004009709F456CF0E94520B0E9455
:101B60002B0B80E090E0A0E2B1E48D8F9E8FAF8FD1
:101B7000B8A320E030E04AE755E46D8D7E8D8F8D6F
:101B800098A10E9424126B966CAF7DAF8EAF9FAF71
:101B90006B976B968CAD9DADAEADBFAD6B9789A3CA
:101BA0009AA3ABA3BCA320E030E040E85FE369A1C7
:101BB0007AA18BA19CA10E94611188232CF481E061
:101BC00090E09EA38DA362C020E03FEF4FE757E473
:101BD00069A17AA18BA19CA10E941F12882309F000
:101BE0000CF442C020E030E040E251E46D8D7E8D87
:101BF0008F8D98A10E9424126F966CAF7DAF8EAF2F
:101C00009FAF6F976F968CAD9DADAEADBFAD6F972B
:101C10008BAB9CABADABBEAB6BA97CA98DA99EA9D0
:101C20000E946611A3966CAF7DAF8EAF9FAFA39756
:101C3000A196AEADBFADA197BEA3ADA310C080E984
:101C400091E098A78FA38FA198A50197F1F798A786
:101C50008FA300008DA19EA101979EA38DA38DA1AE
:101C60009EA1009761F71DC069A17AA18BA19CA1DB
:101C70000E946611A7966CAF7DAF8EAF9FAFA797FE
:101C8000A5968EAD9FADA5979EA38DA38DA19EA178
:101C90009AA789A789A59AA50197F1F79AA789A775
:101CA00000000E94520B1092330210923202000088
:101CB000CA59DF4F0FB6F894DEBF0FBECDBFDF911C
:101CC000CF910895CF93DF93CDB7DEB7C454D10938
:101CD0000FB6F894DEBF0FBECDBF0E94380B8FC089
:101CE00080E090E0A0E8BFE389839A83AB83BC8364
:101CF00020E030E04AE755E469817A818B819C815C
:101D00000E9424126DA37EA38FA398A78DA19EA1EC
:101D1000AFA1B8A58D839E83AF83B88720E030E064
:101D200040E85FE36D817E818F8198850E9461111B
:101D300088232CF481E090E09A87898755C020E0C1
:101D40003FEF4FE757E46D817E818F8198850E9438
:101D50001F128823D9F1D4F120E030E040E251E4B1
:101D600069817A818B819C810E94241269A77AA75C
:101D70008BA79CA789A59AA5ABA5BCA58D8F9E8F87
:101D8000AF8FB8A36D8D7E8D8F8D98A10E94661147
:101D90006DA77EA78FA798ABADA5BEA5BA87A9876B
:101DA00010C080E991E09C878B878B859C8501978B
:101DB000F1F79C878B87000089859A8501979A8720
:101DC000898789859A85009761F719C06D817E8121
:101DD0008F8198850E94661169AB7AAB8BAB9CAB07
:101DE00089A99AA99A87898789859A859E878D87E7
:101DF0008D859E850197F1F79E878D87000043E2D0
:101E000050E065E270E082E00E943004009709F43F
:101E100067CF0E94520B0E9430110E94450B96C062
:101E200080E090E0A0E8BFE38F87988BA98BBA8B06
:101E300020E030E04AE755E46F85788989899A89FE
:101E40000E9424126DAB7EAB8FAB98AF8DA99EA97B
:101E5000AFA9B8AD8B8B9C8BAD8BBE8B20E030E0F7
:101E600040E85FE36B897C898D899E890E946111BE
:101E700088232CF481E090E0988F8F8B5CC020E069
:101E80003FEF4FE757E46B897C898D899E890E94DB
:101E90001F12882309F00CF43CC020E030E040E23F
:101EA00051E46F85788989899A890E94241269AFE3
:101EB0007AAF8BAF9CAF89AD9AADABADBCAD89A30A
:101EC0009AA3ABA3BCA369A17AA18BA19CA10E94F8
:101ED000661121966CAF7DAF8EAF9FAF2197ADADF0
:101EE000BEADB88FAF8B10C080E991E09A8F898F1B
:101EF000898D9A8D0197F1F79A8F898F00008F89CC
:101F0000988D0197988F8F8B8F89988D009761F7A7
:101F10001DC06B897C898D899E890E9466112596DA
:101F20006CAF7DAF8EAF9FAF259723968EAD9FADE3
:101F30002397988F8F8B8F89988D9C8F8B8F8B8D0C
:101F40009C8D0197F1F79C8F8B8F000043E250E04E
:101F500065E270E083E00E943004009709F460CFEE
:101F60000E94520B81E090E0909331028093300206
:101F70000000CC5BDF4F0FB6F894DEBF0FBECDBFC5
:101F8000DF91CF910895CF93DF93CDB7DEB7C454DF
:101F9000D1090FB6F894DEBF0FBECDBF0E94380B3B
:101FA0008FC080E090E0A0E8BFE389839A83AB8391
:101FB000BC8320E030E04AE755E469817A818B8177
:101FC0009C810E9424126DA37EA38FA398A78DA14C
:101FD0009EA1AFA1B8A58D839E83AF83B88720E073
:101FE00030E040E85FE36D817E818F8198850E94BB
:101FF000611188232CF481E090E09A87898755C08D
:1020000020E03FEF4FE757E46D817E818F81988517
:102010000E941F128823D9F1D4F120E030E040E281
:1020200051E469817A818B819C810E94241269A785
:102030007AA78BA79CA789A59AA5ABA5BCA58D8FD0
:102040009E8FAF8FB8A36D8D7E8D8F8D98A10E94CE
:1020500066116DA77EA78FA798ABADA5BEA5BA8761
:10206000A98710C080E991E09C878B878B859C8530
:102070000197F1F79C878B87000089859A850197E6
:102080009A87898789859A85009761F719C06D813C
:102090007E818F8198850E94661169AB7AAB8BAB8C
:1020A0009CAB89A99AA99A87898789859A859E87F1
:1020B0008D878D859E850197F1F79E878D8700001E
:1020C00043E250E065E270E082E00E943004009755
:1020D00009F467CF0E94520B0E9441110E94450BE8
:1020E00096C080E090E0A0E8BFE38F87988BA98B33
:1020F000BA8B20E030E04AE755E46F85788989891A
:102100009A890E9424126DAB7EAB8FAB98AF8DA9DC
:102110009EA9AFA9B8AD8B8B9C8BAD8BBE8B20E0FD
:1021200030E040E85FE36B897C898D899E890E945D
:10213000611188232CF481E090E0988F8F8B5CC034
:1021400020E03FEF4FE757E46B897C898D899E89BA
:102150000E941F12882309F00CF43CC020E030E0FC
:1021600040E251E46F85788989899A890E94241216
:1021700069AF7AAF8BAF9CAF89AD9AADABADBCAD5B
:1021800089A39AA3ABA3BCA369A17AA18BA19CA1AB
:102190000E94661121966CAF7DAF8EAF9FAF2197E5
:1021A000ADADBEADB88FAF8B10C080E991E09A8F16
:1021B000898F898D9A8D0197F1F79A8F898F000009
:1021C0008F89988D0197988F8F8B8F89988D009725
:1021D00061F71DC06B897C898D899E890E9466117B
:1021E00025966CAF7DAF8EAF9FAF259723968EADB2
:1021F0009FAD2397988F8F8B8F89988D9C8F8B8F16
:102200008B8D9C8D0197F1F79C8F8B8F000043E2A3
:1022100050E065E270E083E00E943004009709F42A
:1022200060CF0E94520B10923102109230020000D7
:10223000CC5BDF4F0FB6F894DEBF0FBECDBFDF9192
:10224000CF910895CF93DF93CDB7DEB743E250E04F
:1022500065E270E080E00E947104DF91CF91089503
:10226000CF93DF93CDB7DEB788E290E0FC01208109
:1022700088E290E02160FC0120830000DF91CF9193
:102280000895CF93DF93CDB7DEB788E290E0FC01ED
:10229000208188E290E02E7FFC0120830000DF9106
:1022A000CF910895A29FB001B39FC001A39F700D6D
:1022B000811D1124911DB29F700D811D1124911D4E
:1022C00008950E94D21108F481E008950E94FE1141
:1022D00088F09F5798F0B92F9927B751B0F0E1F0E7
:1022E000660F771F881F991F1AF0BA95C9F714C097
:1022F000B13091F00E941812B1E008950C941812B8
:10230000672F782F8827B85F39F0B93FCCF38695CF
:1023100077956795B395D9F73EF49095809570952C
:1023200061957F4F8F4F9F4F0895E89409C097FBA9
:102330003EF490958095709561957F4F8F4F9F4F9C
:102340009923A9F0F92F96E9BB279395F6958795E0
:1023500077956795B795F111F8CFFAF4BB0F11F4A3
:1023600060FF1BC06F5F7F4F8F4F9F4F16C088234A
:1023700011F096E911C0772321F09EE8872F762F80
:1023800005C0662371F096E8862F70E060E02AF0C1
:102390009A95660F771F881FDAF7880F96958795AD
:1023A00097F90895990F0008550FAA0BE0E8FEEF82
:1023B00016161706E807F907C0F012161306E40709
:1023C000F50798F0621B730B840B950B39F40A2602
:1023D00061F0232B242B252B21F408950A2609F4E0
:1023E000A140A6958FEF811D811D089557FD90583E
:1023F000440F551F59F05F3F71F04795880F97FBC9
:10240000991F61F09F3F79F0879508951216130682
:102410001406551FF2CF4695F1DF08C016161706B1
:102420001806991FF1CF86957105610508940895E6
:10243000E894BB2766277727CB0197F908950E9478
:10244000D21108F48FEF08950E9437120C94A8124D
:102450000E949A1238F00E94A11220F0952311F0E8
:102460000C9491120C94971211240C9419120E943E
:10247000F61170F3959FC1F3950F50E0551F629FC1
:10248000F001729FBB27F00DB11D639FAA27F00DCD
:10249000B11DAA1F649F6627B00DA11D661F829FF4
:1024A0002227B00DA11D621F739FB00DA11D621FD9
:1024B000839FA00D611D221F749F3327A00D611DF6
:1024C000231F849F600D211D822F762F6A2F1124D8
:1024D0009F5750409AF0F1F088234AF0EE0FFF1F0B
:1024E000BB1F661F771F881F91505040A9F79E3F62
:1024F000510580F00C9491120C9419125F3FE4F393
:10250000983ED4F3869577956795B795F795E795B7
:102510009F5FC1F7FE2B880F911D9695879597F9C0
:10252000089597F99F6780E870E060E008959FEF55
:1025300080EC089500240A9416161706180609065A
:10254000089500240A941216130614060506089529
:10255000092E0394000C11F4882352F0BB0F40F4B1
:10256000BF2B11F460FF04C06F5F7F4F8F4F9F4FF1
:062570000895F894FFCF6E
:10257600010003FF9FFF25FF0DFF99FF49FF41FF64
:102586001FFF01FF09FF11FFC1FF63FF85FF61FF09
:0425960071FF0100D0
:00000001FF
