:100000000C9472000C9486000C9486000C9486006C
:100010000C9486000C9486000C9486000C94860048
:100020000C9486000C9486000C9486000C94860038
:100030000C9486000C9486000C9486000C94860028
:100040000C9486000C9486000C9486000C94860018
:100050000C9486000C9486000C9486000C94860008
:100060000C9486000C9486000C9486000C948600F8
:100070000C9486000C9486000C9486000C948600E8
:100080000C9486000C9486000C9486000C948600D8
:100090000C9486000C9486000C9486000C948600C8
:1000A0000C9486000C9486000C9486000C948600B8
:1000B0000C9486000C9486000C9486000C948600A8
:1000C0000C9486000C9486000C9486000C94860098
:1000D0000C9486000C9486000C9486000C94860088
:1000E0000C94860011241FBECFEFD1E2DEBFCDBF3E
:1000F00000E00CBF22E0A0E0B2E001C01D92A330FE
:10010000B207E1F70E94B0010C94E4030C940000E4
:10011000CF93DF9300D00F920F92CDB7DEB78983D4
:100120007B836A835D834C838A819B81FC01808110
:10013000482F8981282F30E081E090E002C0880FAD
:10014000991F2A95E2F7842B282F8A819B81FC0135
:1001500020838C819D81FC018081882F90E0298102
:10016000222F30E0022E02C0959587950A94E2F77F
:1001700081709927009719F481E090E002C080E037
:1001800090E00F900F900F900F900F90DF91CF9114
:100190000895CF93DF93CDB7DEB7A7970FB6F89446
:1001A000DEBF0FBECDBF8F87798B688B5B8B4A8B91
:1001B00088899989DC018C91482F8F85282F30E020
:1001C00081E090E002C0880F991F2A95E2F7842B06
:1001D000282F88899989FC0120838A899B89DC01E1
:1001E0008C91882F90E02F85222F30E0022E02C0C4
:1001F000959587950A94E2F781709927009709F001
:10020000A0C080910002882309F09DC08091010266
:10021000909102020196909302028093010281E084
:100220008093000280E090E0A8E4B2E489839A839E
:10023000AB83BC8320E030E04AE755E469817A81F2
:100240008B819C810E944F03688F798F8A8F9B8F4F
:10025000888D998DAA8DBB8D8D839E83AF83B88742
:1002600020E030E040E85FE36D817E818F819885FA
:100270000E94C90288232CF481E090E09A87898744
:1002800055C020E03FEF4FE757E46D817E818F81BD
:1002900098850E944A038823D9F1D4F120E030E008
:1002A00040E251E469817A818B819C810E944F03F5
:1002B0006C8F7D8F8E8F9F8F8C8D9D8DAE8DBF8D22
:1002C0008C8B9D8BAE8BBF8B6C897D898E899F8932
:1002D0000E94CE0268A379A38AA39BA3A8A1B9A177
:1002E000BA87A98710C080E991E09C878B878B85AE
:1002F0009C850197F1F79C878B87000089859A85FB
:1003000001979A87898789859A85009761F71BC02D
:100310006D817E818F8198850E94CE026CA37DA322
:100320008EA39FA3ECA1FDA1FA87E98789859A8511
:100330009E878D878D859E850197F1F79E878D8796
:1003400002C0109200028091010290910202A796D1
:100350000FB6F894DEBF0FBECDBFDF91CF910895E9
:10036000CF93DF93CDB7DEB7A4970FB6F894DEBF77
:100370000FBECDBF84E290E0DC012C9184E290E0DE
:100380002E7FFC01208384E290E0DC012C9184E24A
:1003900090E0206FFC01208343E250E065E270E0D2
:1003A00080E00E94C9009A83898389819A81817043
:1003B0009927009751F085E290E0DC012C9185E2CD
:1003C00090E02061FC01208309C085E290E0DC011F
:1003D0002C9185E290E02F7EFC01208389819A8117
:1003E00082709927009751F085E290E0DC012C9112
:1003F00085E290E02062FC01208309C085E290E064
:10040000DC012C9185E290E02F7DFC012083898125
:100410009A8184709927009751F085E290E0DC0181
:100420002C9185E290E02064FC01208309C085E2E4
:1004300090E0DC012C9185E290E02F7BFC01208391
:1004400089819A8188709927009751F085E290E020
:10045000DC012C9185E290E02068FC01208309C03A
:1004600085E290E0DC012C9185E290E02F77FC01A1
:10047000208380E090E0A0E2B1E48B839C83AD8395
:10048000BE8320E030E04AE755E46B817C818D81BA
:100490009E810E944F036D8B7E8B8F8B988F8D89F1
:1004A0009E89AF89B88D8F839887A987BA8720E006
:1004B00030E040E85FE36F81788589859A850E9406
:1004C000C90288232CF481E090E09C878B8755C07B
:1004D00020E03FEF4FE757E46F81788589859A8563
:1004E0000E944A038823D9F1D4F120E030E040E2B1
:1004F00051E46B817C818D819E810E944F03698FC5
:100500007A8F8B8F9C8F898D9A8DAB8DBC8D898BCB
:100510009A8BAB8BBC8B69897A898B899C890E9469
:10052000CE026D8F7E8F8F8F98A3AD8DBE8DBC87D1
:10053000AB8710C080E991E09E878D878D859E8571
:100540000197F1F79E878D8700008B859C85019729
:100550009C878B878B859C85009761F719C06F817D
:10056000788589859A850E94CE0269A37AA38BA398
:100570009CA3E9A1FAA1FC87EB878B859C85988BCE
:100580008F878F8598890197F1F7988B8F87000067
:1005900003CF0E94FD0208F481E008950E94290320
:1005A00088F09F5798F0B92F9927B751B0F0E1F034
:1005B000660F771F881F991F1AF0BA95C9F714C0E4
:1005C000B13091F00E944303B1E008950C944303CD
:1005D000672F782F8827B85F39F0B93FCCF386951D
:1005E00077956795B395D9F73EF49095809570957A
:1005F00061957F4F8F4F9F4F0895990F0008550FBA
:10060000AA0BE0E8FEEF16161706E807F907C0F098
:1006100012161306E407F50798F0621B730B840BA0
:10062000950B39F40A2661F0232B242B252B21F47A
:1006300008950A2609F4A140A6958FEF811D811D1A
:10064000089557FD9058440F551F59F05F3F71F0C2
:100650004795880F97FB991F61F09F3F79F0879529
:100660000895121613061406551FF2CF4695F1DFB2
:1006700008C0161617061806991FF1CF8695710542
:10068000610508940895E894BB2766277727CB0176
:1006900097F908950E94FD0208F48FEF08950E94D3
:1006A00062030C94D3030E94C50338F00E94CC036C
:1006B00020F0952311F00C94BC030C94C203112478
:1006C0000C9444030E94210370F3959FC1F3950F8E
:1006D00050E0551F629FF001729FBB27F00DB11DC6
:1006E000639FAA27F00DB11DAA1F649F6627B00D56
:1006F000A11D661F829F2227B00DA11D621F739F3F
:10070000B00DA11D621F839FA00D611D221F749F4C
:100710003327A00D611D231F849F600D211D822F93
:10072000762F6A2F11249F5750409AF0F1F08823BA
:100730004AF0EE0FFF1FBB1F661F771F881F9150E7
:100740005040A9F79E3F510580F00C94BC030C94D7
:1007500044035F3FE4F3983ED4F38695779567951D
:10076000B795F795E7959F5FC1F7FE2B880F911D11
:100770009695879597F9089597F99F6780E870E0B7
:1007800060E008959FEF80EC089500240A94161607
:10079000170618060906089500240A94121613066F
:1007A000140605060895092E0394000C11F48823FD
:1007B00052F0BB0F40F4BF2B11F460FF04C06F5F19
:0C07C0007F4F8F4F9F4F0895F894FFCF9C
:00000001FF
