:100000000C9472000C9486000C9486000C9486006C
:100010000C9486000C9486000C9486000C94860048
:100020000C9486000C9486000C9486000C94860038
:100030000C9486000C9486000C9486000C94860028
:100040000C9486000C9486000C9486000C94860018
:100050000C9486000C940A030C9486000C944C03B8
:100060000C9486000C9486000C9486000C948600F8
:100070000C9486000C9486000C9486000C948600E8
:100080000C9486000C9486000C9486000C948600D8
:100090000C9486000C9486000C9486000C948600C8
:1000A0000C9486000C9486000C9486000C948600B8
:1000B0000C9486000C9486000C9486000C948600A8
:1000C0000C9486000C9486000C9486000C94860098
:1000D0000C9486000C9486000C9486000C94860088
:1000E0000C94860011241FBECFEFD1E2DEBFCDBF3E
:1000F00000E00CBF22E0A0E0B2E001C01D92A230FF
:10010000B207E1F70E9488000C94A9040C94000047
:10011000CF93DF93CDB7DEB7C656D1090FB6F894AB
:10012000DEBF0FBECDBF0E94CE020E94DB0280E088
:1001300090E0AAE7B4E48D8F9E8FAF8FB8A320E044
:1001400030E04AE755E46D8D7E8D8F8D98A10E9439
:1001500014046FAB78AF89AF9AAF8FA998ADA9ADF2
:10016000BAAD89A39AA3ABA3BCA320E030E040E8DA
:100170005FE369A17AA18BA19CA10E948E038823D1
:100180002CF481E090E09EA38DA35EC020E03FEFC1
:100190004FE757E469A17AA18BA19CA10E940F04AB
:1001A000882309F00CF43EC020E030E040E251E446
:1001B0006D8D7E8D8F8D98A10E9414046BAF7CAFE6
:1001C0008DAF9EAF8BAD9CADADADBEAD8BAB9CABE3
:1001D000ADABBEAB6BA97CA98DA99EA90E94930370
:1001E00023966CAF7DAF8EAF9FAF23972196AEADB8
:1001F000BFAD2197BEA3ADA310C080E991E098A741
:100200008FA38FA198A50197F1F798A78FA300005E
:100210008DA19EA101979EA38DA38DA19EA1009764
:1002200061F71DC069A17AA18BA19CA10E949303D3
:1002300027966CAF7DAF8EAF9FAF279725968EAD7B
:100240009FAD25979EA38DA38DA19EA19AA789A757
:1002500089A59AA50197F1F79AA789A700000E949E
:10026000E80280E090E0AAE7B4E48F87988BA98B3E
:10027000BA8B20E030E04AE755E46F8578898989B8
:100280009A890E9414042B966CAF7DAF8EAF9FAFFE
:100290002B972B968CAD9DADAEADBFAD2B978B8BB9
:1002A0009C8BAD8BBE8B20E030E040E85FE36B8938
:1002B0007C898D899E890E948E0388232CF481E09D
:1002C00090E0988F8F8B62C020E03FEF4FE757E4BC
:1002D0006B897C898D899E890E940F04882309F08F
:1002E0000CF442C020E030E040E251E46F857889B0
:1002F00089899A890E9414042F966CAF7DAF8EAFC6
:100300009FAF2F972F968CAD9DADAEADBFAD2F9704
:100310008FA798ABA9ABBAAB6FA578A989A99AA901
:100320000E94930363966CAF7DAF8EAF9FAF6397D0
:100330006196AEADBFAD6197B88FAF8B10C080E94D
:1003400091E09A8F898F898D9A8D0197F1F79A8F15
:10035000898F00008F89988D0197988F8F8B8F8957
:10036000988D009761F71DC06B897C898D899E8966
:100370000E94930367966CAF7DAF8EAF9FAF679778
:1003800065968EAD9FAD6597988F8F8B8F89988D71
:100390009C8F8B8F8B8D9C8D0197F1F79C8F8B8F12
:1003A00000000E94F50280E090E0AAE7B4E48983AF
:1003B0009A83AB83BC8320E030E04AE755E469814F
:1003C0007A818B819C810E9414046B966CAF7DAF07
:1003D0008EAF9FAF6B976B968CAD9DADAEADBFAD45
:1003E0006B978D839E83AF83B88720E030E040E831
:1003F0005FE36D817E818F8198850E948E038823C3
:100400002CF481E090E09A87898762C020E03FEF7A
:100410004FE757E46D817E818F8198850E940F049C
:10042000882309F00CF442C020E030E040E251E4BF
:1004300069817A818B819C810E9414046F966CAFD4
:100440007DAF8EAF9FAF6F976F968CAD9DADAEAD0C
:10045000BFAD6F978BA79CA7ADA7BEA76BA57CA5CB
:100460008DA59EA50E949303A3966CAF7DAF8EAF22
:100470009FAFA397A196AEADBFADA197BA87A9874D
:1004800010C080E991E09C878B878B859C850197C4
:10049000F1F79C878B87000089859A8501979A8759
:1004A000898789859A85009761F71DC06D817E8156
:1004B0008F8198850E949303A7966CAF7DAF8EAF16
:1004C0009FAFA797A5968EAD9FADA5979A87898771
:1004D00089859A859E878D878D859E850197F1F701
:1004E0009E878D870000000020CECF93DF93CDB78D
:1004F000DEB784E490E0FC01108285E490E023E024
:10050000FC01208387E490E02FE7FC0120838EE646
:1005100090E023E0FC0120830000DF91CF9108955B
:10052000CF93DF93CDB7DEB784E290E0FC0120816A
:1005300084E290E02064FC0120838AE091E0FC01E9
:1005400020818AE091E02862FC0120838BE091E029
:10055000FC0120818BE091E0277DFC01208381E27A
:1005600090E0FC01208181E290E02160FC01208389
:1005700080E390E0FC01208180E390E02260FC01B8
:10058000208381E390E0FC01208181E390E0226000
:10059000FC0120830000DF91CF910895CF93DF937A
:1005A000CDB7DEB70E9490020E94750278940000D9
:1005B000DF91CF910895CF93DF93CDB7DEB781E080
:1005C00080930002109201020000DF91CF91089504
:1005D000CF93DF93CDB7DEB781E080930102109215
:1005E00000020000DF91CF910895CF93DF93CDB744
:1005F000DEB710920002109201028BE091E0FC0144
:1006000020818BE091E0277DFC0120830000DF91B9
:10061000CF9108951F920F920FB60F9211240BB62F
:100620000F922F938F939F93EF93FF93CF93DF932B
:10063000CDB7DEB780910002882349F08BE091E0CE
:10064000FC0120818BE091E02F7DFC0120838091D3
:100650000102882349F08BE091E0FC0120818BE0CE
:1006600091E0277FFC01208384E290E0FC0120815F
:1006700084E290E02F7BFC0120830000DF91CF918A
:10068000FF91EF919F918F912F910F900BBE0F9043
:100690000FBE0F901F9018951F920F920FB60F92DA
:1006A00011240BB60F922F938F939F93EF93FF9389
:1006B000CF93DF93CDB7DEB780910002882349F056
:1006C0008BE091E0FC0120818BE091E02062FC0155
:1006D000208380910102882349F08BE091E0FC01A6
:1006E00020818BE091E02860FC01208384E290E08F
:1006F000FC01208184E290E02064FC012083000062
:10070000DF91CF91FF91EF919F918F912F910F905A
:100710000BBE0F900FBE0F901F9018950E94C20342
:1007200008F481E008950E94EE0388F09F5798F046
:10073000B92F9927B751B0F0E1F0660F771F881FE6
:10074000991F1AF0BA95C9F714C0B13091F00E9400
:100750000804B1E008950C940804672F782F8827C7
:10076000B85F39F0B93FCCF3869577956795B39527
:10077000D9F73EF490958095709561957F4F8F4F96
:100780009F4F0895990F0008550FAA0BE0E8FEEF60
:1007900016161706E807F907C0F012161306E40745
:1007A000F50798F0621B730B840B950B39F40A263E
:1007B00061F0232B242B252B21F408950A2609F41C
:1007C000A140A6958FEF811D811D089557FD90587A
:1007D000440F551F59F05F3F71F04795880F97FB05
:1007E000991F61F09F3F79F08795089512161306BF
:1007F0001406551FF2CF4695F1DF08C016161706EE
:100800001806991FF1CF8695710561050894089522
:10081000E894BB2766277727CB0197F908950E94B4
:10082000C20308F48FEF08950E9427040C949804E3
:100830000E948A0438F00E94910420F0952311F060
:100840000C9481040C94870411240C9409040E94D4
:10085000E60370F3959FC1F3950F50E0551F629F1B
:10086000F001729FBB27F00DB11D639FAA27F00D09
:10087000B11DAA1F649F6627B00DA11D661F829F30
:100880002227B00DA11D621F739FB00DA11D621F15
:10089000839FA00D611D221F749F3327A00D611D32
:1008A000231F849F600D211D822F762F6A2F112414
:1008B0009F5750409AF0F1F088234AF0EE0FFF1F47
:1008C000BB1F661F771F881F91505040A9F79E3F9E
:1008D000510580F00C9481040C9409045F3FE4F30B
:1008E000983ED4F3869577956795B795F795E795F4
:1008F0009F5FC1F7FE2B880F911D9695879597F9FD
:10090000089597F99F6780E870E060E008959FEF91
:1009100080EC089500240A94161617061806090696
:10092000089500240A941216130614060506089565
:10093000092E0394000C11F4882352F0BB0F40F4ED
:10094000BF2B11F460FF04C06F5F7F4F8F4F9F4F2D
:060950000895F894FFCFAA
:00000001FF
