:100000000C9472000C947E000C947E000C947E0084
:100010000C947E000C947E000C947E000C947E0068
:100020000C947E000C947E000C947E000C947E0058
:100030000C947E000C947E000C947E000C947E0048
:100040000C947E000C947E000C947E000C947E0038
:100050000C947E000C94E6000C947E000C94170126
:100060000C947E000C947E000C947E000C947E0018
:100070000C947E000C947E000C947E000C947E0008
:100080000C947E000C947E000C947E000C947E00F8
:100090000C947E000C947E000C947E000C947E00E8
:1000A0000C947E000C947E000C947E000C947E00D8
:1000B0000C947E000C947E000C947E000C947E00C8
:1000C0000C947E000C947E000C947E000C947E00B8
:1000D0000C947E000C947E000C947E000C947E00A8
:1000E0000C947E0011241FBECFEFD1E2DEBFCDBF46
:1000F00000E00CBF0E9448010C9450010C940000D9
:10010000CF93DF93CDB7DEB784E490E0FC0110829B
:1001100085E490E023E0FC01208387E490E02FE772
:10012000FC0120838EE690E023E0FC0120830000A8
:10013000DF91CF910895CF93DF93CDB7DEB784E2FF
:1001400090E0FC01208184E290E02064FC012083A7
:100150008AE091E0FC0120818AE091E02862FC01C4
:1001600020838BE091E0FC0120818BE091E0277DF2
:10017000FC01208381E290E0FC01208181E290E09B
:100180002160FC01208380E390E0FC01208180E37A
:1001900090E02260FC01208381E390E0FC0120815B
:1001A00081E390E02260FC0120830000DF91CF9189
:1001B0000895CF93DF93CDB7DEB70E949B000E94D6
:1001C000800078940000DF91CF9108951F920F92E4
:1001D0000FB60F9211240BB60F922F938F939F930C
:1001E000EF93FF93CF93DF93CDB7DEB78BE091E032
:1001F000FC0120818BE091E0277FFC01208384E2D9
:1002000090E0FC01208184E290E02F7BFC012083C0
:100210000000DF91CF91FF91EF919F918F912F91EE
:100220000F900BBE0F900FBE0F901F9018951F924E
:100230000F920FB60F9211240BB60F922F938F933C
:100240009F93EF93FF93CF93DF93CDB7DEB78BE010
:1002500091E0FC0120818BE091E02860FC0120838B
:1002600084E290E0FC01208184E290E02064FC01C3
:1002700020830000DF91CF91FF91EF919F918F91AB
:100280002F910F900BBE0F900FBE0F901F901895DF
:10029000CF93DF93CDB7DEB70E94D9000000FECF29
:0402A000F894FFCF00
:00000001FF
