:100000000C9472000C947E000C947E000C947E0084
:100010000C947E000C947E000C947E000C947E0068
:100020000C947E000C947E000C947E000C947E0058
:100030000C947E000C947E000C947E000C947E0048
:100040000C947E000C9495010C947E000C947E0020
:100050000C94BD010C947E000C947E000C947E00E8
:100060000C947E000C947E000C947E000C947E0018
:100070000C947E000C947E000C947E000C947E0008
:100080000C947E000C947E000C947E000C947E00F8
:100090000C947E000C947E000C947E000C947E00E8
:1000A0000C947E000C947E000C947E000C947E00D8
:1000B0000C947E000C947E000C947E000C947E00C8
:1000C0000C947E000C947E000C947E000C947E00B8
:1000D0000C947E000C947E000C947E000C947E00A8
:1000E0000C947E0011241FBECFEFD1E2DEBFCDBF46
:1000F00000E00CBF0E9480000C9460020C94000091
:10010000CF93DF93CDB7DEB70E9481010E94EE014D
:100110000000FCCFCF93DF93CDB7DEB784E290E051
:10012000FC01208184E290E0206AFC01208385E2CA
:1001300090E0FC01208185E290E02F77FC01208394
:100140000000DF91CF910895CF93DF93CDB7DEB755
:100150008FE290E0FC018081882F90E082709927E7
:10016000009751F485E290E0FC01208185E290E067
:100170002F77FC01208309C085E290E0FC012081FB
:1001800085E290E02068FC0120830000DF91CF91A0
:100190000895CF93DF93CDB7DEB784E290E0FC0102
:1001A000208184E290E0206CFC0120830000DF913C
:1001B000CF910895CF93DF93CDB7DEB78FE290E074
:1001C000FC018081882F90E084709927009751F47A
:1001D00085E290E0FC01208185E290E02064FC0152
:1001E000208309C085E290E0FC01208185E290E057
:1001F0002F7BFC0120830000DF91CF910895CF93E6
:10020000DF93CDB7DEB784E290E0FC01208184E289
:1002100090E02069FC01208385E290E0FC012081D0
:1002200085E290E02F7EFC0120830000DF91CF91DA
:100230000895CF93DF930F920F92CDB7DEB71A8256
:10024000198204C081E090E09A8389838FE290E074
:10025000FC018081882F90E084709927009791F3AA
:1002600089819A81009751F085E290E0FC0130810C
:1002700085E290E020E12327FC01208300000F901D
:100280000F90DF91CF910895CF93DF93CDB7DEB775
:1002900020E830E080E890E0F9012081FC01208333
:1002A00081E890E0FC01208181E890E02460FC017D
:1002B000208322E830E082E890E0F9012081FC010F
:1002C000208384E890E02FE63FEAFC01318320831D
:1002D00084E890E0FC012081318188E890E0265993
:1002E000374EFC01318320838FE690E0FC012081B2
:1002F0008FE690E02360FC0120830000DF91CF9126
:100300000895CF93DF93CDB7DEB70E94440184E216
:1003100090E0FC01208184E290E02068FC012083D1
:1003200078940000DF91CF9108951F920F920FB63D
:100330000F9211240BB60F922F938F939F93EF93ED
:10034000FF93CF93DF93CDB7DEB785E290E0FC015A
:10035000208185E290E02F77FC0120830000DF916F
:10036000CF91FF91EF919F918F912F910F900BBEA5
:100370000F900FBE0F901F9018951F920F920FB6FF
:100380000F9211240BB60F922F933F938F939F934D
:10039000EF93FF93CF93DF93CDB7DEB784E890E080
:1003A0002FE63FEAFC013183208385E290E0FC01E7
:1003B000208185E290E02068FC0120830000DF912D
:1003C000CF91FF91EF919F918F913F912F910F903E
:1003D0000BBE0F900FBE0F901F901895CF93DF9319
:1003E000CDB7DEB70E9481010000FECFCF93DF932F
:1003F000CDB7DEB720E830E080E890E0F901208159
:10040000FC01208381E890E0FC01208181E890E0FC
:100410002460FC01208322E830E082E890E0F901CA
:100420002081FC01208384E890E0FC01208131815F
:1004300084E890E022613A67FC0131832083000068
:10044000DF91CF910895CF93DF93CDB7DEB784E2EC
:1004500090E0FC01208184E290E02068FC01208390
:100460000000DF91CF910895CF93DF93CDB7DEB732
:1004700086E390E0FC018081882F90E081709927CD
:100480000097D1F084E890E022E13AE7FC01318363
:10049000208386E390E0FC01208186E390E02160E8
:1004A000FC01208385E290E0FC01308185E290E050
:1004B00020E82327FC0120830000DF91CF910895DD
:0404C000F894FFCFDE
:00000001FF
