:100000000C9472000C9493000C9493000C94930045
:100010000C9493000C9493000C9493000C94930014
:100020000C9493000C9493000C9493000C94930004
:100030000C9493000C9493000C9493000C949300F4
:100040000C9493000C9493000C9493000C949300E4
:100050000C9493000C94580B0C9493000C948F0CFC
:100060000C9493000C9493000C9493000C949300C4
:100070000C9493000C9493000C9493000C949300B4
:100080000C9493000C9493000C9493000C949300A4
:100090000C9493000C9493000C9493000C94930094
:1000A0000C9493000C9493000C9493000C94930084
:1000B0000C9493000C9493000C9493000C94930074
:1000C0000C9493000C9493000C9493000C94930064
:1000D0000C9493000C9493000C9493000C94930054
:1000E0000C94930011241FBECFEFD1E2DEBFCDBF31
:1000F00000E00CBF12E0A0E0B2E0E6E9F5E200E0CB
:100100000BBF02C007900D92A432B107D9F722E0CD
:10011000A4E2B2E001C01D92A033B207E1F70E9451
:1001200029060C94C9120C940000CF93DF93CDB72D
:10013000DEB781E091E0FC01208181E091E0206266
:10014000FC01208381E091E0FC01208181E091E0CD
:100150002061FC01208383E390E0FC01208183E3A4
:1001600090E02062FC01208382E091E0FC0120818C
:1001700082E091E02F7EFC01208384E390E0FC018B
:10018000208184E390E02F7DFC0120830000DF913B
:10019000CF910895CF93DF9300D00F920F92CDB7F8
:1001A000DEB78D831A82198239C08D81082E000C2A
:1001B000990B817099279C838B838D8185958D8385
:1001C0008B819C81009751F082E091E0FC012081BD
:1001D00082E091E02062FC01208309C082E091E08E
:1001E000FC01208182E091E02F7DFC01208382E0F0
:1001F00091E0FC01208182E091E02061FC012083FC
:1002000082E091E0FC01208182E091E02F7EFC0100
:10021000208389819A8101969A83898389819A8131
:100220008730910511F208F2000000000F900F9046
:100230000F900F900F90DF91CF910895CF93DF93A0
:100240000F920F92CDB7DEB79A83898380E190E059
:10025000098002C0880F991F0A94E2F70E94CA0021
:1002600000000F900F90DF91CF910895CF93DF930F
:1002700000D0CDB7DEB789837B836A8389810E94F2
:10028000CA008A819B810E941E0184E390E0FC01E8
:10029000208184E390E02062FC01208384E390E0ED
:1002A000FC01208184E390E02F7DFC01208300008D
:1002B0000F900F900F90DF91CF910895CF93DF9320
:1002C000CDB7DEB7A6970FB6F894DEBF0FBECDBF91
:1002D0009A8B898B1A821982CCC049895A899A01D2
:1002E000ADECBCEC0E9462119C01369527953695C9
:1002F000279536952795C901880F991F880F991F53
:10030000820F931F880F991F9A01281B390BC9016F
:10031000880F991F8E5F9D4FDC018D919C91282F36
:1003200089819A81BC01822F0E94360189899A892C
:100330009C01ADECBCEC0E94621196958795969558
:100340008795969587959A8B898B80E090E0A0E8B9
:10035000BFE38B839C83AD83BE8320E030E04AE71C
:1003600055E46B817C818D819E810E9434126F8B5C
:10037000788F898F9A8F8F89988DA98DBA8D8F8369
:100380009887A987BA8720E030E040E85FE36F8173
:10039000788589859A850E94711188232CF481E0E3
:1003A00090E09C878B8755C020E03FEF4FE757E4F4
:1003B0006F81788589859A850E942F128823D9F1CB
:1003C000D4F120E030E040E251E46B817C818D810A
:1003D0009E810E9434126B8F7C8F8D8F9E8F8B8DB0
:1003E0009C8DAD8DBE8D8B8B9C8BAD8BBE8B6B89AD
:1003F0007C898D899E890E9476116F8F78A389A34D
:100400009AA3AF8DB8A1BC87AB8710C080E991E0FB
:100410009E878D878D859E850197F1F79E878D87B5
:1004200000008B859C8501979C878B878B859C859D
:10043000009761F719C06F81788589859A850E9438
:1004400076116BA37CA38DA39EA3EBA1FCA1FC87DB
:10045000EB878B859C85988B8F878F8598890197F3
:10046000F1F7988B8F87000089819A8101969A8392
:10047000898389819A818330910509F00CF42DCF0D
:1004800000000000A6960FB6F894DEBF0FBECDBFE9
:10049000DF91CF910895CF93DF93CDB7DEB7C855E5
:1004A000D1090FB6F894DEBF0FBECDBF1A821982F4
:1004B0008FE290E0DC018C91882F90E08270992788
:1004C000009709F0C7C089819A81009709F00CF460
:1004D000C1C089819A8101979A838983B0C0809134
:1004E0000002909101029C01990F440B550B29AB1E
:1004F0003AAB4BAB5CAB69A97AA98BA99CA90E94CA
:10050000A71169A37AA38BA39CA389A19AA1ABA1EC
:10051000BCA18D839E83AF83B88720E030E04AE79B
:1005200055E46D817E818F8198850E9434126DAB78
:100530007EAB8FAB98AF2DA93EA94FA958AD2987A7
:100540003A874B875C8720E030E040E85FE36985CD
:100550007A858B859C850E94711188232CF481E01B
:1005600090E09E878D875CC020E03FEF4FE757E427
:1005700069857A858B859C850E942F12882309F0D6
:100580000CF43CC020E030E040E251E46D817E811B
:100590008F8198850E94341269AF7AAF8BAF9CAF80
:1005A00089AD9AADABADBCAD89A79AA7ABA7BCA7E7
:1005B00069A57AA58BA59CA50E94761121966CAFA2
:1005C0007DAF8EAF9FAF2197ADADBEADBE87AD877E
:1005D00010C080E991E0988B8F878F85988901976B
:1005E000F1F7988B8F8700008D859E8501979E87F8
:1005F0008D878D859E85009761F71DC069857A85F9
:100600008B859C850E94761125966CAF7DAF8EAF51
:100610009FAF25972396EEADFFAD2397FE87ED871D
:100620008D859E859A8B898B89899A890197F1F7A7
:100630009A8B898B000089819A810E945E018FE2EA
:1006400090E0DC018C91882F90E0827099270097D0
:1006500009F445CF8FE290E0FC018081882F90E083
:1006600084709927009709F0D6C089819A818336D2
:10067000910511F00CF0CFC089819A8101969A837F
:100680008983BEC080910002909101029C01990F64
:10069000440B550B29962CAF3DAF4EAF5FAF29975A
:1006A00029966CAD7DAD8EAD9FAD29970E94A711A7
:1006B0006DA37EA38FA398A78DA19EA1AFA1B8A57E
:1006C0008B8B9C8BAD8BBE8B20E030E04AE755E4F2
:1006D0006B897C898D899E890E9434122D966CAF1E
:1006E0007DAF8EAF9FAF2D972D962CAD3DAD4EAD0E
:1006F0005FAD2D972F8B388F498F5A8F20E030E0D8
:1007000040E85FE36F89788D898D9A8D0E94711121
:1007100088232CF481E090E09C8F8B8F62C020E0D6
:100720003FEF4FE757E46F89788D898D9A8D0E944E
:100730002F12882309F00CF442C020E030E040E2A0
:1007400051E46B897C898D899E890E94341261965F
:100750006CAF7DAF8EAF9FAF619761968CAD9DAD55
:10076000AEADBFAD61978DA79EA7AFA7B8AB6DA586
:100770007EA58FA598A90E94761165966CAF7DAF76
:100780008EAF9FAF65976396AEADBFAD6397BC8FDD
:10079000AB8F10C080E991E09E8F8D8F8D8D9E8DE7
:1007A0000197F1F79E8F8D8F00008B8D9C8D0197A7
:1007B0009C8F8B8F8B8D9C8D009761F71DC06F89EF
:1007C000788D898D9A8D0E94761169966CAF7DAF78
:1007D0008EAF9FAF69976796EEADFFAD6797FC8FC1
:1007E000EB8F8B8D9C8D98A38F8F8F8D98A1019708
:1007F000F1F798A38F8F000089819A810E945E0192
:100800008FE290E0DC018C91882F90E08470992732
:10081000009709F437CF89819A810E945E018FE2A7
:1008200090E0FC018081882F90E0887099270097E4
:1008300009F03ECE80E090E00E945E0189819A81BD
:100840009C838B831A8219828B819C81C85ADF4FCB
:100850000FB6F894DEBF0FBECDBFDF91CF910895E4
:10086000CF93DF9300D00F920F92CDB7DEB789837D
:100870007B836A835D834C838A819B81FC018081B9
:10088000482F8981282F30E081E090E002C0880F56
:10089000991F2A95E2F7842B282F8A819B81FC01DE
:1008A00020838C819D81FC018081882F90E02981AB
:1008B000222F30E0022E02C0959587950A94E2F728
:1008C00081709927009719F481E090E002C080E0E0
:1008D00090E00F900F900F900F900F90DF91CF91BD
:1008E0000895CF93DF93CDB7DEB7C954D1090FB6C2
:1008F000F894DEBF0FBECDBF8D8F7F8F6E8F59A353
:1009000048A38E8D9F8DDC018C91482F8D8D282FD3
:1009100030E081E090E002C0880F991F2A95E2F74D
:10092000842B282F8E8D9F8DFC01208388A199A177
:10093000DC018C91882F90E02D8D222F30E0022E4B
:1009400002C0959587950A94E2F7817099270097E0
:1009500009F065C19091270281E0992309F080E0B8
:10096000282F30E080912B0290912C028223932338
:10097000009709F49BC0809128029091290201966A
:10098000909329028093280281E08093270280E0DF
:1009900090E0A8E4B2E489839A83AB83BC8320E02F
:1009A00030E04AE755E469817A818B819C810E941D
:1009B00034126AA77BA78CA79DA78AA59BA5ACA587
:1009C000BDA58D839E83AF83B88720E030E040E8EB
:1009D0005FE36D817E818F8198850E9471118823EC
:1009E0002CF481E090E09A87898755C020E03FEFA2
:1009F0004FE757E46D817E818F8198850E942F1289
:100A00008823D9F1D4F120E030E040E251E469815B
:100A10007A818B819C810E9434126EA77FA788AB5C
:100A200099AB8EA59FA5A8A9B9A98AA39BA3ACA39E
:100A3000BDA36AA17BA18CA19DA10E9476116AAB86
:100A40007BAB8CAB9DABAAA9BBA9BA87A98710C009
:100A500080E991E09C878B878B859C850197F1F7D6
:100A60009C878B87000089859A8501979A8789875B
:100A700089859A85009761F719C06D817E818F8184
:100A800098850E9476116EAB7FAB88AF99AFEEA9C7
:100A9000FFA9FA87E98789859A859E878D878D8545
:100AA0009E850197F1F79E878D8700009091270220
:100AB00081E0992309F080E0282F30E080912A021C
:100AC00090912B0282239323009709F4AAC080916E
:100AD000280290912902019790932902809328027D
:100AE00081E08093270280E090E0A8E4B2E48F8761
:100AF000988BA98BBA8B20E030E04AE755E46F85EC
:100B0000788989899A890E9434126AAF7BAF8CAF49
:100B10009DAF8AAD9BADACADBDAD8B8B9C8BAD8BD2
:100B2000BE8B20E030E040E85FE36B897C898D89F3
:100B30009E890E94711188232CF481E090E0988FA7
:100B40008F8B62C020E03FEF4FE757E46B897C89D1
:100B50008D899E890E942F12882309F00CF442C0CF
:100B600020E030E040E251E46F85788989899A89F4
:100B70000E94341222966CAF7DAF8EAF9FAF22974A
:100B800022968CAD9DADAEADBFAD22978EA39FA337
:100B9000A8A7B9A76EA17FA188A599A50E947611E3
:100BA00026966CAF7DAF8EAF9FAF26972496AEADE5
:100BB000BFAD2497B88FAF8B10C080E991E09A8FBA
:100BC000898F898D9A8D0197F1F79A8F898F00000F
:100BD0008F89988D0197988F8F8B8F89988D00972B
:100BE00061F71FC06B897C898D899E890E9476116F
:100BF0002A966CAF7DAF8EAF9FAF2A972896EEAD49
:100C0000FFAD2897F88FEF8B8F89988D9C8F8B8FF6
:100C10008B8D9C8D0197F1F79C8F8B8F02C010926A
:100C200027028091280290912902992324F410929E
:100C30002902109228028091280290912902C75B14
:100C4000DF4F0FB6F894DEBF0FBECDBFDF91CF915F
:100C500008950F931F93CF93DF93CDB7DEB7C05C9A
:100C6000D1090FB6F894DEBF0FBECDBF0E9495002C
:100C70000E944B029C838B838B819C810E945E012E
:100C800080E090E0AAEFB3E48D8B9E8BAF8BB88FA2
:100C900020E030E04AE755E46D897E898F89988DA0
:100CA0000E943412AD966CAF7DAF8EAF9FAFAD9703
:100CB000AD962CAD3DAD4EAD5FADAD97298F3A8F62
:100CC0004B8F5C8F20E030E040E85FE3698D7A8DE8
:100CD0008B8D9C8D0E94711188232CF481E090E013
:100CE0009E8F8D8F66C020E03FEF4FE757E4698D00
:100CF0007A8D8B8D9C8D0E942F12882309F00CF425
:100D000046C020E030E040E251E46D897E898F8961
:100D1000988D0E943412E1966CAF7DAF8EAF9FAF7D
:100D2000E197E1968CAD9DADAEADBFADE1976D960F
:100D30008CAF9DAFAEAFBFAF6D976D966CAD7DAD17
:100D40008EAD9FAD6D970E947611E5966CAF7DAF2D
:100D50008EAF9FAFE597E396AEADBFADE397BE8F85
:100D6000AD8F10C080E991E098A38F8F8F8D98A1EF
:100D70000197F1F798A38F8F00008D8D9E8D0197BD
:100D80009E8F8D8F8D8D9E8D009761F71DC0698D13
:100D90007A8D8B8D9C8D0E947611E9966CAF7DAF1C
:100DA0008EAF9FAFE997E796EEADFFADE797FE8F69
:100DB000ED8F8D8D9E8D9AA389A389A19AA101970C
:100DC000F1F79AA389A300000E944B029E838D83B2
:100DD0008D819E810E945E0180E090E0AAEFB3E4E5
:100DE0008F839887A987BA8720E030E04AE755E4E7
:100DF0006F81788589859A850E943412ED966CAF53
:100E00007DAF8EAF9FAFED97ED962CAD3DAD4EAD66
:100E10005FADED972B873C874D875E8720E030E004
:100E200040E85FE36B857C858D859E850E9471110E
:100E300088232CF481E090E0988B8F8772C020E0AB
:100E40003FEF4FE757E46B857C858D859E850E943B
:100E50002F12882309F00CF44EC020E030E040E26D
:100E600051E46F81788589859A850E943412C35830
:100E7000DF4F688379838A839B83CD57D040C358E3
:100E8000DF4F88819981AA81BB81CD57D040699677
:100E90008CAF9DAFAEAFBFAF699769966CAD7DADBE
:100EA0008EAD9FAD69970E947611CF57DF4F688353
:100EB00079838A839B83C158D040CF57DF4FA88165
:100EC000B981C158D040B88BAF8710C080E991E09C
:100ED0009A8B898B89899A890197F1F79A8B898BEB
:100EE00000008F8598890197988B8F878F859889C7
:100EF000009761F721C06B857C858D859E850E945A
:100F00007611CB57DF4F688379838A839B83C558DB
:100F1000D040CB57DF4FE881F981C558D040F88BDE
:100F2000EF878F8598899C8B8B8B8B899C89019708
:100F3000F1F79C8B8B8B00000E94FA0C0E94280D0D
:100F40000E94180B0E9432119A838983DEC00E948E
:100F500032119A83898380912202909123029C010D
:100F6000990F440B550BC757DF4F288339834A83AA
:100F70005B83C958D040C757DF4F688179818A8128
:100F80009B81C958D0400E94A71161966CAF7DAF7C
:100F90008EAF9FAF619761968CAD9DADAEADBFAD8D
:100FA00061978BA39CA3ADA3BEA320E030E04AE7EA
:100FB00055E46BA17CA18DA19EA10E943412C35760
:100FC000DF4F688379838A839B83CD58D040C35792
:100FD000DF4F288139814A815B81CD58D0402FA3D2
:100FE00038A749A75AA720E030E040E85FE36FA1A7
:100FF00078A589A59AA50E94711188232CF481E017
:1010000090E09CA78BA772C020E03FEF4FE757E42A
:101010006FA178A589A59AA50E942F12882309F0AF
:101020000CF44EC020E030E040E251E46BA17CA122
:101030008DA19EA10E943412CF56DF4F6883798321
:101040008A839B83C159D040CF56DF4F88819981D5
:10105000AA81BB81C159D040A1968CAF9DAFAEAFE4
:10106000BFAFA197A1966CAD7DAD8EAD9FADA197A1
:101070000E947611CB56DF4F688379838A839B83E6
:10108000C559D040CB56DF4FA881B981C559D04052
:10109000BCA7ABA710C080E991E09EA78DA78DA546
:1010A0009EA50197F1F79EA78DA700008BA59CA593
:1010B00001979CA78BA78BA59CA5009761F721C0E2
:1010C0006FA178A589A59AA50E947611C756DF4F12
:1010D000688379838A839B83C959D040C756DF4F81
:1010E000E881F981C959D040FCA7EBA78BA59CA545
:1010F00098AB8FA78FA598A90197F1F798AB8FA709
:1011000000008B819C810E945E018B819C812981E2
:101110003A812817390709F01ACF0E943F0B0E9425
:101120007A0E0E94180B0E9432119A838983DEC0C6
:101130000E9432119A838983809122029091230226
:101140009C01990F440B550BC356DF4F28833983FD
:101150004A835B83CD59D040C356DF4F6881798184
:101160008A819B81CD59D0400E94A71165966CAFB2
:101170007DAF8EAF9FAF659765968CAD9DADAEADE3
:10118000BFAD659789AB9AABABABBCAB20E030E0B1
:101190004AE755E469A97AA98BA99CA90E9434124F
:1011A000CF55DF4F688379838A839B83C15AD040B0
:1011B000CF55DF4F288139814A815B81C15AD040A8
:1011C0002DAB3EAB4FAB58AF20E030E040E85FE3E3
:1011D0006DA97EA98FA998AD0E94711188232CF466
:1011E00081E090E09AAF89AF72C020E03FEF4FE717
:1011F00057E46DA97EA98FA998AD0E942F1288236C
:1012000009F00CF44EC020E030E040E251E469A95E
:101210007AA98BA99CA90E943412CB55DF4F688311
:1012200079838A839B83C55AD040CB55DF4F888111
:101230009981AA81BB81C55AD040A5968CAF9DAF3C
:10124000AEAFBFAFA597A5966CAD7DAD8EAD9FAD92
:10125000A5970E947611C755DF4F688379838A83EB
:101260009B83C95AD040C755DF4FA881B981C95A5D
:10127000D040BAAFA9AF10C080E991E09CAF8BAF6E
:101280008BAD9CAD0197F1F79CAF8BAF000089ADA2
:101290009AAD01979AAF89AF89AD9AAD009761F782
:1012A00021C06DA97EA98FA998AD0E947611C35562
:1012B000DF4F688379838A839B83CD5AD040C3559F
:1012C000DF4FE881F981CD5AD040FAAFE9AF89AD5F
:1012D0009AAD9EAF8DAF8DAD9EAD0197F1F79EAFEC
:1012E0008DAF00008D819E810E945E018D819E8167
:1012F00029813A812817390709F01ACF0E943F0B3C
:101300000E947A0E9E01215C3F4F80E090E0AAE7A8
:10131000B4E4F90180839183A283B3838E010D5BD2
:101320001F4FCE01CF9620E030E04AE755E4DC01C4
:101330006D917D918D919C910E943412CF54DF4F1D
:10134000688379838A839B83C15BD040CF54DF4F0E
:10135000288139814A815B81C15BD040D8012D93BE
:101360003D934D935C931397CE018D5B9F4F20E08F
:1013700030E040E85FE3FC0160817181828193810C
:101380000E947111882354F4CE01895B9F4F21E0A4
:1013900030E0DC0111963C932E93A0C0CE018D5B12
:1013A0009F4F20E03FEF4FE757E4FC0160817181E0
:1013B000828193810E942F12882309F00CF470C05F
:1013C000CE01CF9620E030E040E251E4DC016D91A7
:1013D0007D918D919C910E943412CB54DF4F688394
:1013E00079838A839B83C55BD040CB54DF4F2881B0
:1013F00039814A815B81C55BD040A9962CAF3DAF56
:101400004EAF5FAFA9978E01095B1F4FA9966CADD8
:101410007DAD8EAD9FADA9970E947611C754DF4F69
:10142000688379838A839B83C95BD040C754DF4F2D
:10143000E881F981C95BD040D8011196FC93EE9305
:1014400026C0CE01875B9F4F20E931E0DC012D9360
:101450003C93CE01875B9F4FFC0180819181019776
:10146000F1F79E01275B3F4FD9018D939C930000BC
:10147000CE01895B9F4F9E01295B3F4FF90120817F
:10148000318121503109DC0111963C932E93CE011C
:10149000895B9F4FFC0180819181009791F63AC052
:1014A0008E01095B1F4FCE018D5B9F4FDC016D915B
:1014B0007D918D919C910E947611C354DF4F68837A
:1014C00079838A839B83CD5BD040C354DF4F2881CF
:1014D0003981CD5BD040F80131832083CE01855B1B
:1014E0009F4F9E01295B3F4FD9012D913C91FC01FB
:1014F00031832083CE01855B9F4FDC018D919C91D0
:1015000011970197F1F79E01255B3F4FF9019183F8
:1015100080830000ADCBCF93DF93CDB7DEB784E4FB
:1015200090E0FC01108285E490E023E0FC01208340
:1015300087E490E02FE7FC0120838EE690E023E033
:10154000FC0120830000DF91CF910895CF93DF93BA
:10155000CDB7DEB785E490E0FC01208185E490E022
:10156000287FFC0120830000DF91CF910895CF9365
:10157000DF93CDB7DEB784E290E0FC01208184E206
:1015800090E02064FC0120838AE091E0FC0120814E
:101590008AE091E02862FC0120838BE091E0FC016D
:1015A00020818BE091E0277DFC01208381E290E0A7
:1015B000FC01208181E290E02160FC01208381E236
:1015C00090E0FC01208181E290E02260FC01208318
:1015D00080E390E0FC01208180E390E02D7FFC011E
:1015E000208381E390E0FC01208181E390E0226090
:1015F000FC0120830000DF91CF910895CF93DF930A
:10160000CDB7DEB70E94B70A0E948B0A789400001B
:10161000DF91CF910895CF93DF93CDB7DEB781E00F
:1016200080932A0210922B020000DF91CF9108953F
:10163000CF93DF93CDB7DEB781E080932B0210927A
:101640002A020000DF91CF910895CF93DF93CDB7A9
:10165000DEB781E080932D0210922C020000DF9112
:10166000CF910895CF93DF93CDB7DEB781E080931C
:101670002C0210922D020000DF91CF910895CF939C
:10168000DF93CDB7DEB710922A0210922B02109290
:101690002C0210922D028BE091E0FC0120818BE066
:1016A00091E0237CFC0120830000DF91CF9108951D
:1016B0001F920F920FB60F9211240BB60F922F9319
:1016C0003F934F935F936F937F938F939F93AF93CA
:1016D000BF93EF93FF93CF93DF93CDB7DEB7A2977E
:1016E000DEBFCDBF85E290E0DC012C9185E290E089
:1016F0002F7BFC01208380912A02882349F08BE014
:1017000091E0DC012C918BE091E02F7DFC012083A6
:1017100080912B02882349F08BE091E0DC012C9131
:101720008BE091E0277FFC01208380912C028823AD
:1017300049F08BE091E0DC012C918BE091E02F7E71
:10174000FC01208380912D02882349F08BE091E0F9
:10175000DC012C918BE091E02B7FFC0120830E9427
:10176000EB0C009709F4BFC0AAC080E090E0A0E8AD
:10177000BFE389839A83AB83BC8320E030E04AE7F0
:1017800055E469817A818B819C810E9434126B8B34
:101790007C8B8D8B9E8B8B899C89AD89BE898D833B
:1017A0009E83AF83B88720E030E040E85FE36D813F
:1017B0007E818F8198850E94711188232CF481E0AD
:1017C00090E09A87898755C020E03FEF4FE757E4C4
:1017D0006D817E818F8198850E942F128823D9F197
:1017E000D4F120E030E040E251E469817A818B81DC
:1017F0009C810E9434126F8B788F898F9A8F8F898A
:10180000988DA98DBA8D8F87988BA98BBA8B6F8590
:10181000788989899A890E9476116B8F7C8F8D8F48
:101820009E8FAB8DBC8DBA87A98710C080E991E0EF
:101830009C878B878B859C850197F1F79C878B878D
:10184000000089859A8501979A87898789859A8575
:10185000009761F719C06D817E818F8198850E9404
:1018600076116F8F78A389A39AA3EF8DF8A1FA87D9
:10187000E98789859A859E878D878D859E850197C5
:10188000F1F79E878D87000085E290E0DC012C91C6
:1018900085E290E02064FC0120838BE091E0DC0194
:1018A0002C918BE091E02870FC0120838BE091E08B
:1018B000DC012C918BE091E02470FC0120838FE20D
:1018C00090E0DC018C91882F90E08270992700973E
:1018D00009F04BCF85E290E0FC01208185E290E0A9
:1018E0002F7BDC012C930000A2960FB6F894DEBF8C
:1018F0000FBECDBFDF91CF91FF91EF91BF91AF911F
:101900009F918F917F916F915F914F913F912F9117
:101910000F900BBE0F900FBE0F901F9018951F9247
:101920000F920FB60F9211240BB60F922F938F9335
:101930009F93EF93FF93CF93DF93CDB7DEB785E20D
:1019400090E0FC01208185E290E02064FC0120838E
:1019500080912A02882349F08BE091E0FC012081EC
:101960008BE091E02062FC01208380912B02882390
:1019700049F08BE091E0FC0120818BE091E0286050
:10198000FC01208380912C02882349F08BE091E0B8
:10199000FC0120818BE091E02061FC01208380919B
:1019A0002D02882349F08BE091E0FC0120818BE03F
:1019B00091E02460FC0120830000DF91CF91FF9132
:1019C000EF919F918F912F910F900BBE0F900FBEB3
:1019D0000F901F901895CF93DF93CDB7DEB786E2B7
:1019E00090E0FC018081882F90E082709927DF9140
:1019F000CF910895CF93DF93CDB7DEB70E94FE0A53
:101A000087E290E0FC01208187E290E02160FC0108
:101A1000208388E290E0FC01208188E290E02E7F24
:101A2000FC01208384E290E0FC01208184E290E0CC
:101A3000287FFC01208385E290E0FC01208185E283
:101A400090E02760FC0120830000DF91CF91089592
:101A5000CF93DF93CDB7DEB7C454D1090FB6F89456
:101A6000DEBF0FBECDBF0E940B0B8FC080E090E0A9
:101A7000A0E8BFE389839A83AB83BC8320E030E096
:101A80004AE755E469817A818B819C810E943412F6
:101A90006DA37EA38FA398A78DA19EA1AFA1B8A58A
:101AA0008D839E83AF83B88720E030E040E85FE31A
:101AB0006D817E818F8198850E94711188232CF41D
:101AC00081E090E09A87898755C020E03FEF4FE79B
:101AD00057E46D817E818F8198850E942F12882323
:101AE000D9F1D4F120E030E040E251E469817A811B
:101AF0008B819C810E94341269A77AA78BA79CA72F
:101B000089A59AA5ABA5BCA58D8F9E8FAF8FB8A3D5
:101B10006D8D7E8D8F8D98A10E9476116DA77EA709
:101B20008FA798ABADA5BEA5BA87A98710C080E9DD
:101B300091E09C878B878B859C850197F1F79C872B
:101B40008B87000089859A8501979A87898789857F
:101B50009A85009761F719C06D817E818F81988584
:101B60000E94761169AB7AAB8BAB9CAB89A99AA921
:101B70009A87898789859A859E878D878D859E8599
:101B80000197F1F79E878D87000043E250E065E200
:101B900070E080E00E943004009709F467CF0E9453
:101BA0003F0B0E94180B80E090E0A0E2B1E48F8729
:101BB000988BA98BBA8B20E030E04AE755E46F851B
:101BC000788989899A890E9434126DAB7EAB8FAB7C
:101BD00098AF8DA99EA9AFA9B8AD8B8B9C8BAD8B0F
:101BE000BE8B20E030E040E85FE36B897C898D8923
:101BF0009E890E94711188232CF481E090E0988FD7
:101C00008F8B5CC020E03FEF4FE757E46B897C8906
:101C10008D899E890E942F12882309F00CF43CC004
:101C200020E030E040E251E46F85788989899A8923
:101C30000E94341269AF7AAF8BAF9CAF89AD9AAD79
:101C4000ABADBCAD89A39AA3ABA3BCA369A17AA198
:101C50008BA19CA10E94761121966CAF7DAF8EAFB7
:101C60009FAF2197ADADBEADB88FAF8B10C080E9EF
:101C700091E09A8F898F898D9A8D0197F1F79A8FCC
:101C8000898F00008F89988D0197988F8F8B8F890E
:101C9000988D009761F71DC06B897C898D899E891D
:101CA0000E94761125966CAF7DAF8EAF9FAF2597C2
:101CB00023968EAD9FAD2397988F8F8B8F89988DAC
:101CC0009C8F8B8F8B8D9C8D0197F1F79C8F8B8FC9
:101CD00000000E943F0B10922F0210922E02000073
:101CE000CC5BDF4F0FB6F894DEBF0FBECDBFDF91E8
:101CF000CF910895CF93DF93CDB7DEB7C454D10908
:101D00000FB6F894DEBF0FBECDBF0E9440110E94F7
:101D1000250B8FC080E090E0A0E8BFE389839A8321
:101D2000AB83BC8320E030E04AE755E469817A81E7
:101D30008B819C810E9434126DA37EA38FA398A7F0
:101D40008DA19EA1AFA1B8A58D839E83AF83B887D7
:101D500020E030E040E85FE36D817E818F819885EF
:101D60000E94711188232CF481E090E09A87898782
:101D700055C020E03FEF4FE757E46D817E818F81B2
:101D800098850E942F128823D9F1D4F120E030E009
:101D900040E251E469817A818B819C810E943412F6
:101DA00069A77AA78BA79CA789A59AA5ABA5BCA56F
:101DB0008D8F9E8FAF8FB8A36D8D7E8D8F8D98A1E7
:101DC0000E9476116DA77EA78FA798ABADA5BEA583
:101DD000BA87A98710C080E991E09C878B878B85A3
:101DE0009C850197F1F79C878B87000089859A85F0
:101DF00001979A87898789859A85009761F719C025
:101E00006D817E818F8198850E94761169AB7AAB56
:101E10008BAB9CAB89A99AA99A87898789859A8572
:101E20009E878D878D859E850197F1F79E878D878B
:101E3000000043E250E065E270E082E00E9430047E
:101E4000009709F467CF0E943F0B0E9440110E9447
:101E5000320B96C080E090E0A0E8BFE38F87988BBC
:101E6000A98BBA8B20E030E04AE755E46F8578898A
:101E700089899A890E9434126DAB7EAB8FAB98AF83
:101E80008DA99EA9AFA9B8AD8B8B9C8BAD8BBE8B5A
:101E900020E030E040E85FE36B897C898D899E8992
:101EA0000E94711188232CF481E090E0988F8F8B31
:101EB0005CC020E03FEF4FE757E46B897C898D8958
:101EC0009E890E942F12882309F00CF43CC020E068
:101ED00030E040E251E46F85788989899A890E94CF
:101EE000341269AF7AAF8BAF9CAF89AD9AADABAD11
:101EF000BCAD89A39AA3ABA3BCA369A17AA18BA112
:101F00009CA10E94761121966CAF7DAF8EAF9FAFE2
:101F10002197ADADBEADB88FAF8B10C080E991E019
:101F20009A8F898F898D9A8D0197F1F79A8F898F72
:101F300000008F89988D0197988F8F8B8F89988D4E
:101F4000009761F71DC06B897C898D899E890E94ED
:101F5000761125966CAF7DAF8EAF9FAF25972396F8
:101F60008EAD9FAD2397988F8F8B8F89988D9C8F87
:101F70008B8F8B8D9C8D0197F1F79C8F8B8F000041
:101F800043E250E065E270E083E00E943004009795
:101F900009F460CF0E943F0B0000CC5BDF4F0FB60F
:101FA000F894DEBF0FBECDBFDF91CF910895CF93E0
:101FB000DF93CDB7DEB7C454D1090FB6F894DEBFB6
:101FC0000FBECDBF0E94250B8FC080E090E0A0E83F
:101FD000BFE389839A83AB83BC8320E030E04AE788
:101FE00055E469817A818B819C810E9434126DA3B2
:101FF0007EA38FA398A78DA19EA1AFA1B8A58D8325
:102000009E83AF83B88720E030E040E85FE36D81D6
:102010007E818F8198850E94711188232CF481E044
:1020200090E09A87898755C020E03FEF4FE757E45B
:102030006D817E818F8198850E942F128823D9F12E
:10204000D4F120E030E040E251E469817A818B8173
:102050009C810E94341269A77AA78BA79CA789A5A7
:102060009AA5ABA5BCA58D8F9E8FAF8FB8A36D8DA4
:102070007E8D8F8D98A10E9476116DA77EA78FA768
:1020800098ABADA5BEA5BA87A98710C080E991E03D
:102090009C878B878B859C850197F1F79C878B8725
:1020A000000089859A8501979A87898789859A850D
:1020B000009761F719C06D817E818F8198850E949C
:1020C000761169AB7AAB8BAB9CAB89A99AA99A873D
:1020D000898789859A859E878D878D859E850197BD
:1020E000F1F79E878D87000043E250E065E270E0E3
:1020F00082E00E943004009709F467CF0E943F0BF2
:102100000E9451110E94320B96C080E090E0A0E83E
:10211000BFE38F87988BA98BBA8B20E030E04AE72A
:1021200055E46F85788989899A890E9434126DAB4C
:102130007EAB8FAB98AF8DA99EA9AFA9B8AD8B8BA5
:102140009C8BAD8BBE8B20E030E040E85FE36B8979
:102150007C898D899E890E94711188232CF481E0ED
:1021600090E0988F8F8B5CC020E03FEF4FE757E403
:102170006B897C898D899E890E942F12882309F0A2
:102180000CF43CC020E030E040E251E46F857889F7
:1021900089899A890E94341269AF7AAF8BAF9CAF5C
:1021A00089AD9AADABADBCAD89A39AA3ABA3BCA3DB
:1021B00069A17AA18BA19CA10E94761121966CAF96
:1021C0007DAF8EAF9FAF2197ADADBEADB88FAF8B5A
:1021D00010C080E991E09A8F898F898D9A8D01973F
:1021E000F1F79A8F898F00008F89988D0197988FCA
:1021F0008F8B8F89988D009761F71DC06B897C89C3
:102200008D899E890E94761125966CAF7DAF8EAF29
:102210009FAF259723968EAD9FAD2397988F8F8B79
:102220008F89988D9C8F8B8F8B8D9C8D0197F1F76B
:102230009C8F8B8F000043E250E065E270E083E00A
:102240000E943004009709F460CF0E943F0B000009
:10225000CC5BDF4F0FB6F894DEBF0FBECDBFDF9172
:10226000CF910895CF93DF93CDB7DEB743E250E02F
:1022700065E270E081E00E947104DF91CF910895E2
:10228000CF93DF93CDB7DEB788E290E0FC012081E9
:1022900088E290E02160FC0120830000DF91CF9173
:1022A0000895CF93DF93CDB7DEB788E290E0FC01CD
:1022B000208188E290E02E7FFC0120830000DF91E6
:1022C000CF910895A29FB001B39FC001A39F700D4D
:1022D000811D1124911DB29F700D811D1124911D2E
:1022E00008950E94E21108F481E008950E940E1200
:1022F00088F09F5798F0B92F9927B751B0F0E1F0C7
:10230000660F771F881F991F1AF0BA95C9F714C076
:10231000B13091F00E942812B1E008950C94281277
:10232000672F782F8827B85F39F0B93FCCF38695AF
:1023300077956795B395D9F73EF49095809570950C
:1023400061957F4F8F4F9F4F0895E89409C097FB89
:102350003EF490958095709561957F4F8F4F9F4F7C
:102360009923A9F0F92F96E9BB279395F6958795C0
:1023700077956795B795F111F8CFFAF4BB0F11F483
:1023800060FF1BC06F5F7F4F8F4F9F4F16C088232A
:1023900011F096E911C0772321F09EE8872F762F60
:1023A00005C0662371F096E8862F70E060E02AF0A1
:1023B0009A95660F771F881FDAF7880F969587958D
:1023C00097F90895990F0008550FAA0BE0E8FEEF62
:1023D00016161706E807F907C0F012161306E407E9
:1023E000F50798F0621B730B840B950B39F40A26E2
:1023F00061F0232B242B252B21F408950A2609F4C0
:10240000A140A6958FEF811D811D089557FD90581D
:10241000440F551F59F05F3F71F04795880F97FBA8
:10242000991F61F09F3F79F0879508951216130662
:102430001406551FF2CF4695F1DF08C01616170691
:102440001806991FF1CF86957105610508940895C6
:10245000E894BB2766277727CB0197F908950E9458
:10246000E21108F48FEF08950E9447120C94B812FD
:102470000E94AA1238F00E94B11220F0952311F0A8
:102480000C94A1120C94A71211240C9429120E94EE
:10249000061270F3959FC1F3950F50E0551F629F90
:1024A000F001729FBB27F00DB11D639FAA27F00DAD
:1024B000B11DAA1F649F6627B00DA11D661F829FD4
:1024C0002227B00DA11D621F739FB00DA11D621FB9
:1024D000839FA00D611D221F749F3327A00D611DD6
:1024E000231F849F600D211D822F762F6A2F1124B8
:1024F0009F5750409AF0F1F088234AF0EE0FFF1FEB
:10250000BB1F661F771F881F91505040A9F79E3F41
:10251000510580F00C94A1120C9429125F3FE4F352
:10252000983ED4F3869577956795B795F795E79597
:102530009F5FC1F7FE2B880F911D9695879597F9A0
:10254000089597F99F6780E870E060E008959FEF35
:1025500080EC089500240A9416161706180609063A
:10256000089500240A941216130614060506089509
:10257000092E0394000C11F4882352F0BB0F40F491
:10258000BF2B11F460FF04C06F5F7F4F8F4F9F4FD1
:062590000895F894FFCF4E
:10259600010003FF9FFF25FF0DFF99FF49FF41FF44
:1025A6001FFF01FF09FF11FFC1FF63FF85FF61FFE9
:0425B60071FF0100B0
:00000001FF
