:100000000C9472000C9493000C9493000C94930045
:100010000C9493000C9493000C9493000C94930014
:100020000C9493000C9493000C9493000C94930004
:100030000C9493000C9493000C9493000C949300F4
:100040000C9493000C9493000C9493000C949300E4
:100050000C9493000C949F0C0C9493000C94F20C51
:100060000C9493000C9493000C9493000C949300C4
:100070000C9493000C9493000C9493000C949300B4
:100080000C9493000C9493000C9493000C949300A4
:100090000C9493000C9493000C9493000C94930094
:1000A0000C9493000C9493000C9493000C94930084
:1000B0000C9493000C9493000C9493000C94930074
:1000C0000C9493000C9493000C9493000C94930064
:1000D0000C9493000C9493000C9493000C94930054
:1000E0000C94930011241FBECFEFD1E2DEBFCDBF31
:1000F00000E00CBF12E0A0E0B2E0EAE4F6E200E0CB
:100100000BBF02C007900D92A432B107D9F722E0CD
:10011000A4E2B2E001C01D92A033B207E1F70E9451
:100120002F060C9423130C940000CF93DF93CDB7CC
:10013000DEB781E091E0FC01208181E091E0206266
:10014000FC01208381E091E0FC01208181E091E0CD
:100150002061FC01208383E390E0FC01208183E3A4
:1001600090E02062FC01208382E091E0FC0120818C
:1001700082E091E02F7EFC01208384E390E0FC018B
:10018000208184E390E02F7DFC0120830000DF913B
:10019000CF910895CF93DF9300D00F920F92CDB7F8
:1001A000DEB78D831A82198239C08D81082E000C2A
:1001B000990B817099279C838B838D8185958D8385
:1001C0008B819C81009751F082E091E0FC012081BD
:1001D00082E091E02062FC01208309C082E091E08E
:1001E000FC01208182E091E02F7DFC01208382E0F0
:1001F00091E0FC01208182E091E02061FC012083FC
:1002000082E091E0FC01208182E091E02F7EFC0100
:10021000208389819A8101969A83898389819A8131
:100220008730910511F208F2000000000F900F9046
:100230000F900F900F90DF91CF910895CF93DF93A0
:100240000F920F92CDB7DEB79A83898380E190E059
:10025000098002C0880F991F0A94E2F70E94CA0021
:1002600000000F900F90DF91CF910895CF93DF930F
:1002700000D0CDB7DEB789837B836A8389810E94F2
:10028000CA008A819B810E941E0184E390E0FC01E8
:10029000208184E390E02062FC01208384E390E0ED
:1002A000FC01208184E390E02F7DFC01208300008D
:1002B0000F900F900F90DF91CF910895CF93DF9320
:1002C000CDB7DEB7A6970FB6F894DEBF0FBECDBF91
:1002D0009A8B898B1A821982CCC049895A899A01D2
:1002E000ADECBCEC0E94BC119C013695279536956F
:1002F000279536952795C901880F991F880F991F53
:10030000820F931F880F991F9A01281B390BC9016F
:10031000880F991F8E5F9D4FDC018D919C91282F36
:1003200089819A81BC01822F0E94360189899A892C
:100330009C01ADECBCEC0E94BC11969587959695FE
:100340008795969587959A8B898B80E090E0A0E8B9
:10035000BFE38B839C83AD83BE8320E030E04AE71C
:1003600055E46B817C818D819E810E948E126F8B02
:10037000788F898F9A8F8F89988DA98DBA8D8F8369
:100380009887A987BA8720E030E040E85FE36F8173
:10039000788589859A850E94CB1188232CF481E089
:1003A00090E09C878B8755C020E03FEF4FE757E4F4
:1003B0006F81788589859A850E9489128823D9F171
:1003C000D4F120E030E040E251E46B817C818D810A
:1003D0009E810E948E126B8F7C8F8D8F9E8F8B8D56
:1003E0009C8DAD8DBE8D8B8B9C8BAD8BBE8B6B89AD
:1003F0007C898D899E890E94D0116F8F78A389A3F3
:100400009AA3AF8DB8A1BC87AB8710C080E991E0FB
:100410009E878D878D859E850197F1F79E878D87B5
:1004200000008B859C8501979C878B878B859C859D
:10043000009761F719C06F81788589859A850E9438
:10044000D0116BA37CA38DA39EA3EBA1FCA1FC8781
:10045000EB878B859C85988B8F878F8598890197F3
:10046000F1F7988B8F87000089819A8101969A8392
:10047000898389819A818330910509F00CF42DCF0D
:1004800000000000A6960FB6F894DEBF0FBECDBFE9
:10049000DF91CF910895CF93DF93CDB7DEB7C855E5
:1004A000D1090FB6F894DEBF0FBECDBF1A821982F4
:1004B000CEC18FE290E0DC018C91882F90E08270B9
:1004C0009927009709F0C7C089819A81009709F0A0
:1004D0000CF4C1C089819A8101979A838983B0C045
:1004E00080910002909101029C01990F440B550BE1
:1004F00029AB3AAB4BAB5CAB69A97AA98BA99CA998
:100500000E94011269A37AA38BA39CA389A19AA13B
:10051000ABA1BCA18D839E83AF83B88720E030E080
:100520004AE755E46D817E818F8198850E948E1205
:100530006DAB7EAB8FAB98AF2DA93EA94FA958AD3F
:1005400029873A874B875C8720E030E040E85FE30B
:1005500069857A858B859C850E94CB1188232CF434
:1005600081E090E09E878D875CC020E03FEF4FE701
:1005700057E469857A858B859C850E94891288233A
:1005800009F00CF43CC020E030E040E251E46D8121
:100590007E818F8198850E948E1269AF7AAF8BAF72
:1005A0009CAF89AD9AADABADBCAD89A79AA7ABA7FF
:1005B000BCA769A57AA58BA59CA50E94D011219600
:1005C0006CAF7DAF8EAF9FAF2197ADADBEADBE8797
:1005D000AD8710C080E991E0988B8F878F859889CF
:1005E0000197F1F7988B8F8700008D859E85019785
:1005F0009E878D878D859E85009761F71DC06985D3
:100600007A858B859C850E94D01125966CAF7DAF35
:100610008EAF9FAF25972396EEADFFAD2397FE8754
:10062000ED878D859E859A8B898B89899A8901971B
:10063000F1F79A8B898B000089819A810E945E0173
:100640008FE290E0DC018C91882F90E082709927F6
:10065000009709F445CF8FE290E0FC018081882F5C
:1006600090E084709927009709F0D6C089819A811B
:100670008336910511F00CF0CFC089819A810196E3
:100680009A838983BEC080910002909101029C01EF
:10069000990F440B550B29962CAF3DAF4EAF5FAF72
:1006A000299729966CAD7DAD8EAD9FAD29970E949F
:1006B00001126DA37EA38FA398A78DA19EA1AFA1C8
:1006C000B8A58B8B9C8BAD8BBE8B20E030E04AE7CE
:1006D00055E46B897C898D899E890E948E122D96A6
:1006E0006CAF7DAF8EAF9FAF2D972D962CAD3DADEE
:1006F0004EAD5FAD2D972F8B388F498F5A8F20E0ED
:1007000030E040E85FE36F89788D898D9A8D0E9493
:10071000CB1188232CF481E090E09C8F8B8F62C0FA
:1007200020E03FEF4FE757E46F89788D898D9A8DF0
:100730000E948912882309F00CF442C020E030E0C6
:1007400040E251E46B897C898D899E890E948E12DA
:1007500061966CAF7DAF8EAF9FAF619761968CADA8
:100760009DADAEADBFAD61978DA79EA7AFA7B8AB4E
:100770006DA57EA58FA598A90E94D01165966CAF36
:100780007DAF8EAF9FAF65976396AEADBFAD6397FC
:10079000BC8FAB8F10C080E991E09E8F8D8F8D8DC7
:1007A0009E8D0197F1F79E8F8D8F00008B8D9C8D14
:1007B00001979C8F8B8F8B8D9C8D009761F71DC04F
:1007C0006F89788D898D9A8D0E94D01169966CAF52
:1007D0007DAF8EAF9FAF69976796EEADFFAD679720
:1007E000FC8FEB8F8B8D9C8D98A38F8F8F8D98A115
:1007F0000197F1F798A38F8F000089819A810E9459
:100800005E018FE290E0DC018C91882F90E0847093
:100810009927009709F437CF89819A810E945E0158
:100820008FE290E0FC018081882F90E0887099270A
:10083000009769F480E090E00E945E0189819A81CE
:100840009C838B831A8219828B819C8105C00E94B4
:10085000450D009709F42DCEC85ADF4F0FB6F89416
:10086000DEBF0FBECDBFDF91CF910895CF93DF9351
:1008700000D00F920F92CDB7DEB789837B836A8356
:100880005D834C838A819B81FC018081482F898113
:10089000282F30E081E090E002C0880F991F2A9550
:1008A000E2F7842B282F8A819B81FC0120838C8195
:1008B0009D81FC018081882F90E02981222F30E0EA
:1008C000022E02C0959587950A94E2F781709927C8
:1008D000009719F481E090E002C080E090E00F9072
:1008E0000F900F900F900F90DF91CF910895CF93BD
:1008F000DF93CDB7DEB7C954D1090FB6F894DEBF88
:100900000FBECDBF8D8F7F8F6E8F59A348A38E8D65
:100910009F8DDC018C91482F8D8D282F30E081E058
:1009200090E002C0880F991F2A95E2F7842B282FA8
:100930008E8D9F8DFC01208388A199A1DC018C9173
:10094000882F90E02D8D222F30E0022E02C0959549
:1009500087950A94E2F781709927009709F065C19D
:100960009091270281E0992309F080E0282F30E060
:1009700080912B0290912C0282239323009709F4FB
:100980009BC08091280290912902019690932902A0
:100990008093280281E08093270280E090E0A8E421
:1009A000B2E489839A83AB83BC8320E030E04AE7DA
:1009B00055E469817A818B819C810E948E126AA79D
:1009C0007BA78CA79DA78AA59BA5ACA5BDA58D835C
:1009D0009E83AF83B88720E030E040E85FE36D811D
:1009E0007E818F8198850E94CB1188232CF481E031
:1009F00090E09A87898755C020E03FEF4FE757E4A2
:100A00006D817E818F8198850E9489128823D9F11A
:100A1000D4F120E030E040E251E469817A818B81B9
:100A20009C810E948E126EA77FA788AB99AB8EA582
:100A30009FA5A8A9B9A98AA39BA3ACA3BDA36AA19A
:100A40007BA18CA19DA10E94D0116AAB7BAB8CAB2A
:100A50009DABAAA9BBA9BA87A98710C080E991E07C
:100A60009C878B878B859C850197F1F79C878B876B
:100A7000000089859A8501979A87898789859A8553
:100A8000009761F719C06D817E818F8198850E94E2
:100A9000D0116EAB7FAB88AF99AFEEA9FFA9FA87F3
:100AA000E98789859A859E878D878D859E850197A3
:100AB000F1F79E878D8700009091270281E09923AE
:100AC00009F080E0282F30E080912A0290912B02DB
:100AD00082239323009709F4AAC080912802909161
:100AE00029020197909329028093280281E0809344
:100AF000270280E090E0A8E4B2E48F87988BA98B6E
:100B0000BA8B20E030E04AE755E46F85788989891F
:100B10009A890E948E126AAF7BAF8CAF9DAF8AAD6F
:100B20009BADACADBDAD8B8B9C8BAD8BBE8B20E0FC
:100B300030E040E85FE36B897C898D899E890E9463
:100B4000CB1188232CF481E090E0988F8F8B62C0CA
:100B500020E03FEF4FE757E46B897C898D899E89C0
:100B60000E948912882309F00CF442C020E030E092
:100B700040E251E46F85788989899A890E948E12B2
:100B800022966CAF7DAF8EAF9FAF229722968CAD31
:100B90009DADAEADBFAD22978EA39FA3A8A7B9A769
:100BA0006EA17FA188A599A50E94D01126966CAF51
:100BB0007DAF8EAF9FAF26972496AEADBFAD249785
:100BC000B88FAF8B10C080E991E09A8F898F898DA3
:100BD0009A8D0197F1F79A8F898F00008F89988DF0
:100BE0000197988F8F8B8F89988D009761F71FC021
:100BF0006B897C898D899E890E94D0112A966CAF61
:100C00007DAF8EAF9FAF2A972896EEADFFAD2897A8
:100C1000F88FEF8B8F89988D9C8F8B8F8B8D9C8D10
:100C20000197F1F79C8F8B8F02C010922702809161
:100C3000280290912902992324F4109229021092FB
:100C400028028091280290912902C75BDF4F0FB6DE
:100C5000F894DEBF0FBECDBFDF91CF9108950F9303
:100C60001F93CF93DF93CDB7DEB7C25ED1090FB626
:100C7000F894DEBF0FBECDBF0E949500B0C080E0EB
:100C800090E0A0E8BFE38F839887A987BA8720E028
:100C900030E04AE755E46F81788589859A850E941E
:100CA0008E12EF966CAF7DAF8EAF9FAFEF97EF9642
:100CB0002CAD3DAD4EAD5FADEF972B873C874D879B
:100CC0005E8720E030E040E85FE36B857C858D85C2
:100CD0009E850E94CB1188232CF481E090E0988BB4
:100CE0008F8772C020E03FEF4FE757E46B857C852C
:100CF0008D859E850E948912882309F00CF44EC0D0
:100D000020E030E040E251E46F81788589859A8562
:100D10000E948E12C158DF4F688379838A839B8338
:100D2000CF57D040C158DF4F88819981AA81BB81BC
:100D3000CF57D040A7968CAF9DAFAEAFBFAFA797B0
:100D4000A7966CAD7DAD8EAD9FADA7970E94D011DB
:100D5000CD57DF4F688379838A839B83C358D04004
:100D6000CD57DF4FA881B981C358D040B88BAF872A
:100D700010C080E991E09A8B898B89899A890197C3
:100D8000F1F79A8B898B00008F8598890197988B52
:100D90008F878F859889009761F721C06B857C8547
:100DA0008D859E850E94D011C957DF4F6883798356
:100DB0008A839B83C758D040C957DF4FE881F981A8
:100DC000C758D040F88BEF878F8598899C8B8B8B89
:100DD0008B899C890197F1F79C8B8B8B00000E947B
:100DE000450D009709F04BCFCEC40E944B029C8367
:100DF0008B838B819C810E945E0180E090E0AAEF52
:100E0000B3E48BA39CA3ADA3BEA320E030E04AE7EC
:100E100055E46BA17CA18DA19EA10E948E12C557A5
:100E2000DF4F688379838A839B83CB58D040C55733
:100E3000DF4F288139814A815B81CB58D0402FA375
:100E400038A749A75AA720E030E040E85FE36FA148
:100E500078A589A59AA50E94CB1188232CF481E05E
:100E600090E09CA78BA772C020E03FEF4FE757E4CC
:100E70006FA178A589A59AA50E948912882309F0F7
:100E80000CF44EC020E030E040E251E46BA17CA1C4
:100E90008DA19EA10E948E12C157DF4F6883798376
:100EA0008A839B83CF58D040C157DF4F8881998177
:100EB000AA81BB81CF58D040AF968CAF9DAFAEAF6B
:100EC000BFAFAF97AF966CAD7DAD8EAD9FADAF9719
:100ED0000E94D011CD56DF4F688379838A839B832C
:100EE000C359D040CD56DF4FA881B981C359D040F6
:100EF000BCA7ABA710C080E991E09EA78DA78DA5E8
:100F00009EA50197F1F79EA78DA700008BA59CA534
:100F100001979CA78BA78BA59CA5009761F721C083
:100F20006FA178A589A59AA50E94D011C956DF4F57
:100F3000688379838A839B83C759D040C956DF4F22
:100F4000E881F981C759D040FCA7EBA78BA59CA5E8
:100F500098AB8FA78FA598A90197F1F798AB8FA7AA
:100F600000000E944B029E838D838D819E810E9492
:100F70005E0180E090E0AAEFB3E48D8B9E8BAF8B97
:100F8000B88F20E030E04AE755E46D897E898F898B
:100F9000988D0E948E12C556DF4F688379838A83AD
:100FA0009B83CB59D040C556DF4F288139814A8178
:100FB0005B81CB59D040298F3A8F4B8F5C8F20E0DB
:100FC00030E040E85FE3698D7A8D8B8D9C8D0E94C7
:100FD000CB1188232CF481E090E09E8F8D8F72C01E
:100FE00020E03FEF4FE757E4698D7A8D8B8D9C8D24
:100FF0000E948912882309F00CF44EC020E030E0F2
:1010000040E251E46D897E898F89988D0E948E120D
:10101000C156DF4F688379838A839B83CF59D04041
:10102000C156DF4F88819981AA81BB81CF59D040B9
:10103000AB968CAF9DAFAEAFBFAFAB97AB966CAD81
:101040007DAD8EAD9FADAB970E94D011CD55DF4FDA
:10105000688379838A839B83C35AD040CD55DF4F01
:10106000A881B981C35AD040BE8FAD8F10C080E92E
:1010700091E098A38F8F8F8D98A10197F1F798A396
:101080008F8F00008D8D9E8D01979E8F8D8F8D8D02
:101090009E8D009761F721C0698D7A8D8B8D9C8D17
:1010A0000E94D011C955DF4F688379838A839B835F
:1010B000C75AD040C955DF4FE881F981C75AD0409F
:1010C000FE8FED8F8D8D9E8D9AA389A389A19AA104
:1010D0000197F1F79AA389A300000E94540D0E9482
:1010E000820D0E945F0C0E948C119A838983E2C05A
:1010F0000E948C119A83898380912202909123020D
:101100009C01990F440B550BC555DF4F288339833C
:101110004A835B83CB5AD040C555DF4F68817981C4
:101120008A819B81CB5AD0400E9401126F966CAF8E
:101130007DAF8EAF9FAF6F976F968CAD9DADAEAD0F
:10114000BFAD6F9789AB9AABABABBCAB20E030E0E7
:101150004AE755E469A97AA98BA99CA90E948E1235
:10116000C155DF4F688379838A839B83CF5AD040F0
:10117000C155DF4F288139814A815B81CF5AD040E8
:101180002DAB3EAB4FAB58AF20E030E040E85FE323
:101190006DA97EA98FA998AD0E94CB1188232CF44C
:1011A00081E090E09AAF89AF72C020E03FEF4FE757
:1011B00057E46DA97EA98FA998AD0E948912882352
:1011C00009F00CF44EC020E030E040E251E469A99F
:1011D0007AA98BA99CA90E948E12CD54DF4F6883F7
:1011E00079838A839B83C35BD040CD54DF4F888152
:1011F0009981AA81BB81C35BD040E3968CAF9DAF40
:10120000AEAFBFAFE397E3966CAD7DAD8EAD9FAD56
:10121000E3970E94D011C954DF4F688379838A8392
:101220009B83C75BD040C954DF4FA881B981C75B9E
:10123000D040BAAFA9AF10C080E991E09CAF8BAFAE
:101240008BAD9CAD0197F1F79CAF8BAF000089ADE2
:101250009AAD01979AAF89AF89AD9AAD009761F7C2
:1012600021C06DA97EA98FA998AD0E94D011C55447
:10127000DF4F688379838A839B83CB5BD040C554DF
:10128000DF4FE881F981CB5BD040FAAFE9AF89ADA0
:101290009AAD9EAF8DAF8DAD9EAD0197F1F79EAF2C
:1012A0008DAF00008B819C810E945E010E94450DE4
:1012B000009769F48B819C8129813A81281739072D
:1012C00039F00E94450D009709F012CF01C00000CF
:1012D0000E94860C0E94D40E0E945F0C0E948C110A
:1012E0009A83898335C10E948C119A838983809166
:1012F0002202909123029C01990F440B550BC1547B
:10130000DF4F288339834A835B83CF5BD040C1544E
:10131000DF4F688179818A819B81CF5BD0400E94B9
:101320000112A3966CAF7DAF8EAF9FAFA397CE0196
:10133000CF96A3962CAD3DAD4EAD5FADA397DC012E
:101340002D933D934D935C9313978E010D5B1F4F2F
:10135000CE01CF9620E030E04AE755E4FC01608101
:101360007181828193810E948E12CD53DF4F6883F9
:1013700079838A839B83C35CD040CD53DF4F288120
:1013800039814A815B81C35CD040D8012D933D9364
:101390004D935C931397CE018D5B9F4F20E030E01F
:1013A00040E85FE3FC0160817181828193810E944A
:1013B000CB11882354F4CE01895B9F4F21E030E0AC
:1013C000DC0111963C932E93A0C0CE018D5B9F4F04
:1013D00020E03FEF4FE757E4FC016081718182819B
:1013E00093810E948912882309F00CF470C0CE0109
:1013F000CF9620E030E040E251E4DC016D917D9138
:101400008D919C910E948E12C953DF4F688379831E
:101410008A839B83C75CD040C953DF4F28813981C1
:101420004A815B81C75CD040E7962CAF3DAF4EAFA1
:101430005FAFE7978E01095B1F4FE7966CAD7DADFF
:101440008EAD9FADE7970E94D011C553DF4F6883E3
:1014500079838A839B83CB5CD040C553DF4FE8817F
:10146000F981CB5CD040D8011196FC93EE9326C055
:10147000CE01875B9F4F20E931E0DC012D933C9347
:10148000CE01875B9F4FFC01808191810197F1F72D
:101490009E01275B3F4FD9018D939C930000CE01A5
:1014A000895B9F4F9E01295B3F4FF901208131816C
:1014B00021503109DC0111963C932E93CE01895BBA
:1014C0009F4FFC0180819181009791F639C08E0178
:1014D000095B1F4FCE018D5B9F4FDC016D917D91AC
:1014E0008D919C910E94D011C153DF4F6883798305
:1014F0008A839B83CF5CD040C153DF4F28813981E1
:10150000CF5CD040F80131832083CE01855B9F4FB3
:101510009E01295B3F4FD9012D913C91FC01318304
:101520002083CE01855B9F4FDC018D919C910197BB
:10153000F1F79E01255B3F4FF90191838083000005
:101540008D819E810E945E010E94450D009769F485
:101550008D819E8129813A812817390739F00E94AF
:10156000450D009709F0BFCE01C000000E94860C17
:101570000E94D40E9E01235B3F4F80E090E0AAE7DB
:10158000B4E4F90180839183A283B3838E010F5A5F
:101590001F4FCE01835B9F4F20E030E04AE755E4C8
:1015A000DC016D917D918D919C910E948E12CD52A6
:1015B000DF4F688379838A839B83C35DD040CD529C
:1015C000DF4F288139814A815B81C35DD040D801DA
:1015D0002D933D934D935C931397CE018F5A9F4F5C
:1015E00020E030E040E85FE3FC01608171818281AE
:1015F00093810E94CB11882354F4CE018B5A9F4FC4
:1016000021E030E0DC0111963C932E93A1C0CE0185
:101610008F5A9F4F20E03FEF4FE757E4FC01608176
:101620007181828193810E948912882309F00CF4D0
:1016300071C0CE01835B9F4F20E030E040E251E477
:10164000DC016D917D918D919C910E948E12C95209
:10165000DF4F688379838A839B83C75DD040C952FB
:10166000DF4F288139814A815B81C75DD040EB968D
:101670002CAF3DAF4EAF5FAFEB978E010B5A1F4FB4
:10168000EB966CAD7DAD8EAD9FADEB970E94D0110A
:10169000C552DF4F688379838A839B83CB5DD040BB
:1016A000C552DF4FE881F981CB5DD040D80111965A
:1016B000FC93EE9326C0CE01895A9F4F20E931E07A
:1016C000DC012D933C93CE01895A9F4FFC01808110
:1016D00091810197F1F79E01295A3F4FD9018D93CE
:1016E0009C930000CE018B5A9F4F9E012B5A3F4F77
:1016F000F9012081318121503109DC0111963C939F
:101700002E93CE018B5A9F4FFC01808191810097CF
:1017100091F639C08E010B5A1F4FCE018F5A9F4F41
:10172000DC016D917D918D919C910E94D011C152EF
:10173000DF4F688379838A839B83CF5DD040C1521A
:10174000DF4F28813981CF5DD040F801318320837C
:10175000CE01875A9F4F9E012B5A3F4FD9012D91A1
:101760003C91FC0131832083CE01875A9F4FDC01DD
:101770008D919C910197F1F79E01275A3F4FF901F6
:101780009183808300000E94450D009709F42DCBC2
:1017900026CBCF93DF93CDB7DEB784E490E0FC0196
:1017A000108285E490E023E0FC01208387E490E050
:1017B0002FE7FC0120838EE690E023E0FC012083EC
:1017C0000000DF91CF910895CF93DF93CDB7DEB7BF
:1017D00085E490E0FC01208185E490E0287FFC0115
:1017E00020830000DF91CF910895CF93DF93CDB791
:1017F000DEB784E290E0FC01208184E290E0206486
:10180000FC01208385E290E0FC01208185E290E0EC
:101810002F7BFC0120838AE091E0FC0120818AE09B
:1018200091E02862FC0120838BE091E0FC012081A3
:101830008BE091E0277DFC01208381E290E0FC01B8
:10184000208181E290E02160FC01208381E290E030
:10185000FC01208181E290E02260FC01208380E392
:1018600090E0FC01208180E390E02D7FFC0120834B
:1018700081E390E0FC01208181E390E02260FC01A3
:1018800020830000DF91CF910895CF93DF93CDB7F0
:10189000DEB70E94F50B0E94C90B78940000DF911F
:1018A000CF910895CF93DF93CDB7DEB781E08093DA
:1018B0002A0210922B020000DF91CF910895CF935E
:1018C000DF93CDB7DEB781E080932B0210922A021E
:1018D0000000DF91CF910895CF93DF93CDB7DEB7AE
:1018E00081E080932D0210922C020000DF91CF91B5
:1018F0000895CF93DF93CDB7DEB781E080932C02BC
:1019000010922D020000DF91CF910895CF93DF93C5
:10191000CDB7DEB710922A0210922B0210922C0241
:1019200010922D028BE091E0FC0120818BE091E090
:10193000237CFC0120830000DF91CF9108951F924A
:101940000F920FB60F9211240BB60F922F938F9315
:101950009F93EF93FF93CF93DF93CDB7DEB7809143
:101960002A02882349F08BE091E0FC0120818BE082
:1019700091E02F7DFC01208380912B02882349F088
:101980008BE091E0FC0120818BE091E0277FFC015E
:10199000208380912C02882349F08BE091E0FC01A8
:1019A00020818BE091E02F7EFC01208380912D022D
:1019B000882349F08BE091E0FC0120818BE091E0ED
:1019C0002B7FFC0120830000DF91CF91FF91EF91ED
:1019D0009F918F912F910F900BBE0F900FBE0F9084
:1019E0001F9018951F920F920FB60F9211240BB6ED
:1019F0000F922F938F939F93EF93FF93CF93DF9348
:101A0000CDB7DEB780912A02882349F08BE091E0C0
:101A1000FC0120818BE091E02062FC012083809119
:101A20002B02882349F08BE091E0FC0120818BE0C0
:101A300091E02860FC01208380912C02882349F0EA
:101A40008BE091E0FC0120818BE091E02061FC01C2
:101A5000208380912D02882349F08BE091E0FC01E6
:101A600020818BE091E02460FC0120830000DF9165
:101A7000CF91FF91EF919F918F912F910F900BBE7E
:101A80000F900FBE0F901F901895CF93DF93CDB797
:101A9000DEB786E290E0FC018081882F90E08270C2
:101AA0009927DF91CF910895CF93DF93CDB7DEB71C
:101AB0000E94450C87E290E0FC01208187E290E0E3
:101AC0002160FC01208388E290E0FC01208188E213
:101AD00090E02E7FFC01208384E290E0FC012081D5
:101AE00084E290E0287FFC01208385E290E0FC0105
:101AF000208185E290E02760FC0120830000DF91D7
:101B0000CF910895CF93DF93CDB7DEB7C454D109F9
:101B10000FB6F894DEBF0FBECDBF0E94520C8FC02F
:101B200080E090E0A0E8BFE389839A83AB83BC8325
:101B300020E030E04AE755E469817A818B819C811D
:101B40000E948E126DA37EA38FA398A78DA19EA144
:101B5000AFA1B8A58D839E83AF83B88720E030E026
:101B600040E85FE36D817E818F8198850E94CB1173
:101B700088232CF481E090E09A87898755C020E083
:101B80003FEF4FE757E46D817E818F8198850E94FA
:101B900089128823D9F1D4F120E030E040E251E409
:101BA00069817A818B819C810E948E1269A77AA7B4
:101BB0008BA79CA789A59AA5ABA5BCA58D8F9E8F49
:101BC000AF8FB8A36D8D7E8D8F8D98A10E94D0119F
:101BD0006DA77EA78FA798ABADA5BEA5BA87A9872D
:101BE00010C080E991E09C878B878B859C8501974D
:101BF000F1F79C878B87000089859A8501979A87E2
:101C0000898789859A85009761F719C06D817E81E2
:101C10008F8198850E94D01169AB7AAB8BAB9CAB5E
:101C200089A99AA99A87898789859A859E878D87A8
:101C30008D859E850197F1F79E878D87000043E291
:101C400050E065E270E080E00E943604009709F4FD
:101C500067CF0E94860C0E945F0C80E090E0A0E2BB
:101C6000B1E48F87988BA98BBA8B20E030E04AE7EC
:101C700055E46F85788989899A890E948E126DABA7
:101C80007EAB8FAB98AF8DA99EA9AFA9B8AD8B8B5A
:101C90009C8BAD8BBE8B20E030E040E85FE36B892E
:101CA0007C898D899E890E94CB1188232CF481E048
:101CB00090E0988F8F8B5CC020E03FEF4FE757E4B8
:101CC0006B897C898D899E890E948912882309F0FD
:101CD0000CF43CC020E030E040E251E46F857889AC
:101CE00089899A890E948E1269AF7AAF8BAF9CAFB7
:101CF00089AD9AADABADBCAD89A39AA3ABA3BCA390
:101D000069A17AA18BA19CA10E94D01121966CAFF0
:101D10007DAF8EAF9FAF2197ADADBEADB88FAF8B0E
:101D200010C080E991E09A8F898F898D9A8D0197F3
:101D3000F1F79A8F898F00008F89988D0197988F7E
:101D40008F8B8F89988D009761F71DC06B897C8977
:101D50008D899E890E94D01125966CAF7DAF8EAF84
:101D60009FAF259723968EAD9FAD2397988F8F8B2E
:101D70008F89988D9C8F8B8F8B8D9C8D0197F1F720
:101D80009C8F8B8F00000E94860C10922F02109265
:101D90002E020000CC5BDF4F0FB6F894DEBF0FBE03
:101DA000CDBFDF91CF910895CF93DF93CDB7DEB74D
:101DB000C454D1090FB6F894DEBF0FBECDBF0E9448
:101DC0009A110E946C0C8FC080E090E0A0E8BFE305
:101DD00089839A83AB83BC8320E030E04AE755E4F3
:101DE00069817A818B819C810E948E126DA37EA372
:101DF0008FA398A78DA19EA1AFA1B8A58D839E8327
:101E0000AF83B88720E030E040E85FE36D817E81FA
:101E10008F8198850E94CB1188232CF481E090E07B
:101E20009A87898755C020E03FEF4FE757E46D81DF
:101E30007E818F8198850E9489128823D9F1D4F1FF
:101E400020E030E040E251E469817A818B819C811D
:101E50000E948E1269A77AA78BA79CA789A59AA52D
:101E6000ABA5BCA58D8F9E8FAF8FB8A36D8D7E8DDA
:101E70008F8D98A10E94D0116DA77EA78FA798ABD8
:101E8000ADA5BEA5BA87A98710C080E991E09C875F
:101E90008B878B859C850197F1F79C878B8700004A
:101EA00089859A8501979A87898789859A85009778
:101EB00061F719C06D817E818F8198850E94D01154
:101EC00069AB7AAB8BAB9CAB89A99AA99A878987B6
:101ED00089859A859E878D878D859E850197F1F7E7
:101EE0009E878D87000043E250E065E270E082E06B
:101EF0000E943604009709F467CF0E94860C0E9466
:101F00009A110E94790C96C080E090E0A0E8BFE3AF
:101F10008F87988BA98BBA8B20E030E04AE755E495
:101F20006F85788989899A890E948E126DAB7EAB04
:101F30008FAB98AF8DA99EA9AFA9B8AD8B8B9C8BA9
:101F4000AD8BBE8B20E030E040E85FE36B897C899D
:101F50008D899E890E94CB1188232CF481E090E02A
:101F6000988F8F8B5CC020E03FEF4FE757E46B8981
:101F70007C898D899E890E948912882309F00CF43E
:101F80003CC020E030E040E251E46F8578898989E7
:101F90009A890E948E1269AF7AAF8BAF9CAF89ADE0
:101FA0009AADABADBCAD89A39AA3ABA3BCA369A109
:101FB0007AA18BA19CA10E94D01121966CAF7DAF1C
:101FC0008EAF9FAF2197ADADBEADB88FAF8B10C0B8
:101FD00080E991E09A8F898F898D9A8D0197F1F729
:101FE0009A8F898F00008F89988D0197988F8F8B9A
:101FF0008F89988D009761F71DC06B897C898D89C9
:102000009E890E94D01125966CAF7DAF8EAF9FAF99
:10201000259723968EAD9FAD2397988F8F8B8F89B1
:10202000988D9C8F8B8F8B8D9C8D0197F1F79C8F5A
:102030008B8F000043E250E065E270E083E00E9495
:102040003604009709F460CF0E94860C0000CC5B38
:10205000DF4F0FB6F894DEBF0FBECDBFDF91CF913B
:102060000895CF93DF93CDB7DEB7C454D1090FB62F
:10207000F894DEBF0FBECDBF0E946C0C8FC080E015
:1020800090E0A0E8BFE389839A83AB83BC8320E020
:1020900030E04AE755E469817A818B819C810E9416
:1020A0008E126DA37EA38FA398A78DA19EA1AFA131
:1020B000B8A58D839E83AF83B88720E030E040E8E9
:1020C0005FE36D817E818F8198850E94CB1188238B
:1020D0002CF481E090E09A87898755C020E03FEF9B
:1020E0004FE757E46D817E818F8198850E94891228
:1020F0008823D9F1D4F120E030E040E251E4698155
:102100007A818B819C810E948E1269A77AA78BA706
:102110009CA789A59AA5ABA5BCA58D8F9E8FAF8FD7
:10212000B8A36D8D7E8D8F8D98A10E94D0116DA763
:102130007EA78FA798ABADA5BEA5BA87A98710C00B
:1021400080E991E09C878B878B859C850197F1F7CF
:102150009C878B87000089859A8501979A87898754
:1021600089859A85009761F719C06D817E818F817D
:1021700098850E94D01169AB7AAB8BAB9CAB89A9D7
:102180009AA99A87898789859A859E878D878D8563
:102190009E850197F1F79E878D87000043E250E00E
:1021A00065E270E082E00E943604009709F467CF90
:1021B0000E94860C0E94AB110E94790C96C080E0B0
:1021C00090E0A0E8BFE38F87988BA98BBA8B20E0C3
:1021D00030E04AE755E46F85788989899A890E94B9
:1021E0008E126DAB7EAB8FAB98AF8DA99EA9AFA9B8
:1021F000B8AD8B8B9C8BAD8BBE8B20E030E040E884
:102200005FE36B897C898D899E890E94CB1188232D
:102210002CF481E090E0988F8F8B5CC020E03FEF42
:102220004FE757E46B897C898D899E890E948912CA
:10223000882309F00CF43CC020E030E040E251E497
:102240006F85788989899A890E948E1269AF7AAFE1
:102250008BAF9CAF89AD9AADABADBCAD89A39AA352
:10226000ABA3BCA369A17AA18BA19CA10E94D011B0
:1022700021966CAF7DAF8EAF9FAF2197ADADBEAD58
:10228000B88FAF8B10C080E991E09A8F898F898DCC
:102290009A8D0197F1F79A8F898F00008F89988D19
:1022A0000197988F8F8B8F89988D009761F71DC04C
:1022B0006B897C898D899E890E94D01125966CAF8F
:1022C0007DAF8EAF9FAF259723968EAD9FAD2397A1
:1022D000988F8F8B8F89988D9C8F8B8F8B8D9C8DFA
:1022E0000197F1F79C8F8B8F000043E250E065E28D
:1022F00070E083E00E943604009709F460CF0E94EA
:10230000860C0000CC5BDF4F0FB6F894DEBF0FBE2B
:10231000CDBFDF91CF910895CF93DF93CDB7DEB7D7
:1023200043E250E065E270E081E00E947704DF91D3
:10233000CF910895CF93DF93CDB7DEB788E290E0D9
:10234000FC01208188E290E02160FC0120830000F4
:10235000DF91CF910895CF93DF93CDB7DEB788E2B9
:1023600090E0FC01208188E290E02E7FFC01208338
:102370000000DF91CF910895A29FB001B39FC001EB
:10238000A39F700D811D1124911DB29F700D811DA1
:102390001124911D08950E943C1208F481E00895D3
:1023A0000E94681288F09F5798F0B92F9927B7516B
:1023B000B0F0E1F0660F771F881F991F1AF0BA95E9
:1023C000C9F714C0B13091F00E948212B1E00895B3
:1023D0000C948212672F782F8827B85F39F0B93FA5
:1023E000CCF3869577956795B395D9F73EF490959C
:1023F0008095709561957F4F8F4F9F4F0895E8941A
:1024000009C097FB3EF490958095709561957F4F3C
:102410008F4F9F4F9923A9F0F92F96E9BB279395EA
:10242000F695879577956795B795F111F8CFFAF4FA
:10243000BB0F11F460FF1BC06F5F7F4F8F4F9F4F2B
:1024400016C0882311F096E911C0772321F09EE889
:10245000872F762F05C0662371F096E8862F70E0EF
:1024600060E02AF09A95660F771F881FDAF7880FC9
:102470009695879597F90895990F0008550FAA0B1F
:10248000E0E8FEEF16161706E807F907C0F0121687
:102490001306E407F50798F0621B730B840B950B8A
:1024A00039F40A2661F0232B242B252B21F40895DF
:1024B0000A2609F4A140A6958FEF811D811D08957C
:1024C00057FD9058440F551F59F05F3F71F04795E5
:1024D000880F97FB991F61F09F3F79F087950895CA
:1024E000121613061406551FF2CF4695F1DF08C0E9
:1024F000161617061806991FF1CF86957105610506
:1025000008940895E894BB2766277727CB0197F9AD
:1025100008950E943C1208F48FEF08950E94A112C2
:102520000C9412130E94041338F00E940B1320F035
:10253000952311F00C94FB120C94011311240C94AC
:1025400083120E94601270F3959FC1F3950F50E0C3
:10255000551F629FF001729FBB27F00DB11D639F55
:10256000AA27F00DB11DAA1F649F6627B00DA11DFB
:10257000661F829F2227B00DA11D621F739FB00DA1
:10258000A11D621F839FA00D611D221F749F332711
:10259000A00D611D231F849F600D211D822F762FAA
:1025A0006A2F11249F5750409AF0F1F088234AF087
:1025B000EE0FFF1FBB1F661F771F881F91505040F3
:1025C000A9F79E3F510580F00C94FB120C948312E6
:1025D0005F3FE4F3983ED4F3869577956795B7957A
:1025E000F795E7959F5FC1F7FE2B880F911D969594
:1025F000879597F9089597F99F6780E870E060E004
:1026000008959FEF80EC089500240A94161617068B
:1026100018060906089500240A94121613061406D3
:1026200005060895092E0394000C11F4882352F036
:10263000BB0F40F4BF2B11F460FF04C06F5F7F4FEE
:0A2640008F4F9F4F0895F894FFCFCD
:10264A00010003FF9FFF25FF0DFF99FF49FF41FF8F
:10265A001FFF01FF09FF11FFC1FF63FF85FF61FF34
:04266A0071FF0100FB
:00000001FF
