:100000000C9472000C9486000C9486000C9486006C
:100010000C9486000C9486000C9486000C94860048
:100020000C9486000C9486000C9486000C94860038
:100030000C9486000C9486000C9486000C94860028
:100040000C9486000C9486000C9486000C94860018
:100050000C9486000C94E9020C9486000C942B03FB
:100060000C9486000C9486000C9486000C948600F8
:100070000C9486000C9486000C9486000C948600E8
:100080000C9486000C9486000C9486000C948600D8
:100090000C9486000C9486000C9486000C948600C8
:1000A0000C9486000C9486000C9486000C948600B8
:1000B0000C9486000C9486000C9486000C948600A8
:1000C0000C9486000C9486000C9486000C94860098
:1000D0000C9486000C9486000C9486000C94860088
:1000E0000C94860011241FBECFEFD1E2DEBFCDBF3E
:1000F00000E00CBF22E0A0E0B2E001C01D92A730FA
:10010000B207E1F70E94B0010C9491050C94000035
:10011000CF93DF9300D00F920F92CDB7DEB78983D4
:100120007B836A835D834C838A819B81FC01808110
:10013000482F8981282F30E081E090E002C0880FAD
:10014000991F2A95E2F7842B282F8A819B81FC0135
:1001500020838C819D81FC018081882F90E0298102
:10016000222F30E0022E02C0959587950A94E2F77F
:1001700081709927009719F481E090E002C080E037
:1001800090E00F900F900F900F900F90DF91CF9114
:100190000895CF93DF93CDB7DEB7A7970FB6F89446
:1001A000DEBF0FBECDBF8F87798B688B5B8B4A8B91
:1001B00088899989DC018C91482F8F85282F30E020
:1001C00081E090E002C0880F991F2A95E2F7842B06
:1001D000282F88899989FC0120838A899B89DC01E1
:1001E0008C91882F90E02F85222F30E0022E02C0C4
:1001F000959587950A94E2F781709927009709F001
:10020000A0C080910002882309F09DC08091010266
:10021000909102020196909302028093010281E084
:100220008093000280E090E0A8E4B2E489839A839E
:10023000AB83BC8320E030E04AE755E469817A81F2
:100240008B819C810E94FC04688F798F8A8F9B8FA1
:10025000888D998DAA8DBB8D8D839E83AF83B88742
:1002600020E030E040E85FE36D817E818F819885FA
:100270000E94760488232CF481E090E09A87898795
:1002800055C020E03FEF4FE757E46D817E818F81BD
:1002900098850E94F7048823D9F1D4F120E030E05A
:1002A00040E251E469817A818B819C810E94FC0447
:1002B0006C8F7D8F8E8F9F8F8C8D9D8DAE8DBF8D22
:1002C0008C8B9D8BAE8BBF8B6C897D898E899F8932
:1002D0000E947B0468A379A38AA39BA3A8A1B9A1C8
:1002E000BA87A98710C080E991E09C878B878B85AE
:1002F0009C850197F1F79C878B87000089859A85FB
:1003000001979A87898789859A85009761F71BC02D
:100310006D817E818F8198850E947B046CA37DA373
:100320008EA39FA3ECA1FDA1FA87E98789859A8511
:100330009E878D878D859E850197F1F79E878D8796
:1003400002C0109200028091010290910202A796D1
:100350000FB6F894DEBF0FBECDBFDF91CF910895E9
:10036000CF93DF93CDB7DEB7A4970FB6F894DEBF77
:100370000FBECDBF0E946D030E9489030E943F04FF
:100380009A8389830E945C0480E090E0A8ECB2E448
:100390008B839C83AD83BE8320E030E04AE755E445
:1003A0006B817C818D819E810E94FC046D8B7E8B94
:1003B0008F8B988F8D899E89AF89B88D8F83988711
:1003C000A987BA8720E030E040E85FE36F81788555
:1003D00089859A850E94760488232CF481E090E038
:1003E0009C878B8755C020E03FEF4FE757E46F8134
:1003F000788589859A850E94F7048823D9F1D4F1FC
:1004000020E030E040E251E46B817C818D819E816F
:100410000E94FC04698F7A8F8B8F9C8F898D9A8DB7
:10042000AB8DBC8D898B9A8BAB8BBC8B69897A89A0
:100430008B899C890E947B046D8F7E8F8F8F98A300
:10044000AD8DBE8DBC87AB8710C080E991E09E87E3
:100450008D878D859E850197F1F79E878D8700009A
:100460008B859C8501979C878B878B859C850097C6
:1004700061F719C06F81788589859A850E947B0410
:1004800069A37AA38BA39CA389A19AA19C878B873C
:100490008B859C85988B8F878F8598890197F1F73D
:1004A000988B8F8700006ACFCF93DF93CDB7DEB7ED
:1004B00084E490E0FC01108285E490E023E0FC01FC
:1004C000208387E490E02FE7FC0120838EE690E014
:1004D00023E0FC0120830000DF91CF910895CF93AA
:1004E000DF93CDB7DEB784E290E0FC01208184E2A7
:1004F00090E02064FC0120838AE091E0FC012081EF
:100500008AE091E02862FC0120838BE091E0FC010D
:1005100020818BE091E0277DFC01208381E290E047
:10052000FC01208181E290E02160FC01208380E3D6
:1005300090E0FC01208180E390E02260FC012083B8
:1005400081E390E0FC01208181E390E02260FC01E6
:1005500020830000DF91CF910895CF93DF93CDB733
:10056000DEB70E946F020E94540278940000DF916F
:10057000CF910895CF93DF93CDB7DEB781E080931D
:100580000302109204020000DF91CF910895CF93EF
:10059000DF93CDB7DEB781E08093040210920302AF
:1005A0000000DF91CF910895CF93DF93CDB7DEB7F1
:1005B00010920302109204028BE091E0FC01208172
:1005C0008BE091E0277DFC0120830000DF91CF913B
:1005D00008951F920F920FB60F9211240BB60F922F
:1005E0002F938F939F93EF93FF93CF93DF93CDB789
:1005F000DEB780910302882349F08BE091E0FC0193
:1006000020818BE091E02F7DFC012083809104020A
:10061000882349F08BE091E0FC0120818BE091E0A0
:10062000277FFC01208384E290E0FC01208184E2AA
:1006300090E02F7BFC0120830000DF91CF91FF91A0
:10064000EF919F918F912F910F900BBE0F900FBE46
:100650000F901F9018951F920F920FB60F921124B2
:100660000BB60F922F938F939F93EF93FF93CF939C
:10067000DF93CDB7DEB780910302882349F08BE08A
:1006800091E0FC0120818BE091E02062FC0120835D
:1006900080910402882349F08BE091E0FC012081E5
:1006A0008BE091E02860FC01208384E290E0FC0173
:1006B000208184E290E02064FC0120830000DF912F
:1006C000CF91FF91EF919F918F912F910F900BBE42
:1006D0000F900FBE0F901F901895CF93DF93CDB75B
:1006E000DEB70E94AD0284E290E0FC01208184E24A
:1006F00090E0287FFC01208385E290E0FC012081CE
:1007000085E290E02760FC0120830000DF91CF911B
:100710000895CF93DF93CDB7DEB7A2970FB6F894C5
:10072000DEBF0FBECDBF0E94C7028FC080E090E049
:10073000A0E2B1E489839A83AB83BC8320E030E0FC
:100740004AE755E469817A818B819C810E94FC048F
:100750006B8B7C8B8D8B9E8B8B899C89AD89BE89A5
:100760008D839E83AF83B88720E030E040E85FE36D
:100770006D817E818F8198850E94760488232CF478
:1007800081E090E09A87898755C020E03FEF4FE7EE
:1007900057E46D817E818F8198850E94F7048823BC
:1007A000D9F1D4F120E030E040E251E469817A816E
:1007B0008B819C810E94FC046F8B788F898F9A8F2C
:1007C0008F89988DA98DBA8D8F87988BA98BBA8BBD
:1007D0006F85788989899A890E947B046B8F7C8FC9
:1007E0008D8F9E8FAB8DBC8DBA87A98710C080E995
:1007F00091E09C878B878B859C850197F1F79C877F
:100800008B87000089859A8501979A8789878985D2
:100810009A85009761F719C06D817E818F819885D7
:100820000E947B046F8F78A389A39AA38F8D98A1D0
:100830009A87898789859A859E878D878D859E85EC
:100840000197F1F79E878D87000043E250E065E253
:1008500070E080E00E948800009709F467CF0E9452
:10086000D40210920602109205020000A2960FB662
:10087000F894DEBF0FBECDBFDF91CF910895CF9327
:10088000DF93CDB7DEB743E250E065E270E081E090
:100890000E948800009749F080910502909106021D
:1008A0000196909306028093050280910502909133
:1008B0000602DF91CF910895CF93DF93CDB7DEB7D6
:1008C00043E250E065E270E082E00E948800009719
:1008D00049F085E290E0FC01208185E290E02F7EE6
:1008E000FC0120830000DF91CF9108950E94AA04AB
:1008F00008F481E008950E94D60488F09F5798F08C
:10090000B92F9927B751B0F0E1F0660F771F881F14
:10091000991F1AF0BA95C9F714C0B13091F00E942E
:10092000F004B1E008950C94F004672F782F882725
:10093000B85F39F0B93FCCF3869577956795B39555
:10094000D9F73EF490958095709561957F4F8F4FC4
:100950009F4F0895990F0008550FAA0BE0E8FEEF8E
:1009600016161706E807F907C0F012161306E40773
:10097000F50798F0621B730B840B950B39F40A266C
:1009800061F0232B242B252B21F408950A2609F44A
:10099000A140A6958FEF811D811D089557FD9058A8
:1009A000440F551F59F05F3F71F04795880F97FB33
:1009B000991F61F09F3F79F08795089512161306ED
:1009C0001406551FF2CF4695F1DF08C0161617061C
:1009D0001806991FF1CF8695710561050894089551
:1009E000E894BB2766277727CB0197F908950E94E3
:1009F000AA0408F48FEF08950E940F050C94800557
:100A00000E94720538F00E94790520F0952311F0BC
:100A10000C9469050C946F0511240C94F1040E9448
:100A2000CE0470F3959FC1F3950F50E0551F629F60
:100A3000F001729FBB27F00DB11D639FAA27F00D37
:100A4000B11DAA1F649F6627B00DA11D661F829F5E
:100A50002227B00DA11D621F739FB00DA11D621F43
:100A6000839FA00D611D221F749F3327A00D611D60
:100A7000231F849F600D211D822F762F6A2F112442
:100A80009F5750409AF0F1F088234AF0EE0FFF1F75
:100A9000BB1F661F771F881F91505040A9F79E3FCC
:100AA000510580F00C9469050C94F1045F3FE4F368
:100AB000983ED4F3869577956795B795F795E79522
:100AC0009F5FC1F7FE2B880F911D9695879597F92B
:100AD000089597F99F6780E870E060E008959FEFC0
:100AE00080EC089500240A941616170618060906C5
:100AF000089500240A941216130614060506089594
:100B0000092E0394000C11F4882352F0BB0F40F41B
:100B1000BF2B11F460FF04C06F5F7F4F8F4F9F4F5B
:060B20000895F894FFCFD8
:00000001FF
