:100000000C9472000C9493000C9493000C94930045
:100010000C9493000C9493000C9493000C94930014
:100020000C9493000C9493000C9493000C94930004
:100030000C9493000C9493000C9493000C949300F4
:100040000C9493000C9493000C9493000C949300E4
:100050000C9493000C9416070C9493000C9469076D
:100060000C9493000C9493000C9493000C949300C4
:100070000C9493000C9493000C9493000C949300B4
:100080000C9493000C9493000C9493000C949300A4
:100090000C9493000C9493000C9493000C94930094
:1000A0000C9493000C9493000C9493000C94930084
:1000B0000C9493000C9493000C9493000C94930074
:1000C0000C9493000C9493000C9493000C94930064
:1000D0000C9493000C9493000C9493000C94930054
:1000E0000C94930011241FBECFEFD1E2DEBFCDBF31
:1000F00000E00CBF12E0A0E0B2E0E2EDFAE100E0C7
:100100000BBF02C007900D92A232B107D9F722E0CF
:10011000A2E2B2E001C01D92A233B207E1F70E9451
:100120003A060C94670D0C940000CF93DF93CDB783
:10013000DEB781E091E0FC01208181E091E0206266
:10014000FC01208381E091E0FC01208181E091E0CD
:100150002061FC01208383E390E0FC01208183E3A4
:1001600090E02062FC01208382E091E0FC0120818C
:1001700082E091E02F7EFC01208384E390E0FC018B
:10018000208184E390E02F7DFC0120830000DF913B
:10019000CF910895CF93DF9300D00F920F92CDB7F8
:1001A000DEB78D831A82198239C08D81082E000C2A
:1001B000990B817099279C838B838D8185958D8385
:1001C0008B819C81009751F082E091E0FC012081BD
:1001D00082E091E02062FC01208309C082E091E08E
:1001E000FC01208182E091E02F7DFC01208382E0F0
:1001F00091E0FC01208182E091E02061FC012083FC
:1002000082E091E0FC01208182E091E02F7EFC0100
:10021000208389819A8101969A83898389819A8131
:100220008730910511F208F2000000000F900F9046
:100230000F900F900F90DF91CF910895CF93DF93A0
:100240000F920F92CDB7DEB79A83898380E190E059
:10025000098002C0880F991F0A94E2F70E94CA0021
:1002600000000F900F90DF91CF910895CF93DF930F
:1002700000D0CDB7DEB789837B836A8389810E94F2
:10028000CA008A819B810E941E0184E390E0FC01E8
:10029000208184E390E02062FC01208384E390E0ED
:1002A000FC01208184E390E02F7DFC01208300008D
:1002B0000F900F900F90DF91CF910895CF93DF9320
:1002C000CDB7DEB7A6970FB6F894DEBF0FBECDBF91
:1002D0009A8B898B1A821982CCC049895A899A01D2
:1002E000ADECBCEC0E94000C9C0136952795369530
:1002F000279536952795C901880F991F880F991F53
:10030000820F931F880F991F9A01281B390BC9016F
:10031000880F991F8E5F9D4FDC018D919C91282F36
:1003200089819A81BC01822F0E94360189899A892C
:100330009C01ADECBCEC0E94000C969587959695BF
:100340008795969587959A8B898B80E090E0A0E8B9
:10035000BFE38B839C83AD83BE8320E030E04AE71C
:1003600055E46B817C818D819E810E94D20C6F8BC4
:10037000788F898F9A8F8F89988DA98DBA8D8F8369
:100380009887A987BA8720E030E040E85FE36F8173
:10039000788589859A850E940F0C88232CF481E04A
:1003A00090E09C878B8755C020E03FEF4FE757E4F4
:1003B0006F81788589859A850E94CD0C8823D9F133
:1003C000D4F120E030E040E251E46B817C818D810A
:1003D0009E810E94D20C6B8F7C8F8D8F9E8F8B8D18
:1003E0009C8DAD8DBE8D8B8B9C8BAD8BBE8B6B89AD
:1003F0007C898D899E890E94140C6F8F78A389A3B4
:100400009AA3AF8DB8A1BC87AB8710C080E991E0FB
:100410009E878D878D859E850197F1F79E878D87B5
:1004200000008B859C8501979C878B878B859C859D
:10043000009761F719C06F81788589859A850E9438
:10044000140C6BA37CA38DA39EA3EBA1FCA1FC8742
:10045000EB878B859C85988B8F878F8598890197F3
:10046000F1F7988B8F87000089819A8101969A8392
:10047000898389819A818330910509F00CF42DCF0D
:1004800000000000A6960FB6F894DEBF0FBECDBFE9
:10049000DF91CF910895CF93DF93CDB7DEB7C655E7
:1004A000D1090FB6F894DEBF0FBECDBF8FE290E04A
:1004B000DC018C91882F90E082709927009709F0D9
:1004C000CCC08091220290912302009709F00CF495
:1004D000C4C080912202909123020197909323023D
:1004E00080932202AFC080910002909101029C0192
:1004F000990F440B550B2FA738AB49AB5AAB6FA5DF
:1005000078A989A99AA90E94450C6F8F78A389A31D
:100510009AA38F8D98A1A9A1BAA18B839C83AD8347
:10052000BE8320E030E04AE755E46B817C818D8119
:100530009E810E94D20C6BAB7CAB8DAB9EAB2BA98A
:100540003CA94DA95EA92F83388749875A8720E0A7
:1005500030E040E85FE36F81788589859A850E9465
:100560000F0C88232CF481E090E09C878B8759C086
:1005700020E03FEF4FE757E46F81788589859A85C2
:100580000E94CD0C8823D9F1D4F120E030E040E284
:1005900051E46B817C818D819E810E94D20C6FAB76
:1005A00078AF89AF9AAF8FA998ADA9ADBAAD8FA337
:1005B00098A7A9A7BAA76FA178A589A59AA50E940F
:1005C000140C6BAF7CAF8DAF9EAFABADBCADBC8739
:1005D000AB8710C080E991E09E878D878D859E85D1
:1005E0000197F1F79E878D8700008B859C85019789
:1005F0009C878B878B859C85009761F71DC06F81D9
:10060000788589859A850E94140C23966CAF7DAFFE
:100610008EAF9FAF23972196EEADFFAD2197FC875C
:10062000EB878B859C85988B8F878F859889019721
:10063000F1F7988B8F87000080912202909123021E
:100640000E945E018FE290E0DC018C91882F90E0A7
:1006500082709927009709F446CF8FE290E0FC0161
:100660008081882F90E084709927009709F0DEC080
:1006700080912202909123028336910511F00CF0B3
:10068000D5C080912202909123020196909323027B
:1006900080932202C0C080910002909101029C01CF
:1006A000990F440B550B27962CAF3DAF4EAF5FAF64
:1006B000279727966CAD7DAD8EAD9FAD27970E9495
:1006C000450C6BA37CA38DA39EA38BA19CA1ADA184
:1006D000BEA1898B9A8BAB8BBC8B20E030E04AE7C4
:1006E00055E469897A898B899C890E94D20C2B9662
:1006F0006CAF7DAF8EAF9FAF2B972B962CAD3DADE2
:100700004EAD5FAD2B972D8B3E8B4F8B588F20E0DE
:1007100030E040E85FE36D897E898F89988D0E9483
:100720000F0C88232CF481E090E09A8F898F62C0AF
:1007300020E03FEF4FE757E46D897E898F89988DE0
:100740000E94CD0C882309F00CF442C020E030E078
:1007500040E251E469897A898B899C890E94D20C94
:100760002F966CAF7DAF8EAF9FAF2F972F968CAD2E
:100770009DADAEADBFAD2F978BA79CA7ADA7BEA774
:100780006BA57CA58DA59EA50E94140C63966CAFED
:100790007DAF8EAF9FAF63976196AEADBFAD6197F2
:1007A000BA8FA98F10C080E991E09C8F8B8F8B8DC1
:1007B0009C8D0197F1F79C8F8B8F0000898D9A8D0E
:1007C00001979A8F898F898D9A8D009761F71DC047
:1007D0006D897E898F89988D0E94140C67966CAF05
:1007E0007DAF8EAF9FAF67976596EEADFFAD659716
:1007F000FA8FE98F898D9A8D9E8F8D8F8D8D9E8D2D
:100800000197F1F79E8F8D8F0000809122029091C9
:1008100023020E945E018FE290E0DC018C91882F20
:1008200090E084709927009709F435CF80912202D7
:10083000909123020E945E018FE290E0FC01808192
:10084000882F90E088709927009709F02FCE80E0DC
:1008500090E00E945E0180912202909123029A838F
:100860008983109223021092220289819A81CA5AA6
:10087000DF4F0FB6F894DEBF0FBECDBFDF91CF9133
:100880000895CF93DF9300D00F920F92CDB7DEB7CC
:1008900089837B836A835D834C838A819B81FC018E
:1008A0008081482F8981282F30E081E090E002C0CC
:1008B000880F991F2A95E2F7842B282F8A819B8124
:1008C000FC0120838C819D81FC018081882F90E038
:1008D0002981222F30E0022E02C0959587950A9437
:1008E000E2F781709927009719F481E090E002C047
:1008F00080E090E00F900F900F900F900F90DF919D
:10090000CF910895CF93DF93CDB7DEB7C954D10906
:100910000FB6F894DEBF0FBECDBF8D8F7F8F6E8F69
:1009200059A348A38E8D9F8DDC018C91482F8D8D0E
:10093000282F30E081E090E002C0880F991F2A95AF
:10094000E2F7842B282F8E8D9F8DFC01208388A1B8
:1009500099A1DC018C91882F90E02D8D222F30E021
:10096000022E02C0959587950A94E2F78170992727
:10097000009709F065C19091270281E0992309F061
:1009800080E0282F30E080912D0290912E0282236A
:100990009323009709F49BC080912802909129022B
:1009A0000196909329028093280281E08093270288
:1009B00080E090E0A8E4B2E489839A83AB83BC83AF
:1009C00020E030E04AE755E469817A818B819C819F
:1009D0000E94D20C6AA77BA78CA79DA78AA59BA57E
:1009E000ACA5BDA58D839E83AF83B88720E030E0A2
:1009F00040E85FE36D817E818F8198850E940F0CB6
:100A000088232CF481E090E09A87898755C020E004
:100A10003FEF4FE757E46D817E818F8198850E947B
:100A2000CD0C8823D9F1D4F120E030E040E251E44C
:100A300069817A818B819C810E94D20C6EA77FA7ED
:100A400088AB99AB8EA59FA5A8A9B9A98AA39BA39A
:100A5000ACA3BDA36AA17BA18CA19DA10E94140C93
:100A60006AAB7BAB8CAB9DABAAA9BBA9BA87A987A4
:100A700010C080E991E09C878B878B859C850197CE
:100A8000F1F79C878B87000089859A8501979A8763
:100A9000898789859A85009761F719C06D817E8164
:100AA0008F8198850E94140C6EAB7FAB88AF99AF95
:100AB000EEA9FFA9FA87E98789859A859E878D87A0
:100AC0008D859E850197F1F79E878D870000909117
:100AD000270281E0992309F080E0282F30E08091FF
:100AE0002C0290912D0282239323009709F4AAC02F
:100AF0008091280290912902019790932902809376
:100B0000280281E08093270280E090E0A8E4B2E42C
:100B10008F87988BA98BBA8B20E030E04AE755E4A9
:100B20006F85788989899A890E94D20C6AAF7BAFD8
:100B30008CAF9DAF8AAD9BADACADBDAD8B8B9C8BAF
:100B4000AD8BBE8B20E030E040E85FE36B897C89B1
:100B50008D899E890E940F0C88232CF481E090E0FF
:100B6000988F8F8B62C020E03FEF4FE757E46B898F
:100B70007C898D899E890E94CD0C882309F00CF414
:100B800042C020E030E040E251E46F8578898989F5
:100B90009A890E94D20C22966CAF7DAF8EAF9FAF28
:100BA000229722968CAD9DADAEADBFAD22978EA3A0
:100BB0009FA3A8A7B9A76EA17FA188A599A50E9408
:100BC000140C26966CAF7DAF8EAF9FAF2697249600
:100BD000AEADBFAD2497B88FAF8B10C080E991E068
:100BE0009A8F898F898D9A8D0197F1F79A8F898FC6
:100BF00000008F89988D0197988F8F8B8F89988DA2
:100C0000009761F71FC06B897C898D899E890E943E
:100C1000140C2A966CAF7DAF8EAF9FAF2A972896A3
:100C2000EEADFFAD2897F88FEF8B8F89988D9C8F55
:100C30008B8F8B8D9C8D0197F1F79C8F8B8F02C0D2
:100C4000109227028091280290912902992324F47E
:100C50001092290210922802809128029091290274
:100C6000C75BDF4F0FB6F894DEBF0FBECDBFDF917D
:100C7000CF910895CF93DF9300D00F92CDB7DEB719
:100C80000E94BC070E94D8070E944B029A83898366
:100C90000E94E20B9C838B830E94D60689819A81F5
:100CA0002B813C812817390779F70E94FD060E94A5
:100CB0002A09EACFCF93DF93CDB7DEB784E490E083
:100CC000FC01108285E490E023E0FC01208387E4AE
:100CD00090E02FE7FC0120838EE690E023E0FC010A
:100CE00020830000DF91CF910895CF93DF93CDB79C
:100CF000DEB784E290E0FC01208184E290E0206491
:100D0000FC0120838AE091E0FC0120818AE091E0EF
:100D10002862FC0120838BE091E0FC0120818BE0C4
:100D200091E0277DFC01208381E290E0FC0120819D
:100D300081E290E02160FC01208381E290E0FC01EF
:100D4000208181E290E02260FC01208380E390E03A
:100D5000FC01208180E390E02D7FFC01208381E372
:100D600090E0FC01208181E390E02260FC0120837F
:100D70000000DF91CF910895CF93DF93CDB7DEB719
:100D80000E9475060E945A0678940000DF91CF9168
:100D90000895CF93DF93CDB7DEB781E080932C0227
:100DA00010922D020000DF91CF910895CF93DF9331
:100DB000CDB7DEB781E080932D0210922C020000A7
:100DC000DF91CF910895CF93DF93CDB7DEB781E068
:100DD00080932F0210922E020000DF91CF91089590
:100DE000CF93DF93CDB7DEB781E080932E021092D0
:100DF0002F020000DF91CF910895CF93DF93CDB7FD
:100E0000DEB710922C0210922D0210922E02109238
:100E10002F028BE091E0FC0120818BE091E0237CAC
:100E2000FC0120830000DF91CF9108951F920F9263
:100E30000FB60F9211240BB60F922F938F939F939F
:100E4000EF93FF93CF93DF93CDB7DEB780912C0262
:100E5000882349F08BE091E0FC0120818BE091E058
:100E60002F7DFC01208380912D02882349F08BE0A7
:100E700091E0FC0120818BE091E0277FFC01208341
:100E800080912E02882349F08BE091E0FC012081C3
:100E90008BE091E02F7EFC01208380912F0288233C
:100EA00049F08BE091E0FC0120818BE091E02B7F09
:100EB000FC0120830000DF91CF91FF91EF919F9182
:100EC0008F912F910F900BBE0F900FBE0F901F9020
:100ED00018951F920F920FB60F9211240BB60F9216
:100EE0002F938F939F93EF93FF93CF93DF93CDB780
:100EF000DEB780912C02882349F08BE091E0FC0161
:100F000020818BE091E02062FC01208380912D0202
:100F1000882349F08BE091E0FC0120818BE091E097
:100F20002860FC01208380912E02882349F08BE009
:100F300091E0FC0120818BE091E02061FC012083A5
:100F400080912F02882349F08BE091E0FC01208101
:100F50008BE091E02460FC0120830000DF91CF91C1
:100F6000FF91EF919F918F912F910F900BBE0F905A
:100F70000FBE0F901F901895CF93DF93CDB7DEB7BC
:100F80000E94BC0684E290E0FC01208184E290E0B3
:100F9000287FFC01208385E290E0FC01208185E22E
:100FA00090E02760FC0120830000DF91CF9108953D
:100FB000CF93DF93CDB7DEB7C454D1090FB6F89401
:100FC000DEBF0FBECDBF0E94C9068FC080E090E09B
:100FD000A0E8BFE389839A83AB83BC8320E030E041
:100FE0004AE755E469817A818B819C810E94D20C09
:100FF0006DA37EA38FA398A78DA19EA1AFA1B8A535
:101000008D839E83AF83B88720E030E040E85FE3C4
:101010006D817E818F8198850E940F0C88232CF42E
:1010200081E090E09A87898755C020E03FEF4FE745
:1010300057E46D817E818F8198850E94CD0C882335
:10104000D9F1D4F120E030E040E251E469817A81C5
:101050008B819C810E94D20C69A77AA78BA79CA741
:1010600089A59AA5ABA5BCA58D8F9E8FAF8FB8A380
:101070006D8D7E8D8F8D98A10E94140C6DA77EA71B
:101080008FA798ABADA5BEA5BA87A98710C080E988
:1010900091E09C878B878B859C850197F1F79C87D6
:1010A0008B87000089859A8501979A87898789852A
:1010B0009A85009761F719C06D817E818F8198852F
:1010C0000E94140C69AB7AAB8BAB9CAB89A99AA933
:1010D0009A87898789859A859E878D878D859E8544
:1010E0000197F1F79E878D87000043E250E065E2AB
:1010F00070E080E00E944104009709F467CF0E94ED
:10110000FD060E94D60680E090E0A0E2B1E48F8761
:10111000988BA98BBA8B20E030E04AE755E46F85C5
:10112000788989899A890E94D20C6DAB7EAB8FAB8E
:1011300098AF8DA99EA9AFA9B8AD8B8B9C8BAD8BB9
:10114000BE8B20E030E040E85FE36B897C898D89CD
:101150009E890E940F0C88232CF481E090E0988FE8
:101160008F8B5CC020E03FEF4FE757E46B897C89B1
:101170008D899E890E94CD0C882309F00CF43CC017
:1011800020E030E040E251E46F85788989899A89CE
:101190000E94D20C69AF7AAF8BAF9CAF89AD9AAD8C
:1011A000ABADBCAD89A39AA3ABA3BCA369A17AA143
:1011B0008BA19CA10E94140C21966CAF7DAF8EAFC9
:1011C0009FAF2197ADADBEADB88FAF8B10C080E99A
:1011D00091E09A8F898F898D9A8D0197F1F79A8F77
:1011E000898F00008F89988D0197988F8F8B8F89B9
:1011F000988D009761F71DC06B897C898D899E89C8
:101200000E94140C25966CAF7DAF8EAF9FAF2597D3
:1012100023968EAD9FAD2397988F8F8B8F89988D56
:101220009C8F8B8F8B8D9C8D0197F1F79C8F8B8F73
:1012300000000E94FD061092310210923002000060
:10124000CC5BDF4F0FB6F894DEBF0FBECDBFDF9192
:10125000CF910895CF93DF93CDB7DEB7C454D109B2
:101260000FB6F894DEBF0FBECDBF0E94F00B0E94F8
:10127000E3068FC080E090E0A0E8BFE389839A8313
:10128000AB83BC8320E030E04AE755E469817A8192
:101290008B819C810E94D20C6DA37EA38FA398A703
:1012A0008DA19EA1AFA1B8A58D839E83AF83B88782
:1012B00020E030E040E85FE36D817E818F8198859A
:1012C0000E940F0C88232CF481E090E09A87898794
:1012D00055C020E03FEF4FE757E46D817E818F815D
:1012E00098850E94CD0C8823D9F1D4F120E030E01C
:1012F00040E251E469817A818B819C810E94D20C09
:1013000069A77AA78BA79CA789A59AA5ABA5BCA519
:101310008D8F9E8FAF8FB8A36D8D7E8D8F8D98A191
:101320000E94140C6DA77EA78FA798ABADA5BEA594
:10133000BA87A98710C080E991E09C878B878B854D
:101340009C850197F1F79C878B87000089859A859A
:1013500001979A87898789859A85009761F719C0CF
:101360006D817E818F8198850E94140C69AB7AAB68
:101370008BAB9CAB89A99AA99A87898789859A851D
:101380009E878D878D859E850197F1F79E878D8736
:10139000000043E250E065E270E082E00E94410418
:1013A000009709F467CF0E94FD060E94F00B0E948F
:1013B000F00696C080E090E0A0E8BFE38F87988BAE
:1013C000A98BBA8B20E030E04AE755E46F85788935
:1013D00089899A890E94D20C6DAB7EAB8FAB98AF96
:1013E0008DA99EA9AFA9B8AD8B8B9C8BAD8BBE8B05
:1013F00020E030E040E85FE36B897C898D899E893D
:101400000E940F0C88232CF481E090E0988F8F8B42
:101410005CC020E03FEF4FE757E46B897C898D8902
:101420009E890E94CD0C882309F00CF43CC020E07A
:1014300030E040E251E46F85788989899A890E9479
:10144000D20C69AF7AAF8BAF9CAF89AD9AADABAD23
:10145000BCAD89A39AA3ABA3BCA369A17AA18BA1BC
:101460009CA10E94140C21966CAF7DAF8EAF9FAFF4
:101470002197ADADBEADB88FAF8B10C080E991E0C4
:101480009A8F898F898D9A8D0197F1F79A8F898F1D
:1014900000008F89988D0197988F8F8B8F89988DF9
:1014A000009761F71DC06B897C898D899E890E9498
:1014B000140C25966CAF7DAF8EAF9FAF259723960A
:1014C0008EAD9FAD2397988F8F8B8F89988D9C8F32
:1014D0008B8F8B8D9C8D0197F1F79C8F8B8F0000EC
:1014E00043E250E065E270E083E00E94410400972F
:1014F00009F460CF0E94FD060000CC5BDF4F0FB601
:10150000F894DEBF0FBECDBFDF91CF910895CF938A
:10151000DF93CDB7DEB7C454D1090FB6F894DEBF60
:101520000FBECDBF0E94E3068FC080E090E0A0E830
:10153000BFE389839A83AB83BC8320E030E04AE732
:1015400055E469817A818B819C810E94D20C6DA3C4
:101550007EA38FA398A78DA19EA1AFA1B8A58D83CF
:101560009E83AF83B88720E030E040E85FE36D8181
:101570007E818F8198850E940F0C88232CF481E056
:1015800090E09A87898755C020E03FEF4FE757E406
:101590006D817E818F8198850E94CD0C8823D9F141
:1015A000D4F120E030E040E251E469817A818B811E
:1015B0009C810E94D20C69A77AA78BA79CA789A5BA
:1015C0009AA5ABA5BCA58D8F9E8FAF8FB8A36D8D4F
:1015D0007E8D8F8D98A10E94140C6DA77EA78FA77A
:1015E00098ABADA5BEA5BA87A98710C080E991E0E8
:1015F0009C878B878B859C850197F1F79C878B87D0
:10160000000089859A8501979A87898789859A85B7
:10161000009761F719C06D817E818F8198850E9446
:10162000140C69AB7AAB8BAB9CAB89A99AA99A874E
:10163000898789859A859E878D878D859E85019767
:10164000F1F79E878D87000043E250E065E270E08D
:1016500082E00E944104009709F467CF0E94FD06D2
:101660000E94F80B0E94F00696C080E090E0A0E88F
:10167000BFE38F87988BA98BBA8B20E030E04AE7D5
:1016800055E46F85788989899A890E94D20C6DAB5F
:101690007EAB8FAB98AF8DA99EA9AFA9B8AD8B8B50
:1016A0009C8BAD8BBE8B20E030E040E85FE36B8924
:1016B0007C898D899E890E940F0C88232CF481E0FF
:1016C00090E0988F8F8B5CC020E03FEF4FE757E4AE
:1016D0006B897C898D899E890E94CD0C882309F0B5
:1016E0000CF43CC020E030E040E251E46F857889A2
:1016F00089899A890E94D20C69AF7AAF8BAF9CAF6F
:1017000089AD9AADABADBCAD89A39AA3ABA3BCA385
:1017100069A17AA18BA19CA10E94140C21966CAFA7
:101720007DAF8EAF9FAF2197ADADBEADB88FAF8B04
:1017300010C080E991E09A8F898F898D9A8D0197E9
:10174000F1F79A8F898F00008F89988D0197988F74
:101750008F8B8F89988D009761F71DC06B897C896D
:101760008D899E890E94140C25966CAF7DAF8EAF3B
:101770009FAF259723968EAD9FAD2397988F8F8B24
:101780008F89988D9C8F8B8F8B8D9C8D0197F1F716
:101790009C8F8B8F000043E250E065E270E083E0B5
:1017A0000E944104009709F460CF0E94FD060000EA
:1017B000CC5BDF4F0FB6F894DEBF0FBECDBFDF911D
:1017C000CF910895CF93DF93CDB7DEB743E250E0DA
:1017D00065E270E081E00E948204DF91CF9108957C
:1017E000CF93DF93CDB7DEB70000DF91CF9108959F
:1017F000CF93DF93CDB7DEB70000DF91CF9108958F
:10180000A29FB001B39FC001A39F700D811D112441
:10181000911DB29F700D811D1124911D08950E948C
:10182000800C08F481E008950E94AC0C88F09F576A
:1018300098F0B92F9927B751B0F0E1F0660F771FF4
:10184000881F991F1AF0BA95C9F714C0B13091F0EA
:101850000E94C60CB1E008950C94C60C672F782F37
:101860008827B85F39F0B93FCCF3869577956795AF
:10187000B395D9F73EF490958095709561957F4F1B
:101880008F4F9F4F0895E89409C097FB3EF49095C1
:101890008095709561957F4F8F4F9F4F9923A9F049
:1018A000F92F96E9BB279395F695879577956795D8
:1018B000B795F111F8CFFAF4BB0F11F460FF1BC01C
:1018C0006F5F7F4F8F4F9F4F16C0882311F096E9AF
:1018D00011C0772321F09EE8872F762F05C066235D
:1018E00071F096E8862F70E060E02AF09A95660F16
:1018F000771F881FDAF7880F9695879597F90895CF
:10190000990F0008550FAA0BE0E8FEEF1616170610
:10191000E807F907C0F012161306E407F50798F078
:10192000621B730B840B950B39F40A2661F0232B91
:10193000242B252B21F408950A2609F4A140A6950D
:101940008FEF811D811D089557FD9058440F551F3D
:1019500059F05F3F71F04795880F97FB991F61F031
:101960009F3F79F087950895121613061406551FA8
:10197000F2CF4695F1DF08C0161617061806991F14
:10198000F1CF86957105610508940895E894BB2709
:1019900066277727CB0197F908950E94800C08F4F9
:1019A0008FEF08950E94E50C0C94560D0E94480D8F
:1019B00038F00E944F0D20F0952311F00C943F0D4C
:1019C0000C94450D11240C94C70C0E94A40C70F3C8
:1019D000959FC1F3950F50E0551F629FF001729FD4
:1019E000BB27F00DB11D639FAA27F00DB11DAA1FE3
:1019F000649F6627B00DA11D661F829F2227B00D30
:101A0000A11D621F739FB00DA11D621F839FA00DBA
:101A1000611D221F749F3327A00D611D231F849F0A
:101A2000600D211D822F762F6A2F11249F57504061
:101A30009AF0F1F088234AF0EE0FFF1FBB1F661FDC
:101A4000771F881F91505040A9F79E3F510580F0A5
:101A50000C943F0D0C94C70C5F3FE4F3983ED4F315
:101A6000869577956795B795F795E7959F5FC1F749
:101A7000FE2B880F911D9695879597F9089597F9F4
:101A80009F6780E870E060E008959FEF80EC089524
:101A900000240A941616170618060906089500244D
:101AA0000A9412161306140605060895092E0394C7
:101AB000000C11F4882352F0BB0F40F4BF2B11F43B
:101AC00060FF04C06F5F7F4F8F4F9F4F0895F89462
:021AD000FFCF46
:101AD200010003FF9FFF25FF0DFF99FF49FF41FF13
:101AE2001FFF01FF09FF11FFC1FF63FF85FF61FFB8
:021AF20071FF82
:00000001FF
