:100000000C9472000C9486000C9486000C9486006C
:100010000C9486000C9486000C9486000C94860048
:100020000C9486000C9486000C9486000C94860038
:100030000C9486000C9486000C9486000C94860028
:100040000C9486000C9486000C9486000C94860018
:100050000C9486000C9486000C9486000C94860008
:100060000C9486000C9486000C9486000C948600F8
:100070000C9486000C9486000C9486000C948600E8
:100080000C9486000C9486000C9486000C948600D8
:100090000C9486000C9486000C9486000C948600C8
:1000A0000C9486000C9486000C9486000C948600B8
:1000B0000C9486000C9486000C9486000C948600A8
:1000C0000C9486000C9486000C9486000C94860098
:1000D0000C9486000C9486000C9486000C94860088
:1000E0000C94860011241FBECFEFD1E2DEBFCDBF3E
:1000F00000E00CBF22E0A0E0B2E001C01D92A230FF
:10010000B207E1F70E9488000C949B030C94000056
:10011000CF93DF93CDB7DEB70E94FD000E94170199
:100120000000FCCFCF93DF93CDB7DEB784E290E041
:10013000FC01208184E290E0206AFC01208385E2BA
:1001400090E0FC01208185E290E02F77FC01208384
:100150000000DF91CF910895CF93DF93CDB7DEB745
:100160008FE290E0FC018081882F90E082709927D7
:10017000009751F484E290E0FC01208184E290E059
:100180002068FC01208309C084E290E0FC0120810A
:1001900084E290E02F77FC0120830000DF91CF9173
:1001A0000895CF93DF93CDB7DEB784E290E0FC01F2
:1001B000208184E290E0206CFC0120830000DF912C
:1001C000CF910895CF93DF93CDB7DEB78FE290E064
:1001D000FC018081882F90E084709927009749F472
:1001E00085E290E0FC01208185E290E02064FC0142
:1001F00020830000DF91CF910895CF93DF93CDB797
:10020000DEB784E290E0FC01208184E290E0206986
:10021000FC01208385E290E0FC01208185E290E0F2
:100220002061FC0120830000DF91CF910895CF93DE
:10023000DF93CDB7DEB7C454D1090FB6F894DEBF53
:100240000FBECDBF8FE290E0DC018C91882F90E053
:1002500084709927009709F0A7C0809100029091BF
:100260000102009709F041C185E290E0FC01308174
:1002700085E290E020E12327DC012C9380E090E0F0
:10028000A0EAB1E489839A83AB83BC8320E030E0A9
:100290004AE755E469817A818B819C810E9406033B
:1002A0006DA37EA38FA398A78DA19EA1AFA1B8A592
:1002B0008D839E83AF83B88720E030E040E85FE322
:1002C0006D817E818F8198850E94800288232CF425
:1002D00081E090E09A87898755C020E03FEF4FE7A3
:1002E00057E46D817E818F8198850E940103882368
:1002F000D9F1D4F120E030E040E251E469817A8123
:100300008B819C810E94060369A77AA78BA79CA773
:1003100089A59AA5ABA5BCA58D8F9E8FAF8FB8A3DD
:100320006D8D7E8D8F8D98A10E9485026DA77EA711
:100330008FA798ABADA5BEA5BA87A98710C080E9E5
:1003400091E09C878B878B859C850197F1F79C8733
:100350008B87000089859A8501979A878987898587
:100360009A85009761F719C06D817E818F8198858C
:100370000E94850269AB7AAB8BAB9CABE9A9FAA969
:10038000FA87E98789859A859E878D878D859E85E1
:100390000197F1F79E878D87000081E090E09093B0
:1003A000010280930002A1C080910002909101029D
:1003B000009709F49AC0109201021092000280E0A6
:1003C00090E0A0EAB1E48F87988BA98BBA8B20E0EC
:1003D00030E04AE755E46F85788989899A890E94D7
:1003E00006036DAB7EAB8FAB98AF8DA99EA9AFA96D
:1003F000B8AD8B8B9C8BAD8BBE8B20E030E040E8A2
:100400005FE36B897C898D899E890E9480028823A5
:100410002CF481E090E0988F8F8B5CC020E03FEF60
:100420004FE757E46B897C898D899E890E9401037F
:10043000882309F00CF43CC020E030E040E251E4B5
:100440006F85788989899A890E94060369AF7AAF96
:100450008BAF9CAF89AD9AADABADBCAD89A39AA370
:10046000ABA3BCA369A17AA18BA19CA10E94850228
:1004700021966CAF7DAF8EAF9FAF2197ADADBEAD76
:10048000B88FAF8B10C080E991E09A8F898F898DEA
:100490009A8D0197F1F79A8F898F00008F89988D37
:1004A0000197988F8F8B8F89988D009761F71DC06A
:1004B0006B897C898D899E890E94850225966CAF07
:1004C0007DAF8EAF9FAF25972396EEADFFAD2397FF
:1004D000F88FEF8B8F89988D9C8F8B8F8B8D9C8D58
:1004E0000197F1F79C8F8B8F00000000CC5BDF4FF2
:1004F0000FB6F894DEBF0FBECDBFDF91CF91089548
:100500000E94B40208F481E008950E94E00288F09D
:100510009F5798F0B92F9927B751B0F0E1F0660FC7
:10052000771F881F991F1AF0BA95C9F714C0B13008
:1005300091F00E94FA02B1E008950C94FA02672F3C
:10054000782F8827B85F39F0B93FCCF38695779537
:100550006795B395D9F73EF4909580957095619520
:100560007F4F8F4F9F4F0895990F0008550FAA0B8B
:10057000E0E8FEEF16161706E807F907C0F01216B6
:100580001306E407F50798F0621B730B840B950BB9
:1005900039F40A2661F0232B242B252B21F408950E
:1005A0000A2609F4A140A6958FEF811D811D0895AB
:1005B00057FD9058440F551F59F05F3F71F0479514
:1005C000880F97FB991F61F09F3F79F087950895F9
:1005D000121613061406551FF2CF4695F1DF08C018
:1005E000161617061806991FF1CF86957105610535
:1005F00008940895E894BB2766277727CB0197F9DD
:1006000008950E94B40208F48FEF08950E94190320
:100610000C948A030E947C0338F00E94830320F02C
:10062000952311F00C9473030C94790311240C940A
:10063000FB020E94D80270F3959FC1F3950F50E022
:10064000551F629FF001729FBB27F00DB11D639F84
:10065000AA27F00DB11DAA1F649F6627B00DA11D2A
:10066000661F829F2227B00DA11D621F739FB00DD0
:10067000A11D621F839FA00D611D221F749F332740
:10068000A00D611D231F849F600D211D822F762FD9
:100690006A2F11249F5750409AF0F1F088234AF0B6
:1006A000EE0FFF1FBB1F661F771F881F9150504022
:1006B000A9F79E3F510580F00C9473030C94FB0244
:1006C0005F3FE4F3983ED4F3869577956795B795A9
:1006D000F795E7959F5FC1F7FE2B880F911D9695C3
:1006E000879597F9089597F99F6780E870E060E033
:1006F00008959FEF80EC089500240A9416161706BB
:1007000018060906089500240A9412161306140602
:1007100005060895092E0394000C11F4882352F065
:10072000BB0F40F4BF2B11F460FF04C06F5F7F4F1D
:0A0730008F4F9F4F0895F894FFCFFC
:00000001FF
