:100000000C9472000C948B000C948B000C948B005D
:100010000C948B000C948B000C948B000C948B0034
:100020000C948B000C948B000C948B000C948B0024
:100030000C948B000C948B000C948B000C948B0014
:100040000C948B000C948B000C948B000C948B0004
:100050000C948B000C948B000C948B000C948B00F4
:100060000C948B000C948B000C948B000C948B00E4
:100070000C948B000C948B000C948B000C948B00D4
:100080000C948B000C948B000C948B000C948B00C4
:100090000C948B000C948B000C948B000C948B00B4
:1000A0000C948B000C948B000C948B000C948B00A4
:1000B0000C948B000C948B000C948B000C948B0094
:1000C0000C948B000C948B000C948B000C948B0084
:1000D0000C948B000C948B000C948B000C948B0074
:1000E0000C948B0011241FBECFEFD1E2DEBFCDBF39
:1000F00000E00CBF12E0A0E0B2E0EAE3FAE000E0CA
:100100000BBF02C007900D92A032B107D9F70E9431
:100110008D020C941B050C940000CF93DF93CDB798
:10012000DEB781E091E0FC01208181E091E0206276
:10013000FC01208381E091E0FC01208181E091E0DD
:100140002061FC01208383E390E0FC01208183E3B4
:1001500090E02062FC01208382E091E0FC0120819C
:1001600082E091E02F7EFC01208384E390E0FC019B
:10017000208184E390E02F7DFC0120830E945202C5
:100180000000DF91CF910895CF93DF9300D00F92BD
:100190000F92CDB7DEB78D831A82198239C08D8157
:1001A000082E000C990B817099279C838B838D817D
:1001B00085958D838B819C81009751F082E091E041
:1001C000FC01208182E091E02062FC01208309C0D3
:1001D00082E091E0FC01208182E091E02F7DFC0132
:1001E000208382E091E0FC01208182E091E02061A7
:1001F000FC01208382E091E0FC01208182E091E01B
:100200002F7EFC01208389819A8101969A838983BC
:1002100089819A818730910511F208F2000000006F
:100220000F900F900F900F900F90DF91CF91089546
:10023000CF93DF930F920F92CDB7DEB79A83898366
:1002400080E190E0098002C0880F991F0A94E2F7CC
:100250000E94C40000000F900F90DF91CF9108958D
:10026000CF93DF9300D0CDB7DEB789837B836A83DA
:1002700089810E94C4008A819B810E94180184E3C5
:1002800090E0FC01208184E390E02062FC01208367
:1002900084E390E0FC01208184E390E02F7DFC0169
:1002A000208300000F900F900F90DF91CF91089561
:1002B000CF93DF93CDB7DEB7A6970FB6F894DEBF26
:1002C0000FBECDBF9A8B898B1A821982CCC0498907
:1002D0005A899A01ADECBCEC0E94E6039C0136956C
:1002E00027953695279536952795C901880F991F2B
:1002F000880F991F820F931F880F991F9A01281B3F
:10030000390BC901880F991F80509E4FDC018D91D8
:100310009C91282F89819A81BC01822F0E943001F3
:1003200089899A899C01ADECBCEC0E94E603969504
:10033000879596958795969587959A8B898B80E07A
:1003400090E0A0E8BFE38B839C83AD83BE8320E075
:1003500030E04AE755E46B817C818D819E810E946B
:1003600086046F8B788F898F9A8F8F89988DA98D4E
:10037000BA8D8F839887A987BA8720E030E040E85C
:100380005FE36F81788589859A850E9400048823C0
:100390002CF481E090E09C878B8755C020E03FEFF4
:1003A0004FE757E46F81788589859A850E9481049B
:1003B0008823D9F1D4F120E030E040E251E46B81B0
:1003C0007C818D819E810E9486046B8F7C8F8D8FB6
:1003D0009E8F8B8D9C8DAD8DBE8D8B8B9C8BAD8BB5
:1003E000BE8B6B897C898D899E890E9405046F8FE5
:1003F00078A389A39AA3AF8DB8A1BC87AB8710C09F
:1004000080E991E09E878D878D859E850197F1F724
:100410009E878D8700008B859C8501979C878B87A5
:100420008B859C85009761F719C06F8178858985D8
:100430009A850E9405046BA37CA38DA39EA3EBA1C8
:10044000FCA1FC87EB878B859C85988B8F878F859C
:1004500098890197F1F7988B8F87000089819A819D
:1004600001969A83898389819A818330910509F065
:100470000CF42DCF00000000A6960FB6F894DEBF56
:100480000FBECDBFDF91CF910895CF93DF93CDB74E
:10049000DEB760E070E08FEF0E9430010000DF9176
:1004A000CF910895CF93DF93CDB7DEB78CE790E07F
:1004B00020E4FC0120838AE790E023E0FC01208314
:1004C0008AE790E0FC0120818AE790E02068FC0147
:1004D00020830000DF91CF910895CF93DF93CDB7B4
:1004E000DEB78AE790E0FC0120818AE790E0206493
:1004F000FC01208300008AE790E0FC018081882FC6
:1005000090E0807499270097B1F788E790E0FC01AC
:1005100080819181DF91CF910895CF93DF9300D0B7
:1005200000D00F920F92CDB7DEB70E948D000E94CF
:100530006D029A83898389819A81AC01990F660B38
:10054000770B88E893E1DC019A01AB010E94F50387
:100550006D837E838F8398878D819E81AF81B885DF
:10056000072E7AE0B695A795979587957A95D1F756
:10057000702D9C838B838B819C81883E23E0920726
:1005800069F064F08B819C81873B2BE0920709F036
:100590002CF48B819C810E94580102C00E9445026C
:1005A000C6CFCF93DF93CDB7DEB784E290E0FC01F6
:1005B000208184E290E02066FC0120830000DF912E
:1005C000CF910895CF93DF93CDB7DEB78FE290E060
:1005D000FC018081882F90E082709927009751F468
:1005E00085E290E0FC01208185E290E02062FC0140
:1005F000208309C085E290E0FC01208185E290E043
:100600002F7DFC0120830000DF91CF910895CF93CF
:10061000DF93CDB7DEB784E290E0FC01208184E275
:1006200090E02069FC01208385E290E0FC012081BC
:1006300085E290E02068FC0120830000DF91CF91EB
:100640000895CF93DF93CDB7DEB78FE290E0FC0142
:100650008081882F90E088709927009749F485E27F
:1006600090E0FC01208185E290E02F77FC0120835F
:100670000000DF91CF910895CF93DF93CDB7DEB720
:1006800084E290E0FC01208184E290E0206DFC0196
:10069000208385E290E0FC01208185E290E02061EA
:1006A000FC0120830000DF91CF910895CF93DF9369
:1006B0000F920F92CDB7DEB71A82198204C081E083
:1006C00090E09A8389838FE290E0FC018081882FFB
:1006D00090E084709927009791F389819A8100971F
:1006E00051F085E290E0FC01308185E290E020E469
:1006F0002327FC01208300000F900F90DF91CF9102
:100700000895CF93DF93CDB7DEB70E948D030E948B
:100710009E030000DF91CF910895CF93DF93CDB773
:10072000DEB784E290E0FC01208184E290E0206268
:10073000FC0120830000DF91CF910895CF93DF93D8
:10074000CDB7DEB780EA90E0FC01108281EA90E04C
:1007500024E0FC01208382EA90E0FC01108284EA1C
:1007600090E02DE138E4FC01318320830000DF912B
:10077000CF910895CF93DF93CDB7DEB789E390E0B3
:10078000FC018081882F90E0817099270097D1F03B
:1007900085E290E0FC01308185E290E020E22327B1
:1007A000FC01208389E390E0FC01208189E390E053
:1007B0002160FC01208384EA90E02DE138E4FC0113
:1007C000318320830000DF91CF910895A29FB00173
:1007D000B39FC001A39F700D811D1124911DB29F75
:1007E000700D811D1124911D08950E94E603A59F9F
:1007F000900DB49F900DA49F800D911D112408951C
:100800000E94340408F481E008950E94600488F096
:100810009F5798F0B92F9927B751B0F0E1F0660FC4
:10082000771F881F991F1AF0BA95C9F714C0B13005
:1008300091F00E947A04B1E008950C947A04672F35
:10084000782F8827B85F39F0B93FCCF38695779534
:100850006795B395D9F73EF490958095709561951D
:100860007F4F8F4F9F4F0895990F0008550FAA0B88
:10087000E0E8FEEF16161706E807F907C0F01216B3
:100880001306E407F50798F0621B730B840B950BB6
:1008900039F40A2661F0232B242B252B21F408950B
:1008A0000A2609F4A140A6958FEF811D811D0895A8
:1008B00057FD9058440F551F59F05F3F71F0479511
:1008C000880F97FB991F61F09F3F79F087950895F6
:1008D000121613061406551FF2CF4695F1DF08C015
:1008E000161617061806991FF1CF86957105610532
:1008F00008940895E894BB2766277727CB0197F9DA
:1009000008950E94340408F48FEF08950E9499041A
:100910000C940A050E94FC0438F00E94030520F0A4
:10092000952311F00C94F3040C94F90411240C9405
:100930007B040E94580470F3959FC1F3950F50E01B
:10094000551F629FF001729FBB27F00DB11D639F81
:10095000AA27F00DB11DAA1F649F6627B00DA11D27
:10096000661F829F2227B00DA11D621F739FB00DCD
:10097000A11D621F839FA00D611D221F749F33273D
:10098000A00D611D231F849F600D211D822F762FD6
:100990006A2F11249F5750409AF0F1F088234AF0B3
:1009A000EE0FFF1FBB1F661F771F881F915050401F
:1009B000A9F79E3F510580F00C94F3040C947B043E
:1009C0005F3FE4F3983ED4F3869577956795B795A6
:1009D000F795E7959F5FC1F7FE2B880F911D9695C0
:1009E000879597F9089597F99F6780E870E060E030
:1009F00008959FEF80EC089500240A9416161706B8
:100A000018060906089500240A94121613061406FF
:100A100005060895092E0394000C11F4882352F062
:100A2000BB0F40F4BF2B11F460FF04C06F5F7F4F1A
:0A0A30008F4F9F4F0895F894FFCFF9
:100A3A0003FF9FFF25FF0DFF99FF49FF41FF1FFF9E
:100A4A0001FF09FF11FFC1FF63FF85FF61FF71FF0E
:00000001FF
