:100000000C9472000C948B000C948B000C948B005D
:100010000C948B000C948B000C948B000C948B0034
:100020000C948B000C948B000C948B000C948B0024
:100030000C948B000C948B000C948B000C948B0014
:100040000C948B000C948B000C948B000C948B0004
:100050000C948B000C948B000C948B000C948B00F4
:100060000C948B000C948B000C948B000C948B00E4
:100070000C948B000C948B000C948B000C948B00D4
:100080000C948B000C948B000C948B000C948B00C4
:100090000C948B000C948B000C948B000C948B00B4
:1000A0000C948B000C948B000C948B000C948B00A4
:1000B0000C948B000C948B000C948B000C948B0094
:1000C0000C948B000C948B000C948B000C948B0084
:1000D0000C948B000C948B000C948B000C948B0074
:1000E0000C948B0011241FBECFEFD1E2DEBFCDBF39
:1000F00000E00CBF12E0A0E0B2E0EEE9F6E000E0C4
:100100000BBF02C007900D92A032B107D9F70E9431
:1001100027020C944D030C940000CF93DF93CDB7CE
:10012000DEB781E091E0FC01208181E091E0206276
:10013000FC01208381E091E0FC01208181E091E0DD
:100140002061FC01208383E390E0FC01208183E3B4
:1001500090E02062FC01208382E091E0FC0120819C
:1001600082E091E02F7EFC01208384E390E0FC019B
:10017000208184E390E02F7DFC0120830000DF914B
:10018000CF910895CF93DF9300D00F920F92CDB708
:10019000DEB78D831A82198239C08D81082E000C3A
:1001A000990B817099279C838B838D8185958D8395
:1001B0008B819C81009751F082E091E0FC012081CD
:1001C00082E091E02062FC01208309C082E091E09E
:1001D000FC01208182E091E02F7DFC01208382E000
:1001E00091E0FC01208182E091E02061FC0120830C
:1001F00082E091E0FC01208182E091E02F7EFC0111
:10020000208389819A8101969A83898389819A8141
:100210008730910511F208F2000000000F900F9056
:100220000F900F900F90DF91CF910895CF93DF93B0
:100230000F920F92CDB7DEB79A83898380E190E069
:10024000098002C0880F991F0A94E2F70E94C20039
:1002500000000F900F90DF91CF910895CF93DF931F
:1002600000D0CDB7DEB789837B836A8389810E9402
:10027000C2008A819B810E94160184E390E0FC0108
:10028000208184E390E02062FC01208384E390E0FD
:10029000FC01208184E390E02F7DFC01208300009D
:1002A0000F900F900F90DF91CF910895CF93DF9330
:1002B000CDB7DEB7A6970FB6F894DEBF0FBECDBFA1
:1002C0009A8B898B1A821982B0C089899A898F701A
:1002D0009927880F991F80509E4FDC018D919C912A
:1002E000282F89819A81BC01822F0E942E01898941
:1002F0009A89929582958F7089279F7089279A8B0A
:10030000898B80E090E0A0E8BFE38B839C83AD8382
:10031000BE8320E030E04AE755E46B817C818D812B
:100320009E810E94B8026F8B788F898F9A8F8F89F8
:10033000988DA98DBA8D8F839887A987BA8720E079
:1003400030E040E85FE36F81788589859A850E9477
:10035000320288232CF481E090E09C878B8755C083
:1003600020E03FEF4FE757E46F81788589859A85D4
:100370000E94B3028823D9F1D4F120E030E040E2BA
:1003800051E46B817C818D819E810E94B8026B8FCC
:100390007C8F8D8F9E8F8B8D9C8DAD8DBE8D8B8B2D
:1003A0009C8BAD8BBE8B6B897C898D899E890E94CD
:1003B00037026F8F78A389A39AA3AF8DB8A1BC87AA
:1003C000AB8710C080E991E09E878D878D859E85E3
:1003D0000197F1F79E878D8700008B859C8501979B
:1003E0009C878B878B859C85009761F719C06F81EF
:1003F000788589859A850E9437026BA37CA38DA39B
:100400009EA3EBA1FCA1FC87EB878B859C85988B39
:100410008F878F8598890197F1F7988B8F870000D8
:1004200089819A8101969A83898389819A8183300F
:10043000910509F00CF449CF00000000A6960FB614
:10044000F894DEBF0FBECDBFDF91CF910895CF935B
:10045000DF93CDB7DEB70E948D0085E595E50E945C
:100460005601FBCF0E94660208F481E008950E94C5
:10047000920288F09F5798F0B92F9927B751B0F0A2
:10048000E1F0660F771F881F991F1AF0BA95C9F718
:1004900014C0B13091F00E94AC02B1E008950C9408
:1004A000AC02672F782F8827B85F39F0B93FCCF3BB
:1004B000869577956795B395D9F73EF49095809595
:1004C000709561957F4F8F4F9F4F0895990F00084A
:1004D000550FAA0BE0E8FEEF16161706E807F90716
:1004E000C0F012161306E407F50798F0621B730BB1
:1004F000840B950B39F40A2661F0232B242B252B32
:1005000021F408950A2609F4A140A6958FEF811DD4
:10051000811D089557FD9058440F551F59F05F3FB6
:1005200071F04795880F97FB991F61F09F3F79F015
:1005300087950895121613061406551FF2CF469597
:10054000F1DF08C0161617061806991FF1CF869519
:100550007105610508940895E894BB2766277727FD
:10056000CB0197F908950E94660208F48FEF089571
:100570000E94CB020C943C030E942E0338F00E9490
:10058000350320F0952311F00C9425030C942B03D4
:1005900011240C94AD020E948A0270F3959FC1F35E
:1005A000950F50E0551F629FF001729FBB27F00D21
:1005B000B11D639FAA27F00DB11DAA1F649F662776
:1005C000B00DA11D661F829F2227B00DA11D621FC5
:1005D000739FB00DA11D621F839FA00D611D221F7F
:1005E000749F3327A00D611D231F849F600D211D63
:1005F000822F762F6A2F11249F5750409AF0F1F0E6
:1006000088234AF0EE0FFF1FBB1F661F771F881F4E
:1006100091505040A9F79E3F510580F00C9425035E
:100620000C94AD025F3FE4F3983ED4F38695779542
:100630006795B795F795E7959F5FC1F7FE2B880FF4
:10064000911D9695879597F9089597F99F6780E88A
:1006500070E060E008959FEF80EC089500240A9414
:100660001616170618060906089500240A9412168D
:100670001306140605060895092E0394000C11F4C0
:10068000882352F0BB0F40F4BF2B11F460FF04C06D
:0E0690006F5F7F4F8F4F9F4F0895F894FFCFFD
:10069E0003FF9FFF25FF0DFF99FF49FF41FF1FFF3E
:1006AE0001FF09FF11FFC1FF63FF85FF61FF71FFAE
:00000001FF
