:100000000C9472000C947E000C947E000C947E0084
:100010000C947E000C947E000C947E000C947E0068
:100020000C947E000C947E000C947E000C947E0058
:100030000C947E000C947E000C947E000C947E0048
:100040000C947E000C947E000C947E000C947E0038
:100050000C947E000C947E000C947E000C947E0028
:100060000C947E000C947E000C947E000C947E0018
:100070000C947E000C947E000C947E000C947E0008
:100080000C947E000C947E000C947E000C947E00F8
:100090000C947E000C947E000C947E000C947E00E8
:1000A0000C947E000C947E000C947E000C947E00D8
:1000B0000C947E000C947E000C947E000C947E00C8
:1000C0000C947E000C947E000C947E000C947E00B8
:1000D0000C947E000C947E000C947E000C947E00A8
:1000E0000C947E0011241FBECFEFD1E2DEBFCDBF46
:1000F00000E00CBF0E9480000C94C7000C9400002C
:10010000CF93DF93CDB7DEB784E290E0FC0120818E
:1001100084E290E02068FC01208385E290E0FC010D
:10012000208185E290E02068FC01208380E890E057
:10013000FC01108281E890E024E0FC01208384E847
:1001400090E02EEE35E8FC013183208386E390E0D9
:10015000FC018081882F90E0817099270097B1F38E
:1001600084E890E02EEE35E8FC013183208386E3BD
:1001700090E021E0FC01208385E290E0FC013081E9
:1001800085E290E020E82327FC012083DFCFF8946C
:02019000FFCF9F
:00000001FF
