:100000000C9472000C947E000C947E000C947E0084
:100010000C947E000C947E000C947E000C947E0068
:100020000C947E000C947E000C947E000C947E0058
:100030000C947E000C947E000C947E000C947E0048
:100040000C947E000C947E000C947E000C947E0038
:100050000C947E000C947E000C947E000C947E0028
:100060000C947E000C947E000C947E000C947E0018
:100070000C947E000C947E000C947E000C947E0008
:100080000C947E000C947E000C947E000C947E00F8
:100090000C947E000C947E000C947E000C947E00E8
:1000A0000C947E000C947E000C947E000C947E00D8
:1000B0000C947E000C947E000C947E000C947E00C8
:1000C0000C947E000C947E000C947E000C947E00B8
:1000D0000C947E000C947E000C947E000C947E00A8
:1000E0000C947E0011241FBECFEFD1E2DEBFCDBF46
:1000F00000E00CBF0E9480000C941D030C940000D3
:10010000CF93DF93CDB7DEB7C654D1090FB6F894BD
:10011000DEBF0FBECDBF84E290E0DC012C9184E213
:1001200090E0206FFC01208385E290E0DC012C91BF
:1001300085E290E02063FC01208380E390E0DC0115
:100140002C9180E390E0277FFC01208381E390E005
:10015000DC012C9181E390E02860FC0120831A826D
:1001600019828FE290E0DC018C91882F90E08870FA
:100170009927009709F09FC080E090E0A8E4B2E4DE
:100180008B839C83AD83BE8320E030E04AE755E457
:100190006B817C818D819E810E9488026FA378A7EC
:1001A00089A79AA78FA198A5A9A5BAA58F83988793
:1001B000A987BA8720E030E040E85FE36F81788567
:1001C00089859A850E94020288232CF481E090E0C0
:1001D0009C878B8755C020E03FEF4FE757E46F8146
:1001E000788589859A850E9483028823D9F1D4F184
:1001F00020E030E040E251E46B817C818D819E8182
:100200000E9488026BA77CA78DA79EA78BA59CA5A3
:10021000ADA5BEA58F8F98A3A9A3BAA36F8D78A112
:1002200089A19AA10E9407026FA778AB89AB9AAB0C
:10023000AFA5B8A9BC87AB8710C080E991E09E87C5
:100240008D878D859E850197F1F79E878D870000AC
:100250008B859C8501979C878B878B859C850097D8
:1002600061F719C06F81788589859A850E94070298
:100270006BAB7CAB8DAB9EABEBA9FCA9FC87EB8792
:100280008B859C85988B8F878F8598890197F1F74F
:10029000988B8F87000000008FE290E0DC018C914A
:1002A000882F90E0887099270097B1F389819A810F
:1002B00001969A83898389819A818230910549F4D4
:1002C00085E290E0FC01208185E290E02F7EDC0158
:1002D0002C9380E090E0A8E4B2E4898B9A8BAB8BFE
:1002E000BC8B20E030E04AE755E469897A898B8944
:1002F0009C890E9488026FAB78AF89AF9AAF8FA9B3
:1003000098ADA9ADBAAD8D8B9E8BAF8BB88F20E029
:1003100030E040E85FE36D897E898F89988D0E9487
:10032000020288232CF481E090E09A8F898F5EC0CE
:1003300020E03FEF4FE757E46D897E898F89988DE4
:100340000E948302882309F00CF43EC020E030E0D4
:1003500040E251E469897A898B899C890E948802EC
:100360006BAF7CAF8DAF9EAF8BAD9CADADADBEAD79
:100370008BA39CA3ADA3BEA36BA17CA18DA19EA1C9
:100380000E94070223966CAF7DAF8EAF9FAF23977D
:100390002196AEADBFAD2197BA8FA98F10C080E96D
:1003A00091E09C8F8B8F8B8D9C8D0197F1F79C8FAB
:1003B0008B8F0000898D9A8D01979A8F898F898DF7
:1003C0009A8D009761F71DC06D897E898F89988D00
:1003D0000E94070227966CAF7DAF8EAF9FAF279725
:1003E0002596EEADFFAD2597FA8FE98F898D9A8D11
:1003F0009E8F8D8F8D8D9E8D0197F1F79E8F8D8FA6
:100400000000AFCE0E94360208F481E008950E94F9
:10041000620288F09F5798F0B92F9927B751B0F032
:10042000E1F0660F771F881F991F1AF0BA95C9F778
:1004300014C0B13091F00E947C02B1E008950C9498
:100440007C02672F782F8827B85F39F0B93FCCF34B
:10045000869577956795B395D9F73EF490958095F5
:10046000709561957F4F8F4F9F4F0895990F0008AA
:10047000550FAA0BE0E8FEEF16161706E807F90776
:10048000C0F012161306E407F50798F0621B730B11
:10049000840B950B39F40A2661F0232B242B252B92
:1004A00021F408950A2609F4A140A6958FEF811D35
:1004B000811D089557FD9058440F551F59F05F3F17
:1004C00071F04795880F97FB991F61F09F3F79F076
:1004D00087950895121613061406551FF2CF4695F8
:1004E000F1DF08C0161617061806991FF1CF86957A
:1004F0007105610508940895E894BB27662777275E
:10050000CB0197F908950E94360208F48FEF089501
:100510000E949B020C940C030E94FE0238F00E9481
:10052000050320F0952311F00C94F5020C94FB02C6
:1005300011240C947D020E945A0270F3959FC1F31E
:10054000950F50E0551F629FF001729FBB27F00D81
:10055000B11D639FAA27F00DB11DAA1F649F6627D6
:10056000B00DA11D661F829F2227B00DA11D621F25
:10057000739FB00DA11D621F839FA00D611D221FDF
:10058000749F3327A00D611D231F849F600D211DC3
:10059000822F762F6A2F11249F5750409AF0F1F046
:1005A00088234AF0EE0FFF1FBB1F661F771F881FAF
:1005B00091505040A9F79E3F510580F00C94F502F0
:1005C0000C947D025F3FE4F3983ED4F386957795D3
:1005D0006795B795F795E7959F5FC1F7FE2B880F55
:1005E000911D9695879597F9089597F99F6780E8EB
:1005F00070E060E008959FEF80EC089500240A9475
:100600001616170618060906089500240A941216ED
:100610001306140605060895092E0394000C11F420
:10062000882352F0BB0F40F4BF2B11F460FF04C0CD
:0E0630006F5F7F4F8F4F9F4F0895F894FFCF5D
:00000001FF
