:100000000C9472000C947E000C947E000C947E0084
:100010000C947E000C947E000C947E000C947E0068
:100020000C947E000C947E000C947E000C947E0058
:100030000C947E000C947E000C947E000C947E0048
:100040000C947E000C947E000C947E000C947E0038
:100050000C947E000C947E000C947E000C947E0028
:100060000C947E000C947E000C947E000C947E0018
:100070000C947E000C947E000C947E000C947E0008
:100080000C947E000C947E000C947E000C947E00F8
:100090000C947E000C947E000C947E000C947E00E8
:1000A0000C947E000C947E000C947E000C947E00D8
:1000B0000C947E000C947E000C947E000C947E00C8
:1000C0000C947E000C947E000C947E000C947E00B8
:1000D0000C947E000C947E000C947E000C947E00A8
:1000E0000C947E0011241FBECFEFD1E2DEBFCDBF46
:1000F00000E00CBF0E9480000C948A020C94000067
:10010000CF93DF93CDB7DEB7A2970FB6F894DEBFDB
:100110000FBECDBF84E290E0DC012C9184E290E040
:10012000206FFC01208385E290E0DC012C9185E2C8
:1001300090E02064FC01208381E390E0DC012C91BD
:1001400081E390E02660FC01208385E290E0DC0101
:100150002C9185E290E02F7CFC0120838FE290E0DF
:10016000DC018C91882F90E082709927009751F4E0
:1001700085E290E0FC01208185E290E02F77DC01B0
:100180002C931DC08FE290E0FC018081882F90E0CD
:1001900084709927009751F485E290E0DC012C915E
:1001A00085E290E02F7BFC01208309C085E290E08E
:1001B000DC012C9185E290E02068FC01208380E046
:1001C00090E0A8E4B2E489839A83AB83BC8320E007
:1001D00030E04AE755E469817A818B819C810E94F5
:1001E000F5016B8B7C8B8D8B9E8B8B899C89AD896C
:1001F000BE898D839E83AF83B88720E030E040E8DE
:100200005FE36D817E818F8198850E946F018823D5
:100210002CF481E090E09A87898755C020E03FEF79
:100220004FE757E46D817E818F8198850E94F001B0
:100230008823D9F1D4F120E030E040E251E4698133
:100240007A818B819C810E94F5016F8B788F898FD9
:100250009A8F8F89988DA98DBA8D8F87988BA98B4E
:10026000BA8B6F85788989899A890E9474016B8F0E
:100270007C8F8D8F9E8FAB8DBC8DBA87A98710C068
:1002800080E991E09C878B878B859C850197F1F7AE
:100290009C878B87000089859A8501979A87898733
:1002A00089859A85009761F719C06D817E818F815C
:1002B00098850E9474016F8F78A389A39AA3EF8D0C
:1002C000F8A1FA87E98789859A859E878D878D852C
:1002D0009E850197F1F79E878D87000036CF0E949B
:1002E000A30108F481E008950E94CF0188F09F5790
:1002F00098F0B92F9927B751B0F0E1F0660F771F4A
:10030000881F991F1AF0BA95C9F714C0B13091F03F
:100310000E94E901B1E008950C94E901672F782F5C
:100320008827B85F39F0B93FCCF386957795679504
:10033000B395D9F73EF490958095709561957F4F70
:100340008F4F9F4F0895990F0008550FAA0BE0E8B3
:10035000FEEF16161706E807F907C0F01216130687
:10036000E407F50798F0621B730B840B950B39F4C7
:100370000A2661F0232B242B252B21F408950A262D
:1003800009F4A140A6958FEF811D811D089557FDA9
:100390009058440F551F59F05F3F71F04795880FF3
:1003A00097FB991F61F09F3F79F08795089512168A
:1003B00013061406551FF2CF4695F1DF08C0161636
:1003C00017061806991FF1CF8695710561050894E7
:1003D0000895E894BB2766277727CB0197F90895FE
:1003E0000E94A30108F48FEF08950E9408020C9464
:1003F00079020E946B0238F00E94720220F095236D
:1004000011F00C9462020C94680211240C94EA011D
:100410000E94C70170F3959FC1F3950F50E0551FDF
:10042000629FF001729FBB27F00DB11D639FAA2749
:10043000F00DB11DAA1F649F6627B00DA11D661F98
:10044000829F2227B00DA11D621F739FB00DA11DB9
:10045000621F839FA00D611D221F749F3327A00D73
:10046000611D231F849F600D211D822F762F6A2F0F
:1004700011249F5750409AF0F1F088234AF0EE0F74
:10048000FF1FBB1F661F771F881F91505040A9F7A1
:100490009E3F510580F00C9462020C94EA015F3F8C
:1004A000E4F3983ED4F3869577956795B795F795DD
:1004B000E7959F5FC1F7FE2B880F911D9695879555
:1004C00097F9089597F99F6780E870E060E00895D4
:1004D0009FEF80EC089500240A941616170618065C
:1004E0000906089500240A94121613061406050638
:1004F0000895092E0394000C11F4882352F0BB0FC9
:1005000040F4BF2B11F460FF04C06F5F7F4F8F4F2B
:080510009F4F0895F894FFCFFE
:00000001FF
