:100000000C9472000C9486000C9486000C9486006C
:100010000C9486000C9486000C9486000C94860048
:100020000C9486000C9486000C9486000C94860038
:100030000C9486000C9486000C9486000C94860028
:100040000C9486000C9486000C9486000C94860018
:100050000C9486000C946A040C9486000C94AC04F6
:100060000C9486000C9486000C9486000C948600F8
:100070000C9486000C9486000C9486000C948600E8
:100080000C9486000C9486000C9486000C948600D8
:100090000C9486000C9486000C9486000C948600C8
:1000A0000C9486000C9486000C9486000C948600B8
:1000B0000C9486000C9486000C9486000C948600A8
:1000C0000C9486000C9486000C9486000C94860098
:1000D0000C9486000C9486000C9486000C94860088
:1000E0000C94860011241FBECFEFD1E2DEBFCDBF3E
:1000F00000E00CBF22E0A0E0B2E001C01D92A230FF
:10010000B207E1F70E9488000C9446060C940000A8
:10011000CF93DF93CDB7DEB7CC5AD1090FB6F894A1
:10012000DEBF0FBECDBF88E893E19A83898384E662
:1001300090E09C838B830E942E040E943B04898163
:100140009A819C01990F440B550BA1962CAF3DAFA2
:100150004EAF5FAFA197A1966CAD7DAD8EAD9FAD5B
:10016000A1970E94240521966CAF7DAF8EAF9FAF03
:10017000219721968CAD9DADAEADBFAD21978FA7D8
:1001800098ABA9ABBAAB20E030E04AE755E46FA5E5
:1001900078A989A99AA90E94B105A5966CAF7DAFEF
:1001A0008EAF9FAFA597A5962CAD3DAD4EAD5FAD83
:1001B000A5972BAB3CAB4DAB5EAB20E030E040E80D
:1001C0005FE36BA97CA98DA99EA90E94EE048823F8
:1001D0002CF481E090E098AF8FAB66C020E03FEF59
:1001E0004FE757E46BA97CA98DA99EA90E94AC0595
:1001F000882309F00CF446C020E030E040E251E4EE
:100200006FA578A989A99AA90E94B105A9966CAF92
:100210007DAF8EAF9FAFA997A9968CAD9DADAEADCA
:10022000BFADA9976D968CAF9DAFAEAFBFAF6D97C9
:100230006D966CAD7DAD8EAD9FAD6D970E94F30454
:10024000AD966CAF7DAF8EAF9FAFAD97AB96AEADB9
:10025000BFADAB97B8AFAFAB10C080E991E09AAF3C
:1002600089AF89AD9AAD0197F1F79AAF89AF0000D8
:100270008FA998AD019798AF8FAB8FA998AD0097D4
:1002800061F71DC06BA97CA98DA99EA90E94F304EA
:10029000E1966CAF7DAF8EAF9FAFE197AF962EAD7D
:1002A0003FADAF9738AF2FAB8FA998AD9CAF8BAF59
:1002B0008BAD9CAD0197F1F79CAF8BAF00000E9416
:1002C00055048B819C819C01990F440B550BE5963D
:1002D0002CAF3DAF4EAF5FAFE597E5966CAD7DAD12
:1002E0008EAD9FADE5970E94240525966CAF7DAF3E
:1002F0008EAF9FAF259725968CAD9DADAEADBFADB2
:10030000259789A39AA3ABA3BCA320E030E04AE7DA
:1003100055E469A17AA18BA19CA10E94B105E9963F
:100320006CAF7DAF8EAF9FAFE997E9962CAD3DAD39
:100330004EAD5FADE9972DA33EA34FA358A720E094
:1003400030E040E85FE36DA17EA18FA198A50E94F7
:10035000EE0488232CF481E090E09AA789A76CC072
:1003600020E03FEF4FE757E46DA17EA18FA198A554
:100370000E94AC05882309F00CF448C020E030E06E
:1003800040E251E469A17AA18BA19CA10E94B10530
:10039000ED966CAF7DAF8EAF9FAFED97ED968CADC8
:1003A0009DADAEADBFADED9769968CAF9DAFAEAFD5
:1003B000BFAF699769966CAD7DAD8EAD9FAD699706
:1003C0000E94F304C358DF4F688379838A839B8339
:1003D000CD57D040EF96AEADBFADEF97BAA7A9A766
:1003E00010C080E991E09CA78BA78BA59CA50197E5
:1003F000F1F79CA78BA7000089A59AA501979AA75A
:1004000089A789A59AA5009761F721C06DA17EA152
:100410008FA198A50E94F304CF57DF4F688379839B
:100420008A839B83C158D040CF57DF4F28813981C1
:10043000C158D0403AA729A789A59AA59EA78DA7FC
:100440008DA59EA50197F1F79EA78DA700000E949C
:10045000480489819A819C01990F440B550BCB5715
:10046000DF4F288339834A835B83C558D040CB57FD
:10047000DF4F688179818A819B81C558D0400E9475
:10048000240529966CAF7DAF8EAF9FAF2997299633
:100490008CAD9DADAEADBFAD29978B8B9C8BAD8BDD
:1004A000BE8B20E030E04AE755E46B897C898D897A
:1004B0009E890E94B105C757DF4F688379838A837D
:1004C0009B83C958D040C757DF4F288139814A8163
:1004D0005B81C958D0402F8B388F498F5A8F20E0CD
:1004E00030E040E85FE36F89788D898D9A8D0E94B6
:1004F000EE0488232CF481E090E09C8F8B8F72C0F7
:1005000020E03FEF4FE757E46F89788D898D9A8D12
:100510000E94AC05882309F00CF44EC020E030E0C6
:1005200040E251E46B897C898D899E890E94B105E6
:10053000C357DF4F688379838A839B83CD58D0402C
:10054000C357DF4F88819981AA81BB81CD58D040A4
:1005500065968CAF9DAFAEAFBFAF659765966CAD3E
:100560007DAD8EAD9FAD65970E94F304CF56DF4FF2
:10057000688379838A839B83C159D040CF56DF4FEC
:10058000A881B981C159D040BC8FAB8F10C080E920
:1005900091E09E8F8D8F8D8D9E8D0197F1F79E8FAF
:1005A0008D8F00008B8D9C8D01979C8F8B8F8B8DF9
:1005B0009C8D009761F721C06F89788D898D9A8D08
:1005C0000E94F304CB56DF4F688379838A839B8331
:1005D000C559D040CB56DF4F28813981C559D0400D
:1005E0003C8F2B8F8B8D9C8D98A38F8F8F8D98A197
:1005F0000197F1F798A38F8F00000E9455048B811B
:100600009C819C01990F440B550BC756DF4F2883E3
:1006100039834A835B83C959D040C756DF4F68810D
:1006200079818A819B81C959D0400E9424052D96E9
:100630006CAF7DAF8EAF9FAF2D972D968CAD9DADDE
:10064000AEADBFAD2D978D839E83AF83B88720E07D
:1006500030E04AE755E46D817E818F8198850E9464
:10066000B105C356DF4F688379838A839B83CD5955
:10067000D040C356DF4F288139814A815B81CD59F3
:10068000D04029873A874B875C8720E030E040E8FC
:100690005FE369857A858B859C850E94EE048823BB
:1006A0002CF481E090E09E878D8772C020E03FEFC0
:1006B0004FE757E469857A858B859C850E94AC0558
:1006C000882309F00CF44EC020E030E040E251E411
:1006D0006D817E818F8198850E94B105CF55DF4F56
:1006E000688379838A839B83C15AD040CF55DF4F7B
:1006F00088819981AA81BB81C15AD04061968CAF13
:100700009DAFAEAFBFAF619761966CAD7DAD8EAD65
:100710009FAD61970E94F304CB55DF4F68837983C7
:100720008A839B83C55AD040CB55DF4FA881B981BE
:10073000C55AD040BE87AD8710C080E991E0988B44
:100740008F878F8598890197F1F7988B8F870000A5
:100750008D859E8501979E878D878D859E850097C7
:1007600061F721C069857A858B859C850E94F30499
:10077000C755DF4F688379838A839B83C95AD040EA
:10078000C755DF4F28813981C95AD0403E872D8710
:100790008D859E859A8B898B89899A890197F1F736
:1007A0009A8B898B00000000C8CCCF93DF93CDB724
:1007B000DEB784E490E0FC01108285E490E023E061
:1007C000FC01208387E490E02FE7FC0120838EE684
:1007D00090E023E0FC0120830000DF91CF91089599
:1007E000CF93DF93CDB7DEB784E290E0FC012081A8
:1007F00084E290E02064FC0120838AE091E0FC0127
:1008000020818AE091E02862FC0120838BE091E066
:10081000FC0120818BE091E0277DFC01208381E2B7
:1008200090E0FC01208181E290E02160FC012083C6
:1008300080E390E0FC01208180E390E02260FC01F5
:10084000208381E390E0FC01208181E390E022603D
:10085000FC0120830000DF91CF910895CF93DF93B7
:10086000CDB7DEB70E94F0030E94D5037894000054
:10087000DF91CF910895CF93DF93CDB7DEB781E0BD
:1008800080930002109201020000DF91CF91089541
:10089000CF93DF93CDB7DEB781E080930102109252
:1008A00000020000DF91CF910895CF93DF93CDB781
:1008B000DEB710920002109201028BE091E0FC0181
:1008C00020818BE091E0277DFC0120830000DF91F7
:1008D000CF9108951F920F920FB60F9211240BB66D
:1008E0000F922F938F939F93EF93FF93CF93DF9369
:1008F000CDB7DEB780910002882349F08BE091E00C
:10090000FC0120818BE091E02F7DFC012083809110
:100910000102882349F08BE091E0FC0120818BE00B
:1009200091E0277FFC01208384E290E0FC0120819C
:1009300084E290E02F7BFC0120830000DF91CF91C7
:10094000FF91EF919F918F912F910F900BBE0F9080
:100950000FBE0F901F9018951F920F920FB60F9217
:1009600011240BB60F922F938F939F93EF93FF93C6
:10097000CF93DF93CDB7DEB780910002882349F093
:100980008BE091E0FC0120818BE091E02062FC0192
:10099000208380910102882349F08BE091E0FC01E3
:1009A00020818BE091E02860FC01208384E290E0CC
:1009B000FC01208184E290E02064FC01208300009F
:1009C000DF91CF91FF91EF919F918F912F910F9098
:1009D0000BBE0F900FBE0F901F9018950E945F05E1
:1009E00008F481E008950E948B0588F09F5798F0E5
:1009F000B92F9927B751B0F0E1F0660F771F881F24
:100A0000991F1AF0BA95C9F714C0B13091F00E943D
:100A1000A505B1E008950C94A505672F782F8827C8
:100A2000B85F39F0B93FCCF3869577956795B39564
:100A3000D9F73EF490958095709561957F4F8F4FD3
:100A40009F4F0895E89409C097FB3EF490958095D8
:100A5000709561957F4F8F4F9F4F9923A9F0F92F84
:100A600096E9BB279395F695879577956795B79502
:100A7000F111F8CFFAF4BB0F11F460FF1BC06F5FE8
:100A80007F4F8F4F9F4F16C0882311F096E911C0FA
:100A9000772321F09EE8872F762F05C0662371F01B
:100AA00096E8862F70E060E02AF09A95660F771F2F
:100AB000881FDAF7880F9695879597F90895990F0B
:100AC0000008550FAA0BE0E8FEEF16161706E80718
:100AD000F907C0F012161306E407F50798F0621B39
:100AE000730B840B950B39F40A2661F0232B242B0E
:100AF000252B21F408950A2609F4A140A6958FEF2D
:100B0000811D811D089557FD9058440F551F59F0C0
:100B10005F3F71F04795880F97FB991F61F09F3FEA
:100B200079F087950895121613061406551FF2CF13
:100B30004695F1DF08C0161617061806991FF1CF63
:100B400086957105610508940895E894BB2766278A
:100B50007727CB0197F908950E945F0508F48FEF7E
:100B600008950E94C4050C9435060E94270638F0AB
:100B70000E942E0620F0952311F00C941E060C9472
:100B8000240611240C94A6050E94830570F3959FFA
:100B9000C1F3950F50E0551F629FF001729FBB2774
:100BA000F00DB11D639FAA27F00DB11DAA1F649F10
:100BB0006627B00DA11D661F829F2227B00DA11DC3
:100BC000621F739FB00DA11D621F839FA00D611D49
:100BD000221F749F3327A00D611D231F849F600D6A
:100BE000211D822F762F6A2F11249F5750409AF093
:100BF000F1F088234AF0EE0FFF1FBB1F661F771F1F
:100C0000881F91505040A9F79E3F510580F00C94E9
:100C10001E060C94A6055F3FE4F3983ED4F3869538
:100C200077956795B795F795E7959F5FC1F7FE2B89
:100C3000880F911D9695879597F9089597F99F6765
:100C400080E870E060E008959FEF80EC0895002454
:100C50000A941616170618060906089500240A9421
:100C600012161306140605060895092E0394000CA7
:100C700011F4882352F0BB0F40F4BF2B11F460FF36
:100C800004C06F5F7F4F8F4F9F4F0895F894FFCF41
:00000001FF
