:100000000C9472000C9493000C9493000C94930045
:100010000C9493000C9493000C9493000C94930014
:100020000C9493000C9493000C9493000C94930004
:100030000C9493000C9493000C9493000C949300F4
:100040000C9493000C9493000C9493000C949300E4
:100050000C9493000C9493000C9493000C949300D4
:100060000C9493000C9493000C9493000C949300C4
:100070000C9493000C9493000C9493000C949300B4
:100080000C9493000C9493000C9493000C949300A4
:100090000C9493000C9493000C9493000C94930094
:1000A0000C9493000C9493000C9493000C94930084
:1000B0000C9493000C9493000C9493000C94930074
:1000C0000C9493000C9493000C9493000C94930064
:1000D0000C9493000C9493000C9493000C94930054
:1000E0000C94930011241FBECFEFD1E2DEBFCDBF31
:1000F00000E00CBF12E0A0E0B2E0E8E6FBE000E0C8
:100100000BBF02C007900D92A232B107D9F722E0CF
:10011000A2E2B2E001C01D92A432B207E1F70E9450
:1001200041040C94B2050C940000CF93DF93CDB73B
:10013000DEB781E091E0FC01208181E091E0206266
:10014000FC01208381E091E0FC01208181E091E0CD
:100150002061FC01208383E390E0FC01208183E3A4
:1001600090E02062FC01208382E091E0FC0120818C
:1001700082E091E02F7EFC01208384E390E0FC018B
:10018000208184E390E02F7DFC0120830000DF913B
:10019000CF910895CF93DF9300D00F920F92CDB7F8
:1001A000DEB78D831A82198239C08D81082E000C2A
:1001B000990B817099279C838B838D8185958D8385
:1001C0008B819C81009751F082E091E0FC012081BD
:1001D00082E091E02062FC01208309C082E091E08E
:1001E000FC01208182E091E02F7DFC01208382E0F0
:1001F00091E0FC01208182E091E02061FC012083FC
:1002000082E091E0FC01208182E091E02F7EFC0100
:10021000208389819A8101969A83898389819A8131
:100220008730910511F208F2000000000F900F9046
:100230000F900F900F90DF91CF910895CF93DF93A0
:100240000F920F92CDB7DEB79A83898380E190E059
:10025000098002C0880F991F0A94E2F70E94CA0021
:1002600000000F900F90DF91CF910895CF93DF930F
:1002700000D0CDB7DEB789837B836A8389810E94F2
:10028000CA008A819B810E941E0184E390E0FC01E8
:10029000208184E390E02062FC01208384E390E0ED
:1002A000FC01208184E390E02F7DFC01208300008D
:1002B0000F900F900F90DF91CF910895CF93DF9320
:1002C000CDB7DEB7A6970FB6F894DEBF0FBECDBF91
:1002D0009A8B898B1A821982CCC049895A899A01D2
:1002E000ADECBCEC0E944B049C01369527953695ED
:1002F000279536952795C901880F991F880F991F53
:10030000820F931F880F991F9A01281B390BC9016F
:10031000880F991F8E5F9D4FDC018D919C91282F36
:1003200089819A81BC01822F0E94360189899A892C
:100330009C01ADECBCEC0E944B049695879596957C
:100340008795969587959A8B898B80E090E0A0E8B9
:10035000BFE38B839C83AD83BE8320E030E04AE71C
:1003600055E46B817C818D819E810E941D056F8B80
:10037000788F898F9A8F8F89988DA98DBA8D8F8369
:100380009887A987BA8720E030E040E85FE36F8173
:10039000788589859A850E945A0488232CF481E007
:1003A00090E09C878B8755C020E03FEF4FE757E4F4
:1003B0006F81788589859A850E9418058823D9F1EF
:1003C000D4F120E030E040E251E46B817C818D810A
:1003D0009E810E941D056B8F7C8F8D8F9E8F8B8DD4
:1003E0009C8DAD8DBE8D8B8B9C8BAD8BBE8B6B89AD
:1003F0007C898D899E890E945F046F8F78A389A371
:100400009AA3AF8DB8A1BC87AB8710C080E991E0FB
:100410009E878D878D859E850197F1F79E878D87B5
:1004200000008B859C8501979C878B878B859C859D
:10043000009761F719C06F81788589859A850E9438
:100440005F046BA37CA38DA39EA3EBA1FCA1FC87FF
:10045000EB878B859C85988B8F878F8598890197F3
:10046000F1F7988B8F87000089819A8101969A8392
:10047000898389819A818330910509F00CF42DCF0D
:1004800000000000A6960FB6F894DEBF0FBECDBFE9
:10049000DF91CF910895CF93DF93CDB7DEB7C655E7
:1004A000D1090FB6F894DEBF0FBECDBF8FE290E04A
:1004B000DC018C91882F90E082709927009709F0D9
:1004C000CCC08091220290912302009709F00CF495
:1004D000C4C080912202909123020197909323023D
:1004E00080932202AFC080910002909101029C0192
:1004F000990F440B550B2FA738AB49AB5AAB6FA5DF
:1005000078A989A99AA90E9490046F8F78A389A3DA
:100510009AA38F8D98A1A9A1BAA18B839C83AD8347
:10052000BE8320E030E04AE755E46B817C818D8119
:100530009E810E941D056BAB7CAB8DAB9EAB2BA946
:100540003CA94DA95EA92F83388749875A8720E0A7
:1005500030E040E85FE36F81788589859A850E9465
:100560005A0488232CF481E090E09C878B8759C043
:1005700020E03FEF4FE757E46F81788589859A85C2
:100580000E9418058823D9F1D4F120E030E040E240
:1005900051E46B817C818D819E810E941D056FAB32
:1005A00078AF89AF9AAF8FA998ADA9ADBAAD8FA337
:1005B00098A7A9A7BAA76FA178A589A59AA50E940F
:1005C0005F046BAF7CAF8DAF9EAFABADBCADBC87F6
:1005D000AB8710C080E991E09E878D878D859E85D1
:1005E0000197F1F79E878D8700008B859C85019789
:1005F0009C878B878B859C85009761F71DC06F81D9
:10060000788589859A850E945F0423966CAF7DAFBB
:100610008EAF9FAF23972196EEADFFAD2197FC875C
:10062000EB878B859C85988B8F878F859889019721
:10063000F1F7988B8F87000080912202909123021E
:100640000E945E018FE290E0DC018C91882F90E0A7
:1006500082709927009709F446CF8FE290E0FC0161
:100660008081882F90E084709927009709F0DEC080
:1006700080912202909123028336910511F00CF0B3
:10068000D5C080912202909123020196909323027B
:1006900080932202C0C080910002909101029C01CF
:1006A000990F440B550B27962CAF3DAF4EAF5FAF64
:1006B000279727966CAD7DAD8EAD9FAD27970E9495
:1006C00090046BA37CA38DA39EA38BA19CA1ADA141
:1006D000BEA1898B9A8BAB8BBC8B20E030E04AE7C4
:1006E00055E469897A898B899C890E941D052B961E
:1006F0006CAF7DAF8EAF9FAF2B972B962CAD3DADE2
:100700004EAD5FAD2B972D8B3E8B4F8B588F20E0DE
:1007100030E040E85FE36D897E898F89988D0E9483
:100720005A0488232CF481E090E09A8F898F62C06C
:1007300020E03FEF4FE757E46D897E898F89988DE0
:100740000E941805882309F00CF442C020E030E034
:1007500040E251E469897A898B899C890E941D0550
:100760002F966CAF7DAF8EAF9FAF2F972F968CAD2E
:100770009DADAEADBFAD2F978BA79CA7ADA7BEA774
:100780006BA57CA58DA59EA50E945F0463966CAFAA
:100790007DAF8EAF9FAF63976196AEADBFAD6197F2
:1007A000BA8FA98F10C080E991E09C8F8B8F8B8DC1
:1007B0009C8D0197F1F79C8F8B8F0000898D9A8D0E
:1007C00001979A8F898F898D9A8D009761F71DC047
:1007D0006D897E898F89988D0E945F0467966CAFC2
:1007E0007DAF8EAF9FAF67976596EEADFFAD659716
:1007F000FA8FE98F898D9A8D9E8F8D8F8D8D9E8D2D
:100800000197F1F79E8F8D8F0000809122029091C9
:1008100023020E945E018FE290E0DC018C91882F20
:1008200090E084709927009709F435CF80912202D7
:10083000909123020E945E018FE290E0FC01808192
:10084000882F90E088709927009709F02FCE80E0DC
:1008500090E00E945E0180912202909123029A838F
:100860008983109223021092220289819A81CA5AA6
:10087000DF4F0FB6F894DEBF0FBECDBFDF91CF9133
:100880000895CF93DF93CDB7DEB70E9495000E9405
:100890004B020000FCCFA29FB001B39FC001A39FF9
:1008A000700D811D1124911DB29F700D811D1124A9
:1008B000911D08950E94CB0408F481E008950E94E0
:1008C000F70488F09F5798F0B92F9927B751B0F0E7
:1008D000E1F0660F771F881F991F1AF0BA95C9F7C4
:1008E00014C0B13091F00E941105B1E008950C944C
:1008F0001105672F782F8827B85F39F0B93FCCF3FF
:10090000869577956795B395D9F73EF49095809540
:10091000709561957F4F8F4F9F4F0895E89409C060
:1009200097FB3EF490958095709561957F4F8F4F22
:100930009F4F9923A9F0F92F96E9BB279395F69538
:10094000879577956795B795F111F8CFFAF4BB0FB6
:1009500011F460FF1BC06F5F7F4F8F4F9F4F16C01A
:10096000882311F096E911C0772321F09EE8872FA4
:10097000762F05C0662371F096E8862F70E060E060
:100980002AF09A95660F771F881FDAF7880F9695D9
:10099000879597F90895990F0008550FAA0BE0E87D
:1009A000FEEF16161706E807F907C0F01216130631
:1009B000E407F50798F0621B730B840B950B39F471
:1009C0000A2661F0232B242B252B21F408950A26D7
:1009D00009F4A140A6958FEF811D811D089557FD53
:1009E0009058440F551F59F05F3F71F04795880F9D
:1009F00097FB991F61F09F3F79F087950895121634
:100A000013061406551FF2CF4695F1DF08C01616DF
:100A100017061806991FF1CF869571056105089490
:100A20000895E894BB2766277727CB0197F90895A7
:100A30000E94CB0408F48FEF08950E9430050C94B7
:100A4000A1050E94930538F00E949A0520F0952395
:100A500011F00C948A050C94900511240C94120545
:100A60000E94EF0470F3959FC1F3950F50E0551F5E
:100A7000629FF001729FBB27F00DB11D639FAA27F3
:100A8000F00DB11DAA1F649F6627B00DA11D661F42
:100A9000829F2227B00DA11D621F739FB00DA11D63
:100AA000621F839FA00D611D221F749F3327A00D1D
:100AB000611D231F849F600D211D822F762F6A2FB9
:100AC00011249F5750409AF0F1F088234AF0EE0F1E
:100AD000FF1FBB1F661F771F881F91505040A9F74B
:100AE0009E3F510580F00C948A050C9412055F3FDF
:100AF000E4F3983ED4F3869577956795B795F79587
:100B0000E7959F5FC1F7FE2B880F911D96958795FE
:100B100097F9089597F99F6780E870E060E008957D
:100B20009FEF80EC089500240A9416161706180605
:100B30000906089500240A941216130614060506E1
:100B40000895092E0394000C11F4882352F0BB0F72
:100B500040F4BF2B11F460FF04C06F5F7F4F8F4FD5
:080B60009F4F0895F894FFCFA8
:100B6800010003FF9FFF25FF0DFF99FF49FF41FF8C
:100B78001FFF01FF09FF11FFC1FF63FF85FF61FF31
:020B880071FFFB
:00000001FF
