:100000000C9472000C947E000C947E000C947E0084
:100010000C947E000C947E000C947E000C947E0068
:100020000C947E000C947E000C947E000C947E0058
:100030000C947E000C947E000C947E000C947E0048
:100040000C947E000C947E000C947E000C947E0038
:100050000C947E000C947E000C947E000C947E0028
:100060000C947E000C947E000C947E000C947E0018
:100070000C947E000C947E000C947E000C947E0008
:100080000C947E000C947E000C947E000C947E00F8
:100090000C947E000C947E000C947E000C947E00E8
:1000A0000C947E000C947E000C947E000C947E00D8
:1000B0000C947E000C947E000C947E000C947E00C8
:1000C0000C947E000C947E000C947E000C947E00B8
:1000D0000C947E000C947E000C947E000C947E00A8
:1000E0000C947E0011241FBECFEFD1E2DEBFCDBF46
:1000F00000E00CBF0E94A9000C94B1000C94000019
:10010000CF93DF93CDB7DEB784E290E0FC0120818E
:1001100084E290E02064FC01208380E890E022E308
:10012000FC01208381E890E02CE1FC01208386E83B
:1001300090E024E234EFFC01318320838AE890E0F0
:1001400020E533ECFC01318320830000DF91CF9167
:100150000895CF93DF93CDB7DEB70E9480000000F3
:06016000FECFF894FFCF72
:00000001FF
